:020000040000fa
:10000000f03f0020093b000017320000433600009b
:1000100000000000000000000000000000000000e0
:10002000000000000000000000000000f32b0000b2
:100030000000000000000000f32b0000f32b000084
:10004000f32b0000f32b0000f32b0000f32b000038
:1000500071440000f32b0000f32b0000f32b000091
:10006000f32b000019450000f32b0000f32b0000d8
:10007000f32b0000f32b0000f32b0000f32b000008
:10008000f32b0000f32b0000f32b0000f32b0000f8
:10009000f32b0000f32b0000f32b0000f32b0000e8
:1000a000f32b0000f32b00004d1500004d15000050
:1000b0004d1500004d1500009d1e00009d1e000006
:1000c0009d1e00009d1e0000f32b0000f32b00007e
:1000d000f32b0000f32b0000f32b0000f32b0000a8
:1000e000f32b0000f32b0000f32b0000f32b000098
:0400f000f32b0000ee
:020000040000fa
:1000f400f8b5c046f8bc08bc9e467047713e000087
:10010400f8b5c046f8bc08bc9e4670474d3e00009a
:020000040000fa
:08011400040e000001000000d0
:020000040000fa
:10011c00f0b557464e46de4645460c00e0b51f008e
:10012c0003008db0029003911600009301940028f7
:10013c0000d156e134003d00a4197d414ff6ff7308
:10014c0021002a00c0f21f03b146ba460491059261
:10015c00ab4200d340e1009c019d20002900001916
:10016c00694183468846994233d9cc4b994238d958
:10017c0040f2ff7140f2fd72019b1b0d0b40013be5
:10018c00934200d9ebe03b0d0b40013b934200d96d
:10019c00e5e03000390004f0a7f8804604f09ffa3f
:1001ac00814500d1a0e0029803990022002303f0be
:1001bc00e6fe002800d185e000250024c7f6f8757e
:1001cc00200029000db03cbc90469946a246ab4697
:1001dc00f0bd002f05da40f278732222c2f2000340
:1001ec001a60019b002bc3daac4b059a9342bfd328
:1001fc00ab4a7b0094465b0d6344332b00d9f7e08c
:10020c003422d21a9446203a099200d55ee100219c
:10021c000022069107920122099952428a400792c4
:10022c000122614652428a400692069c079d20009c
:10023c002900802200196941340052033a438a4351
:10024c00099984432500002900da33e11000c840e5
:10025c000a9060461100c14020200b9119004042c9
:10026c000c1800d51ee12a00a24011002a009a4069
:10027c001000001849410a9b0b9a03430a93069bf2
:10028c00079c1d0023003b400a4319008023354086
:10029c00d2022800d20a5b039a4205d800d0bfe0f4
:1002ac000a9b002b00d1bbe0099c002c00da1ee15c
:1002bc000125a5402b0001246546ac402200801886
:1002cc005941ade0009b019c18006300590801f0f6
:1002dc00dffc02000b003000390002f0a5f801f041
:1002ec00b5fb04000d006be78a4500d05be780236b
:1002fc001b06984500d156e74346002b00dac9e0af
:10030c000027002b68d03b0000254746002401261f
:10031c009846c3f6f0753e4207d0029a039b200024
:10032c00290002f081f804000d007f0877b94746d8
:10033c00002f00d144e7002122002b000020c3f63f
:10034c00f07102f097fd04000d0039e70298039953
:10035c0002000b0002f068f802900391dbe7002327
:10036c00cff6e07398452ed82ad00499059a00232d
:10037c00cff6e073934200d289e000d183e04ff6d0
:10038c00ff73c0f21f0398455ed9009b002b00d170
:10039c00cae04b46002b00d1b0e04ff6ff72019b38
:1003ac00c3f6ef725b005b08934200d8eee0009b53
:1003bc00002b00d1ede000240025c7f6f075ffe618
:1003cc005b46002bd1d0029c039df9e6019acbf63b
:1003dc00f0739a4200d09ae000250024c3f6f07521
:1003ec00eee6019ac3f6f0739a4200d0a2e6eae771
:1003fc0040f2004230003900934211d9049805991b
:10040c0000230022c7f6c073121a8b41da1700239f
:10041c00c3f6f0731a40fb0fdb071a4300201100e0
:10042c0002000b003000390003f0aaff002800d0b6
:10043c009ee640f2787321220025c2f200031a6076
:10044c000024c7f6f875bbe63000390003f04cff0a
:10045c00804604f044f9814500d0a4e68a4500d0da
:10046c00a1e653460022002b00da99e00024002577
:10047c004346db0700d4a3e6019b0024db0fdb071c
:10048c0053401d009ce6049b002b00d177e7340001
:10049c003d0095e65b429846012734e7ffffdffffe
:1004ac0001fcffff20212c009a40c91acc401100fe
:1004bc002143dbe660462021091a10008840010028
:1004cc0020006446e04008430a90c2e662462021c0
:1004dc00891a012252421000c84001006046824035
:1004ec00002400250a4306940795079298e62023da
:1004fc00624601249b1adc402300dce6cff6f07345
:10050c009a4500d049e7009b002b00d15ee74ff6df
:10051c00ff72019bc3f6ef725b005b0800240025a1
:10052c00934200d94ce648e7019ac7f6f0739a4219
:10053c0025d00023cff6f0739a4200d029e753461a
:10054c00002b34db00240023cff6f074002500933d
:10055c0001940024c7f6f0753000390003f0c4fe96
:10056c00060004f0bcf8814500d029e68a4500d08d
:10057c0026e6f30700d423e6009c019d20e65346b3
:10058c0000240025002b00db17e719e600240025ca
:10059c0016e6019acbf6f0739a4200d00be71be7f4
:1005ac000025c7f6f0720024c7f6f07560e78024ca
:1005bc00002324060093019400250024cce7c046b8
:020000040000fa
:1005cc00f0b59bb013930b6815900a938b680d9143
:1005dc000b930b694d681893cb68029313680893bf
:1005ec0053680898069300220023069903f0c7fc71
:1005fc0060b90a9b5b0738d408200a9b0340099317
:10060c000b9b0393099b7bb1202306e080221206ef
:10061c009446069b634406932d23029a13700b9bfe
:10062c00013b039301230993069b08995b005b082c
:10063c008f4af1b993421cd10299139b8c46099aab
:10064c00413b624410008b49192b10d804f045f93a
:10065c00029804f02df90a9b0200009302990b9b5f
:10066c00159802f0abff1bb0f0bd2b23d5e704317e
:10067c00ece7934202d80fd1089b6bb10299139b04
:10068c008c46099a413b624410007a49192b01d8d7
:10069c000831dbe70c31d9e70022002308980699d2
:1006ac0003f06efe0026744f0024e8bb040002e049
:1006bc000134049e059f0022704b3000390001f07c
:1006cc00b3fe089a069b0490059103f0b5fc002834
:1006dc00eed0002304931fe0694b9c4213da049b79
:1006ec008bb90022674b0898069901f09dfe654b6b
:1006fc000890069130003900002201f095fe01238c
:10070c0006000f0004933000390000225b4b02f00e
:10071c00b1fb06000f00013c32003b000898069923
:10072c0003f02dfc0028d7d1139804f0c8f8c3b2fd
:10073c000c93002d00da8be10493672b00d0a7e01b
:10074c00002d00d180e1231d02dbac4200da9be0de
:10075c006523abe0002200230e920f93f7e0069680
:10076c000797049b2600652b00d00ee100260ce1b8
:10077c00129b5bb9002e09da029a14992e3353544a
:10078c00039b0137013b039301231293ea193b00ae
:10079c009446302102e0029ad15401339c45fad19f
:1007ac00039aeb19551b029a30305f1cd0546b1e08
:1007bc000393002522e00d9b14971b691093053bb6
:1007cc00bb4200d8eae0069a079b08980e9902f003
:1007dc0051fb02f0affb1090119103f085fd09283d
:1007ec0000dd092010230a9a13400343002bbfd1cc
:1007fc000c9b672bbcd1002ec8da0135802000067b
:10080c0084460e99089a61440b0010981199009235
:10081c000193069a079b04f043f880231b06cb1820
:10082c0008900e93069807990022144b02f022fbb5
:10083c00013e06900791ade00a9bdb0600d4b1e0c7
:10084c002e23029ad3550137ace094fbf6fc61469b
:10085c007143611a029c3031013be15403996446a7
:10086c0001390391b1e0029a125c1a540138dbe0b1
:10087c000000f07f9a4800000000f03f0000244088
:10088c00d4feffff00005043002c0eda66230493c5
:10089c00049b0135662b0ad1002c02da00260024b9
:1008ac006e4f0c9b672b00d02d1966230493089b6d
:1008bc000e960f971293069b1093002314930e9a87
:1008cc000f9b1298109902f0d5fa02f033fb169098
:1008dc00179103f009fd19908020000684461099a9
:1008ec00129a61440b0016981799009201930e9a74
:1008fc000f9b03f0d5ff80231b06cb18129010938f
:10090c000e980f99564b002202f0b4fa149b0e90dd
:10091c000f91013314939d42d1d10022514b01f020
:10092c0083fd0e900f9102000b001298109903f0aa
:10093c0026fb002800d00de70e9a0f9b12981099f9
:10094c0003f01efd18b1199bdb0700d402e70e9ac9
:10095c000f9b0898069901f094fb002208900e91c9
:10096c003f4b3000390001f05ffd089a0e9b06905a
:10097c00079103f042fa002800d1f0e6049b013401
:10098c00662b00d0ede626000135731b0025099f70
:10099c0016931295169b9e4200d00ce7129b002bcf
:1009ac0000d149e70022029bd819049b0270652be9
:1009bc002ad1189b0299013bca54944201da644231
:1009cc00013203250a2618996d1a002c00d03ce739
:1009dc00e918002900dd38e75d1e2d2102b9023926
:1009ec00029a023b5155139a413a192a01d84522d1
:1009fc000492029ad118049a0a70039a023a03924a
:100a0c009f4201da03f069ff03230a9a1340022b79
:100a1c0000d01de6039b002b00dc19e6029803f0c6
:100a2c0047ff029b039a9b18099a824200dc1ae743
:100a3c001300029a3021944663441800039a03f081
:100a4c0016ff00230b9303e601257ce606257ae6c8
:100a5c000c9b672bfad00493062519e70000f03f96
:080a6c000000244000001440ca
:020000040000fa
:100a7400f0b599b015930b6814900b934b680d93d4
:100a84008b680c930b691193cb68039313680993d8
:100a940053680998089300220023089903f073fa15
:100aa40068b90b9b5b073ad408200b9b0c9d034051
:100ab40006938bb12023039a013d13700ae0802230
:100ac40012069446089b634408932d23039a1370db
:100ad4000c9b5d1e01230693089b099a5b005b082f
:100ae400fab9b64a93421cd10399159b8c46069acf
:100af400b34c6244413b10002100192b00d9211d45
:100b040003f0effe201d03f0d7fe0b9b02000093c1
:100b140003990c9b149802f055fd19b0f0bd2b23da
:100b2400d4e7a64a934202d814d1099b93b10399fe
:100b3400159b8c46069aa24c6244413b100021004e
:100b4400192b05d8083103f0ccfe20000c30dae76d
:100b54000c31f8e7069b03995a1c302306980b5472
:100b6400159b413b0e930e995823192900d9203324
:100b7400069909980231069103998b54ab1e0a9386
:100b840000220023089903f0fffb002800d164e150
:100b940000238c4c0793049305940d9b1093002b16
:100ba40001da182310930023049e059f099d089cd5
:100bb4003200129328003b00210002f05ff902f09a
:100bc400bdf932003b001690179101f031fc020090
:100bd4000b002800210003f019fe7b4b05000c00dc
:100be40030003900002201f023fc129b060001337f
:100bf4000f930d9b0f00002b06da00220023280020
:100c0400210003f0c1fb30b9109b129a934200dd1e
:100c140029e101330f9300226c4b3000390001f0bd
:100c240007fc06000f0002000b002800210003f05f
:100c3400aaf9002800d018e132003b002800210066
:100c440003f0a2fb30b11698179903f051fbc307c8
:100c540000d40ae1089932003b00099801f015fa22
:100c6400109149000890490818b9544b994200d191
:100c74003ae700252f00069c0995119b2600053ba9
:100c8400a3422dd9049a059b0898109902f0f6f80e
:100c940002f054f91290139103f02afb0300002888
:100ca40000d0e5e0002f00d1e2e00135049a059b75
:100cb4001298139901f0bcfb02000b0008981099dc
:100cc40003f0a4fd404b089010910022049805996c
:100cd40001f0aefb0f9b013704900591bb42ccd1d0
:100ce400099be3b9002d00d104e10d9b002b00dc2e
:100cf40000e10b9bdb0700d5fce02e22039b03994c
:100d04001b191a702a198a183021597001339a4212
:100d1400fbd12c19ed430a9b0134eb180a930022f2
:100d2400039b03991819119b0270013bca5407993c
:100d3400914202da4a4207920122022511990a26b7
:100d4400691a8c460799002900d0bee06146c9188b
:100d5400012900d1b9e05d1e2d2102b90239039a9f
:100d6400023b51550e995022192900d9203203997a
:100d7400c9180a709c4201da03f0b3fd03230b9aed
:100d84001340022b17d10a9d023d002d13dd039859
:100d940003f092fd039b5b19069a904200dba4e0ea
:100da4001300039a30219446634418002a0003f088
:100db40062fd00230c930398a5e6c0460000f07f73
:100dc4008a4800000000f03f0000b03f00002040cf
:100dd400079b0494059501330793049a059b10001f
:100de400190001f052f904000d0002000b000998eb
:100df400089903f0c8f80028ead0049a059b0998da
:100e0400089903f0c0f8002800d1c6e604980599b3
:100e140000223d4b01f00cfb0022002303f0b4fa46
:100e240078b1049805990022384b01f001fb0022a7
:100e340004900591354b0998089901f0f9fa099045
:100e44000891314b04980599002201f0f1fa079baf
:100e540004900591013b0793cfe700232c4c0790a6
:100e640004930594b9e70f9ba2e600260027f1e658
:100e7400099a4ab947b103992e328a550a9a01341c
:100e8400013a0a92012209922e1903e03021039ab1
:100e940011550134b442f9d118000a9a5730551b40
:100ea400092b01dc303318000e9b192b06d82023a4
:100eb4000343613b192b01d803f00cfd039b741c05
:100ec40098556b1e0a930025f0e60799079d91fb40
:100ed400f6f731007943691a039d3031013be95437
:100ee4000a99079701390a912ce7039a125c1a545c
:100ef400013851e70b9bdb0600d410e72e23039a3d
:100f0400135501340be7c0460000e03f0000504396
:040f14000000f03faa
:020000040000fa
:100f1800f0b585b000930393009b02900c00160077
:100f2800150001900f00002b00d0c9e08a424ad971
:100f3800100003f0fdf848b12023019f1b1adf4081
:100f4800019b84408340854027430193aab22b0c20
:100f5800b7fbf3f1160094461a004a434e43bf1af2
:100f6800019a3f04140c27430a00be4207d97f198f
:100f7800013abd4203d8be4201d98a1e7f19be1b61
:100f8800b6fbf3f14b436446f61a6b464c439b8819
:100f980036041e430f00b44207d97619013fb54203
:100fa80003d8b44201d98f1e76191204341b3a4370
:100fb8000a9b23b1c4401c6000230a994b601000af
:100fc800009905b0f0bd02b9ffde100003f0b0f8db
:100fd800b8bb0123a41b00932b0cb4fbf3f21f0036
:100fe80011005743aeb27143e41b019f24043f0c28
:100ff8003c439446a1420ad9012764197f42bc4464
:10100800a54204d8a14202d9023a94466419641a46
:10101800b4fbf3f77b43e41a6b467e439b882404b6
:101028001c433900a64207d964190139a54203d8df
:10103800a64201d9b91e641963461a04a41b0a43bf
:10104800b6e7202223000199121ad3408440d140e8
:10105800019a8540824021438c46290cb3fbf1f468
:1010680001920a00624326009b1a6246afb27e4391
:10107800120c1b04134322009e4207d95b19013a44
:101088009d4203d89e4201d9a21e5b199b1bb3fb4c
:10109800f1f671435b1a614677438cb21b041c431b
:1010a8003100a74207d964190139a54203d8a742dc
:1010b80001d9b11e641912040a43e41b00928be79c
:1010c800009b8b420ad90a9b002b00d1abe0029a05
:1010d80059601a60002300931a0070e7039803f020
:1010e80027f8d8b9039ba34203d3029b02009e4270
:1010f8000ad8029b01229e1b039b0196e41a029bbd
:10110800b342ad416d42671b0a9b0093002b00d18f
:1011180055e7019982c30023009350e720231b1a47
:1011280001933300019a039fd34087401f43230054
:101138000199d340029a8440ca4022439446029ab5
:10114800390c8240b3fbf1f402920a0086406243f4
:10115800009626009b1a6246bdb26e43120c1b0411
:10116800134322009e4207d9db19013a9f4203d854
:101178009e4201d9a21edb199e1bb6fbf1f4634601
:1011880061436543761a360499b20e432300b5428b
:1011980007d9f619013bb74203d8b54201d9a31eb6
:1011a800f61912041a436b461c88009b711b8c4667
:1011b800190c230096b2150c6c4373434d437143cd
:1011c8001e0c091971188c4202d9802464022d1949
:1011d8000c0c9bb209046519c918ac4503d30bd193
:1011e800029b8b4208d2009b013ace1ab142894138
:1011f8004942cf193100ed1b0a9b0093002b00d107
:10120800dde6029b019c591a63465d1b029b8b42db
:101218009b415b42ed1a2b00c140a340c5401943d6
:0a1228000a9b22c377e70a9b55e7f3
:020000040000fa
:02123200704703
:020000040000fa
:101234000023f0b506001500afb0059101930599a0
:101244000b78002b00d10ce101235b420a930eab17
:1012540000240c93802309940b940d930b5d0bb124
:10126400252b29d134b12200300002f0baff059bae
:101274001b190593059b1a78252a00d0e6e040f255
:10128400020c102108270133029305930598037873
:101294002b2b1bd025d8202b1bd0232b1dd02a2b46
:1012a4002ad002f0aefe0b90059b1a78303a092a38
:1012b40033d801330593f7e70134cfe70122099bc3
:1012c40080180393134309930590dfe70423099ad5
:1012d4000ee0099b03933b430be0099b03930b43f1
:1012e40007e02d2bead0302bd9d16246099b03931a
:1012f400134309930130e7e72b6801301a1d1b687b
:1013040005902a600b93002b07da099a5b4203923b
:10131400012203990b934a400992099bda0702d5eb
:10132400022293430993059b1a782e2a0ed1002298
:10133400581c0a9205905a782a2a28d10233059318
:101344002b681a1d1b682a6003930a9305a802f0f0
:1013540065ff059b0700187803f0b5fa692800d1ea
:1013640082e035dc632800d1d2e01bdc252800d1e3
:10137400dbe0612859d0252306aa1370029b05934c
:10138400002309930b93013b0a930233aee002f06e
:1013940038fe0a90059b1a78303a092ad6d80133c8
:1013a4000593f7e764285fd06728e4dc2a00390056
:1013b40006a803f09af8002800d1a5e0059b09a926
:1013c4005a1c05921b7806aa3000fff7fdf83ce092
:1013d400702800d17ae016dc6e2800d18de06f28e9
:1013e400c9d12b000022390006a801f060fe0028b4
:1013f40000d189e0059b06aa013309a930000593b1
:1014040002f002fa21e075283fd078284dd07328e5
:10141400b1d1802f00d077e0059b2a680133059372
:10142400131d2b601268002360e02a00390006a80f
:1014340003f05bf8002867d0059b09a95a1c0592a4
:101444001b7806aa3000fff713fb2418019b1c1914
:10145400a34200dc71e04f22394b1a6001235b4246
:10146400019301982fb0f0bd2b000122390006a88a
:1014740001f01dfe002847d0059b06aa013309a9e7
:101484003000059301f06efedfe72b0000223900e7
:1014940006a801f00cfeb8b3059b06aa013309a9fe
:1014a4003000059302f003fbcfe72b000022390044
:1014b40006a801f0fcfd38b3059b5a1c05921b7865
:1014c40006aa09a9300001f0cef9bee72b000022dc
:1014d400f02106a801f0ebfdb0b1059b079a01339a
:1014e4000593069b134333b9164a163209a93000f3
:1014f40002f0f6fba9e77823e2e7019b39001a1909
:1015040006a82b0002f0b7f9059b013305939de76c
:10151400802ff9d1059b013305932b681a1d1b6895
:101524002a6006aa13700123e0e7802fecd1059b03
:1015340006aa013305931070f5e701947fe6c046cf
:08154400780700202447000095
:020000040000fa
:10154c0010b540f60003c4f200239b7d1bb340f69c
:10155c000003c4f200235b8b9b071dd540f2f8639c
:10156c00c2f200032022ff2199540132fd39995413
:10157c0040f2f863c2f2000320229b5c5bb20133a1
:10158c0000d1e1e040f2f863c2f2000320229b5c40
:10159c00062b00d103e110bd40f60003c4f200237a
:1015ac005b8bdb070ad540f2f863c2f20003202202
:1015bc00ff2199540132fd399954d9e740f60003c3
:1015cc00c4f200235b8b5b070ad540f2f863c2f2ce
:1015dc0000032022ff2199540132fe399954c7e7a8
:1015ec0040f2f863c2f2000320229b5c5bb2032b37
:1015fc0072d0042b19d0022bbad140f2f863c2f28c
:10160c0000031b6943b140f2f863c2f200039888ef
:10161c00002102f011f8abe740f2f863c2f20003cc
:10162c009888012102f008f8a2e740f2f863c2f2b0
:10163c0000039a691b699a4215d040f2f863c2f212
:10164c00000399688c5c40f60001c4f2002128204c
:10165c000c5401329a6140f60002c4f20022d369a4
:10166c00002bfcd184e740f2f863c2f200035b6903
:10167c00d3b140f2f863c2f200039b885b000122f5
:10168c001343d202c4f20022536240f60002c4f2a9
:10169c000022d369002bfcd140f2f863c2f20003a4
:1016ac0020220321995463e740f60003c4f200237f
:1016bc005968c02292020a435a6040f60002c4f2f2
:1016cc000022d369002bfcd140f2f863c2f2000374
:1016dc002022062199544be740f2f863c2f2000332
:1016ec005a69013adb69934216d040f60002c4f203
:1016fc000022d369002bfcd140f2f863c2f2000344
:10170c00da6940f60001c4f200212820095cd8688f
:10171c0081540132da612be740f60003c4f2002356
:10172c005968e022d2020a435a6040f60002c4f221
:10173c000022d369002bfcd140f2f863c2f2000303
:10174c00202206219954d0e740f2f863c2f200033c
:10175c000021995440f60003c4f200235968c022ba
:10176c0092020a435a6040f60002c4f20022d36986
:10177c00002bfcd140f60003c4f2002383221a761e
:10178c0040f2f863c2f200035a6a002a00d102e761
:10179c0040f2f863c2f20003986a9047fbe640f20d
:1017ac00f863c2f20003002220215a5401315a542a
:1017bc0040f60003c4f2002383321a7640f600028e
:1017cc00c4f200220f31538b0b40102bfbd140f293
:1017dc00f863c2f200035a6a002a00d1dbe640f239
:0c17ec00f863c2f20003986a9047d4e64c
:020000040000fa
:1017f800480700201c000000000000001806002018
:101808006000000000000000240700200400000021
:10181800000000006c070020040000000000000029
:10182800f80600202c00000000000000c806002078
:1018380030000000000000009407002002000000b3
:1018480000000000900700200200000000000000d7
:101858008c07002002000000000000008e07002016
:1018680001000000000000007007002004000000d4
:1018780000000000880700200200000000000000af
:101888008607002002000000000000002807002052
:101898002000000000000000840700200200000073
:1018a800000000008a07002002000000000000007d
:1018b800840800200600000001000000400001022a
:1018c800feff00008c08002003000000010000005b
:1018d80002750000740700200400000000000000ea
:1018e80078070020040000000000000078060020af
:1018f8005000000000000000980700206c00000065
:1019080001000000a4070020a0070020a407002071
:10191800000000002500000008000020000400006e
:1019280000000000000000000000000000000000af
:10193800000000000000000000000000000000009f
:101948002349000000000000000000000000000023
:1019580000000000e3380000000000000000000064
:10196800000000000000000000000000000000006f
:1019780000000020080400000000000064080020a7
:10198800200000000100000001000000030000002a
:10199800000000000000000000000000000000003f
:1019a8000000000064070020640700200800000011
:1019b800000000007c070020040000000000000078
:1019c80008040020100200000000000004080020a5
:1019d800600000000100000001000000030000009a
:1019e80000000000000000000000000000000000ef
:1019f80000000000593a000000000000000000004c
:101a080000000000f34800001f4200000000000032
:101a180000000000000000000000000000000000be
:101a280000000000000000000000000000000000ae
:101a380000000000000000008007002004000000f3
:101a4800000000000000000000000000444444447e
:020000040000fa
:101a5800f0b54b00c6460d000a0040f2fd715b0d63
:101a6800013b00b5040006008b4200d9e0e042f6d5
:101a78004263c4f286039d4200ddfae000d1f1e042
:101a880042f22b33ccf286039a4200d9b9e000d156
:101a9800b0e049f6a1426b00c3f6c7325b08934237
:101aa80000d8b7e00022eb0fdb07c3f6e0725a401c
:101ab800170041f22c534ff63c120026c9f62f624c
:101ac800c3f6f7732000290000f0b0fc32003b0099
:101ad80000f0d9fa02f00afc804602f002fe43f256
:101ae80000030022cbf6e67306000f0000f09efc10
:101af80022002b0000f0c7fa40f6a8424df210036e
:101b080004000d00c5f66142c3f62b73300039009e
:101b180000f08cfc02000b002000290000f0b3fa52
:101b280002000b0006000f0000f080fc4df61c427e
:101b380045f2a423c6f65872c3f6f16304000d00fb
:101b480000f074fc4ff2e06247f2e403c6f6b372a9
:101b5800c3f67c7300f097fa22002b0000f066fcb5
:101b680000230022c3f6d07300f08dfa32003b0048
:101b780000f05cfc43f6090243f6997306000f0077
:101b8800c6f6de72c3f640732000290000f04efc52
:101b980045f2b31247f28e13c7f24212c3f6ac7382
:101ba80000f071fa22002b0000f040fc0d0000212b
:101bb800040032003b000020c3f6e07102f024fe6e
:101bc80002000b002000290000f05dfa02000b0063
:101bd8003000390001f050f9444600230022013456
:101be800c3f6e07300f04ffa220001f0dbff04bcfb
:101bf8009046f0bd4bf6d243cdf67a539e4200d8bc
:101c080047e740f278732222c2f200031a600020ec
:101c18000021ece7934206d144f22223c0f6924316
:101c28009e4200d93ee700210020c3f6f071dee7ae
:101c38002900002300196941cff6e073994225d89d
:101c480022d0002e00d02de70023c7f6f0739a4269
:101c58001cd00023cff6f0739a4200d022e7002070
:101c68000021c4e743f6ef13cff6fa63984200d891
:101c780006e740f2787322220021c2f200031a60bc
:101c88000020c7f6f071b2e70028dad0200029005a
:041c9800ade7c046ae
:020000040000fa
:101c9c00f0b5ce46474640f2fd7280b50b0d013bc8
:101cac0089b00c0093421bd902000b0012184b4157
:101cbc0015001a000023cff6e0739a420bd800d11e
:101ccc00e1e04ff6ff73c0f21f039a4200d8cfe059
:101cdc00002c00dac1e009b00cbc90469946f0bd6e
:101cec0007aa02f0c9f9079b050099464af29e0320
:101cfc00c3f6e6730c00994200dc84e0002300225a
:101d0c00c3f6f0732800210002f07cfd01220600ce
:101d1c000f0052422800210001f042ff0023002254
:101d2c00c3f6e07300f0adf902000b00300039008f
:101d3c0001f0a0f804000d0022002b002000290067
:101d4c0044f2405800f070fbc0f2000806000f008f
:101d5c0002000b004046022100f0bcff434610334a
:101d6c00009001913200180003213b0001f0a8fb08
:101d7c0002900391484602f0b2fc4bf29a5240f2a8
:101d8c00ff730490059100980199c1f2b322c4f23b
:101d9c00500302f037fd029a039b01f06bf83200fe
:101dac003b0000f041fb22002b0000f03dfb220029
:101dbc002b0000f066f9049e059f40f6a8424df2f8
:101dcc00100304000d00c5f66142cbf62b733000f6
:101ddc00390000f029fb02000b002000290000f064
:101dec0050f943f2000304000d000022c3f6e67321
:101dfc003000390000f018fb02000b002000290015
:101e0c0000f03ff967e7994206d143f6cd33c6f2ad
:101e1c007f63984200d971e701235b429c46002303
:101e2c000022c3f6e07328002100e14402f0eafc32
:101e3c000122524204000d0001f0b2fe00230022e8
:101e4c00c3f6e07300f01df902000b00200029001e
:101e5c0001f010f804000d006ee740f278732122b7
:101e6c000021c2f200031a600020c7f6f87132e7b5
:101e7c0040f2787322220021c2f200031a60002083
:101e8c00cff6f07127e7002d00d11ae723e7c04603
:020000040000fa
:101e9c00f8b540f60043c4f200239b7d03b340f633
:101eac000042c4f20022137edbb2927d52b2002ab1
:101ebc0017db40f60043c4f200231a7ed2b29b7d9e
:101ecc00db0702d5d30700d5b2e040f60043c4f2dd
:101edc0000231a7ed2b29b7d5b0701d553075fd4da
:101eec00f8bd5bb2002be4da40f60043c4f20023e9
:101efc005b8b07221340002bdbd040f2c864c2f28c
:101f0c000004e38502f04df940f60043c4f20023cf
:101f1c0084221a752c230022e254626a002ac8d04b
:101f2c00a06a9047c5e79a68ba5c0a859a6801323c
:101f3c009a6098680a7e2a420ad0844208d94a6874
:101f4c003240012aefd19a685200d25b0a85ede744
:101f5c0040f2c863c2f200039a685b689a42b4d339
:101f6c0040f2c863c2f2000300221a755a6040f6b0
:101f7c000042c4f2002201211175da68002aa4d0b3
:101f8c0040f2c863c2f20003186990479de740f223
:101f9c00c862c2f20002116a906949000b5222e039
:101fac0040f2c863c2f200032c229b5c002b97d03a
:101fbc0040f2c863c2f200031a6adb699a4200d38a
:101fcc008ee740f60042c4f20022138d9bb251689a
:101fdc0007220a40012adad040f2c862c2f200029b
:101fec00116a9269535440f2c863c2f200031a6a30
:101ffc0001321a621a6adb699a4200d070e740f229
:10200c00c863c2f2000300222c215a54da6140f654
:10201c000042c4f20022583111755b6a002b00d1ca
:10202c005ee740f2c862c2f20002906a984757e736
:10203c0040f2c863c2f200031b7d002b00d144e7c1
:10204c0040f2c863c2f200039a685c6840f6004331
:10205c00c4f200231b7edb0700d479e7a24200d335
:10206c0076e740f2c863c2f200031f6840f60041f5
:10207c00c4f20021072640f2c863c2f20003012516
:02208c005de70e
:020000040000fa
:10208e00f0b40125ed070f005f405ad48b4200d10a
:10209e00824205d950404240504059404b40594031
:1020ae004e18760ddf187f0d3bd0741c640529d0b9
:1020be00f41b352c26d80e0ddb022b43db0ac9028e
:1020ce002943c9121700202c1ed2e741e240574087
:1020de00e3415a40a340e3405a400024801859413e
:1020ee000ad3b21c520521d0c207012f624117003c
:1020fe004008cb0718434908013636054208af4160
:10210e0060417141f0bc7047203c06d01f00e74192
:10211e00e3405f400024012a6741c0186141ebd3c0
:10212e00dfe7002eeed129400020ebe70136310526
:10213e000020e7e7e742e5d10020c143090dc904bd
:10214e00e0e76b400e00871a9e4104d26e40c01b22
:10215e00b141d21973414e18df18ac0ae642e9d2ea
:10216e00760d7f0d31d0f41b362ccbd8b4460e0d28
:10217e00db022b43db0ac9022943c90a012c32d8e0
:10218e0004d1d4075208df073a435b08ef0a6442d2
:10219e00904199411ed0002239424dd1241940411f
:1021ae0049410124394204d10134001849413942d0
:1021be00fad06246a24204d9361b013e3605891971
:1021ce00a0e7f10ac90700209ce736429ad1002009
:1021de00002197e70200224394d0b842ded20100dc
:1021ee0020002024e3d1202c13dd203ce2411700f7
:1021fe00a240e2405740e3415a40a340e3405a40d8
:10220e00012fbf410137174300227c429841914173
:10221e000ce01700e741e2405740e3415a40a3402b
:10222e00e3405a407c429041994100220f0303d271
:10223e00013e241940414941013e36054708ac4153
:08224e0050417141f0bc7047e2
:020000040000fa
:10225600f0b5d646474680b589b0060040f22877e5
:10226600c2f20007bc68fd683c607d603a697b6924
:1022760000920193ba60fb60b969fa690291039210
:1022860039617a6140f28a73c2f2000300201b5e54
:102296009a4640f28673c2f2000300201b5e9846ff
:1022a600981002f01ffa00220023c3f6a07300f074
:1022b600bef846f26662c6f2666241f26623c4f270
:1022c6007103fff7e1fe04900591b861f961002200
:1022d60000232000290002f056f8002800d07ee0f6
:1022e60043f23332c3f2333243f23333c3f6d3739a
:1022f6002000290000f09bf8040080231b06cd185f
:1023060049f69a12c9f6991249f69913c3f6b973a2
:102316000098019900f08bf802000b0020002900bc
:1023260002f073fa04000d0049f69a12c9f69912e2
:1023360049f69913c3f6b9730298039900f077f832
:1023460002000b0020002900fff79efe04000d008e
:1023560043f23332c3f2333243f23333c3f6d37329
:102366000498059900f063f802000b00200029008c
:10237600fff78afe45f6ab22c5f2d21246f20e638d
:10238600c3f6337300f053f804000d00504602f014
:10239600a9f946f6f102c8f6e3024ff6b503c3f60d
:1023a600846300f044f802000b0020002900fff7c8
:1023b6006bfe0690079140f22870c2f200001830ba
:1023c60006a900f098f9306071605346b360434641
:1023d600f360300009b00cbc90469a46f0bd5046fa
:1023e60002f080f946f6f102c8f6e3024ff6b503ad
:0a23f600c3f6846300f01bf8dbe778
:020000040000fa
:1024000006d128b9f54203d800d30ab96d0d09d118
:102410000020c143090dc904f0bdf9d11242f7d122
:10242000640df5d00020c14349054908a6e000200d
:102430006146f0bdf0b50127ff070e005e403e404b
:10244000b446be0a4c18dd18f442d9d2f542e4d2a3
:10245000640decd06d0dead06419c9023943460d04
:10246000c0023143db023b43db0a10b48e4685b227
:1024700097b26f43140c6c433e0ca419260c240431
:10248000bfb227439cb26c43a419190c6943250cb5
:10249000a4b249190d04090c6419000c95b2454306
:1024a0003e0c76193743bfb2360c150c4543ad19b7
:1024b000a6b2240cad192e0437432e0c36199db24a
:1024c0004543ad19acb22e0c89191d0c45436d184e
:1024d0002e04290c3443704680b295b245433e0c1d
:1024e00076193743bfb2360c150c4543ad19a6b269
:1024f000ad19240c2e0437432e0c36199db24543da
:10250000ad19acb22e0c89191d0c45436d182e0463
:102510003443290c75462d0c90b268433e0c80194b
:102520000604bfb23e43070ca0b23f18120c6a4328
:10253000d019020c80b2240ca4189ab26a43121962
:1025400014042043120c89181b0c6b43c91810bccf
:1025500001273d05294203d1b61940414941013cbb
:10256000ff077d0d013d641b0bdb6d00ac4209dafa
:10257000240500254208be41684161416646314359
:06258000f0bd54e74ee738
:020000040000fa
:0225860070479c
:020000040000fa
:10258800f0b587b0039003a801f09cfc002802da9c
:10259800002007b0f0bd039b1b095d1e202d0ad942
:1025a80040f2ff12023b934224d84d4adb089b18a5
:1025b800043b1d7801352a000120002102f0eef8c5
:1025c800002443428c4100930194464c00982268b1
:1025d80063681040020001990b401a43f2bb039b49
:1025e80005a81033059302f0f0f850b90c223e4bc1
:1025f8001a60cee73a4adb099b18043b1d7811356f
:10260800d9e73a490c68a04206d0059b0400103b64
:1026180005930123103483600125059be2180a60a5
:102628002b43083a083c28c26360002cb0d0200035
:1026380001f090fe58b123686168ab43e31a5a6809
:10264800aa4352185a606168a94362501c002000ce
:10265800039901f0d4ff200008309ae7204a244962
:102668003c3290bb584203404b43db0ed65c2036cd
:10267800300002f045f8731cdb001a4ae458083ba6
:102688009b189c42a1d0272e25dd0235ae4201dce5
:102698003f2e20d101226368039f9343dd1b28004e
:1026a800009301f009fd864215d1e268a168e3199b
:1026b800da60996093609a68d360012217431f60bb
:1026c8005d60009be5506760c1e7434203404b43b0
:1026d800db0ed65ccce73100200001f08bfab6e7c0
:1026e800fc390000100400207807002008040020ae
:0426f80029e66b075d
:020000040000fa
:1026fc00f0b587b00c000668476846f26662c6f211
:10270c0066624af26623c4f272033000390002f0aa
:10271c0079f802000b0000900191fff785fe029002
:10272c00039143f6e342c4f2731242f24303cbf635
:10273c00a36300980199fff777fe4bf24e12c9f68e
:10274c00b4524df20043c3f6fe6302f05bf8049002
:10275c00059144f27562c2f265424ef2bd23c3f696
:10276c00336302980399fff75ffe02000b00049895
:10277c000599fff786fc02000b002068616802f0e7
:10278c0041f804000d0000220023c4f210033000b5
:10279c003900fdf7bdfc0490059122002b002000b0
:1027ac002900fff741fe4cf6cd42ccf6cc424cf65c
:1027bc00cc43c4f22a03fff737fe22002b00fff7ad
:1027cc0060fc06000f004ef67912c3f226124af690
:1027dc000843c3f65c7300980199fff725fe0022ad
:1027ec000023c3f6f073fff74cfc04000d0044f219
:1027fc00e562cdf2d31249f65803cbf6f163029899
:10280c000399fff711fe02000b0020002900fff7cf
:10281c0038fc4ef2b402caf2f8424ef27433c3f6ec
:10282c003053fff701fe02000b003000390000f0be
:10283c0021fb049a059bfff724fc00220023c3f61e
:10284c00d073fdf765fc46f26662c6f2666241f231
:0e285c006623c4f2710301f0d5ff07b0f0bd92
:020000040000fa
:10286a00f0b58fb00d934b680c9006938b680d00f2
:10287a000793cb6816000393069b0f68002b42db75
:10288a0002239f4310233b400a93079b04930a9b0e
:10289a003bb1726833681343079a13b11300023bc2
:1028aa00049308233b400b935a1e9341049ad31a6c
:1028ba0004933368039a0893736809932b695c1e1f
:1028ca0000231355069b0593012c1fdc0a9b002b42
:1028da0051d10b9b1bb12023039a013c13552b6941
:1028ea0000975a1e039b121b19190c98079b00f09c
:1028fa0066fe0c9b5b68db0503d56b68984200dac1
:10290a0018000fb0f0bd01230693bbe7089b099a94
:10291a00134363b9059b002b09dc069a049b9b1a97
:10292a00059a9b18002bd1dd02231f42ced00f221d
:10293a00089b013c134018005730092b01dc303347
:10294a0018000d9b413b192b06d820230343613bfa
:10295a00192b01d801f0bbff039b1855059b013bbe
:10296a000593099b1a07089b1b091a43099b08929e
:10297a001b090993a8e70cce1343002ba9d0039b8c
:10298a000d9a1b19013b1a703023039a023c135506
:02299a009fe7b5
:020000040000fa
:10299c0041f20003c4f2000302221a7641f2004312
:1029ac00c4f2000300221a7441f60043c4f200037f
:1029bc000632ff32c0f204025a6241f60042c4f2ff
:1029cc000002082153681942fcd141f60043c4f2bd
:1029dc00000380224121995041f60042c4f20002ca
:1029ec008020013913581942fcd041f20003c4f283
:1029fc00000320225a631f321a6341f20002c4f210
:102a0c0000023c200421135c0b42fcd141f2000378
:102a1c00c4f200032c220221995441f20002c4f2a8
:102a2c0000023c20135c0b42fcd141f20002c4f2c8
:102a3c00000240200321135c0b40032bfbd141f619
:102a4c000043c4f2000340f20712c0f202021a6201
:102a5c0041f60042c4f20002042153681942fcd131
:102a6c0041f60043c4f200038c224021995041f6f8
:102a7c000042c4f200028c2013581942fcd041f6db
:102a8c000043c4f20003b0224021995041f60042a9
:102a9c00c4f20002b02013581942fcd041f6004396
:102aac00c4f20003b4224021995041f60042c4f212
:0c2abc000002b42013581942fcd07047ef
:020000040000fa
:102ac800f0b587b0002000f039ff40f68c01c2f263
:102ad80000010322402001f035fa43f21820c0f229
:102ae8000000603001f03cfd40f68407c2f20007a8
:102af800fd1c40f28e76c2f2000601e0002333701e
:102b080040f29474c2f200040223009323000122cd
:102b18002900402001f0b6f96378db09002bedd0dd
:102b28003378002bead10a2001f064fe2300022446
:102b3800009401222900402001f0a4f901f088fb4b
:102b480040f28c73c2f20003391d00940122402028
:102b580001f098f901f096fb40f29073c2f200037d
:102b6800791d00940122402001f08cf901f0a4fbaa
:102b780040f28873c2f20003b91c0094012240207d
:102b880001f080f901f018f901f0f2f840f28473cd
:102b9800c2f20003791c00940122402001f072f96e
:102ba80001f091fd01f033fc0a2001f023fe02a898
:102bb800fff74dfb0598801001f093fd00220023dc
:102bc800c3f6a073fff732fc01f090fb04b2029841
:102bd800039901f08bfb01b243f21820c0f2000008
:0a2be8007830220001f042fd88e77a
:020000040000fa
:022bf200fee7fc
:020000040000fa
:102bf400f0b5d6464f464646c0b5bff35f8f62b6c2
:102c04004ef20013cef2000340f204315a58ff276b
:102c1400ba43c02632435a5010221a6004315a581b
:102c24002c4d2a404cf2000422435a5040f2002218
:102c34001a6040f2183842469a5827498c460a408e
:102c4400c021090489460a4341465a508022d204cd
:102c54001a605a581202120ac9068a460a434146a1
:102c64005a50802212051a6040f21c329958b94316
:102c740031439950802149051960995829402143cd
:102c840099508021890519609958884661464046c3
:102c940001404846084398508020c0051860985861
:102ca4000002000a51460843985052071a6040f245
:102cb40020301958b9433143195001225a601a5827
:102cc4002a4022431a5002225a601cbc904699465c
:0c2cd400a246f0bdff00ffffffff00ff65
:020000040000fa
:102ce000f8b514001d008e1ef60086190f00b2689c
:102cf000f36820002900fff79dfb32687368fff737
:102d0000c6f9022f4ed002000b0020002900fff769
:102d100091fb3300083b1a685b68fff7b8f9032f93
:102d200040d022002b00fff785fb3300103b1a68d0
:102d30005b68fff7acf9042f34d002000b002000d1
:102d40002900fff777fb3300183b1a685b68fff731
:102d50009ef9052f26d002000b0020002900fff766
:102d600069fb3300203b1a685b68fff790f9062f78
:102d700018d002000b0020002900fff75bfb330096
:102d8000283b1a685b68fff782f9072f0ad0020018
:102d90000b00303e20002900fff74cfb32687368bf
:102da000fff775f902000b0020002900fff742fb36
:042db000f8bdc04664
:020000040000fa
:102db400f7b5002856d00838436801221e00964310
:102dc40085192a680400934200d0ffde22686b68ec
:102dd4001340012213420fd1200001f0bdfa002854
:102de40041d1280001f0fefa0028efd001226b68df
:102df4009343f618ed18e9e7012333436360300089
:102e04002b6001f05bf9019001f07cfc22686b6897
:102e1400134001221342dfd0174f019a38687968b2
:102e240001f0b2fc012318420dd1019a01200021c6
:102e340001f0b6fc0b0010b13a6802433a6013b1da
:102e44007b680b437b60019b0b4a0133db009b18bf
:102e54001a005b68083a66602e60e360a260d46082
:102e6400e3689c60f7bd012223689343e41a636816
:0c2e74009343f618b5e7c0461004002098
:020000040000fa
:102e8000f0b40125ed070c005c402c40a446ae0ace
:102e90004c18df18f4423dd2f74244d2640d4ad0b8
:102ea0007f0d3bd0e41bc9022943cf0adb022b4331
:102eb000db0a0600b61a9f4104d2013cb6197f41d5
:102ec000b6185f416812800d241836dd0018844260
:102ed00024d8e80c0021b6197f41b61a9f4103d3cc
:102ee00040414941f7d304e0b6185f410018494119
:102ef000f1d32405b6197f41b61a9f4105d3374354
:102f0000c20717430022012f50416141624611431d
:102f1000f0bc70470ad148b9f74207d20020c1433c
:102f2000490d0905f2e70ab9f74206d00020c1436e
:102f3000090dc904ece77f0df8d000206146e7e7f2
:020000040000fa
:102f400040f2fd724b005b0df0b55c1e944242d81e
:102f5000284a9e182ad4332e27dc274a9b182ed4c1
:102f6000120cc0f20f02da404ff6ff730700c0f2f6
:102f70000f039743f3403c000f00024019409f436a
:102f80000a433d007ab1002f0dda20235b42f1188d
:102f900029d480204003c840020080214903f14029
:102fa0000b00a4185d4120002900f0bd002000297d
:102fb00001db0021f9e70021cbf6f071f5e72022d3
:102fc0004ff6ff73921bc0f20f039340012252424f
:102fd000f2401a43c8e7002be7d10022c90fcb0704
:102fe00010001900e1e720218020891b4003884060
:0c2ff0000200d2e701fcffffe1fbffff45
:020000040000fa
:102ffc0030b405004d400124e407254042004b004d
:10300c00120e32d01b0e3cd0ff2a33d0ff2b3fd0f8
:10301c00d21800022043000a09022143090ac4b253
:10302c004c43000ac3b24b43000a4843210a5b18c5
:10303c00190a091801d44900013a080a7f3a2adb17
:10304c00fe2a0fd2d2051c43240601d001242143b1
:10305c00c9b280295041802901d140084000284341
:10306c0030bc7047ff20c005f9e71b0eff2b0ad0c0
:10307c002800f5e7400206d1ff2bf3d1490202d11b
:10308c00f0e7ff2af4d17f2000010c300005e7e7c0
:10309c004902f8d1e6e743020132e9d15b1202336f
:0630ac00e6d9d805e4e7b7
:020000040000fa
:1030b20010b588293ad014dc81294ad003dc802952
:1030c20047d0002010bd822910d08429f9d1196877
:1030d2002ab30a1d1a6000228b5e0360db1743606d
:1030e20010e0a0292ed00fdc9029ead1196807241c
:1030f2006ab30919a1430a0008321a600b684c68c6
:10310200036044600120dde7c02901d0f029d8d155
:103112001a68111d1960136803600023dfe70c1d94
:103122001c600b689bb203604260ebe7196822b136
:103132000a1d1a600023cb56cfe70c1d1c600b68da
:10314200dbb2f0e71a68111d19601368c5e7073191
:10315200d0e719681ab10a1d1a600b68bde70c1d89
:063162001c600b68dfe7b2
:020000040000fa
:10316800f0b54b6889b005930b6807009c46079338
:10317800cb680c008e6810685168cd0f0493002d41
:1031880041d00b000200002150429941059b002bc1
:1031980007db022263469343079315b9079b5a0737
:1031a80028d5731e07aa02920a22009301920b00e7
:1031b8000200200000f003f915b9079b5a071dd536
:1031c80001382d2305b9023b049a135423695a1e6a
:1031d800049b121a1918079b38000093330000f05b
:1031e800eff97b68db0503d56368984200da1800bd
:1031f80009b0f0bd1b07db0ff31ad3e71b07e5d5b2
:0e32080001382023e0e7059b002bc2dac6e761
:020000040000fa
:02321600fee7d1
:020000040000fa
:1032180025640000764f626a56616c203a200000ef
:103228003d3d25642020000074416d6256616c208c
:103238003a200000436f6e66696775726174696f42
:103248006e205265672e203a200000004d616e7591
:103258006661637475726572204944203a200000e3
:10326800446576696365204944203a2000000000df
:103278000d0a2053797374656d20496e697469610c
:103288006c697a6564200d00546f626a6563742006
:103298003d3d2025642c2054616d6269656e742063
:0832a8003d3d2025640d0a00e4
:020000040000fa
:1032b00040f60003c4f2002301221a60d202c4f2d5
:1032c0000022d369002bfcd140f60003c4f2002396
:1032d00040f200125a60d200c4f20022d369002bdf
:1032e000fcd140f60003c4f200239922da60833a4d
:1032f000c0f210021a6040f60002c4f20022d36944
:10330000002bfcd140f60003c4f2002310225a83a4
:10331000d201c4f20022d369002bfcd140f2f86341
:10332000c2f20003002221215a5401395a5440f6b6
:0c3330000003c4f2002383329a7570473a
:020000040000fa
:10333c0070b500283fd040f2c863c2f200031a7d7a
:10334c000023a2bb40f2c863c2f2000318605960ac
:10335c0001321a7540f60043c4f200231b7edb07d2
:10336c0018d531b3002340f60044c4f200240726dc
:10337c00012507e0c25c22850133227e2a420ad055
:10338c00994208d962683240012af3d15a00825a14
:10339c002285f1e7002340f2c862c2f2000293607a
:1033ac0040f60043c4f2002301229a750123180051
:0a33bc0070bd0b00efe70023f9e7f6
:020000040000fa
:1033c600f0b5050085b019000c9b100001931a6832
:1033d6002b696c68013bef681d00002c00da0124a4
:1033e60040f2000c664640f2020cfe540a9e01238f
:1033f600361b0296664616400b9ad2170392002d8c
:1034060003dcbbb1280005b0f0bd02000a433ab99f
:10341600002c05dc029a1219002af2dd002ef0d0eb
:103426000b9a039b00f06ffd013d130030327a5575
:10343600013ce4e71023019a12689a431300019aab
:043446001360dfe749
:020000040000fa
:10344a00f0b51600050002278369426987b0029326
:10345a00d31a03939b1904910596019302ac3a007f
:10346a002100286801f0a3f8019b984208d1ab68b3
:10347a00ea68ab619a18aa626b61300007b0f0bdc6
:10348a0000280cda102200236968ab620a43ab6198
:10349a006b616a60022f12d06368f61aede7019b2e
:1034aa001b1a01936368984202d9c01a0834013f73
:1034ba0023681b1823606368181a6060cfe71e0030
:0234ca00dbe73e
:020000040000fa
:1034cc00f8b5ce0086191d0033001400083b1a68ad
:1034dc005b680f0020002900fef7d3fd22002b00b3
:1034ec00fef7a2ff3300103b1a685b68fef7c9fdbc
:1034fc0002000b0020002900fef796ff032f17d0c7
:10350c003300183b1a685b68fef7bbfd02000b002a
:10351c0020002900fef788ff052f09d13300203b3e
:10352c001a685b68fef7adfd22002b00fef77cffee
:10353c00ff00f61b32687368fef7a3fdf8bdc046aa
:020000040000fa
:10354c00f8b5846a05000f00160054b1ab6a6a69bd
:10355c009b1ab3420cd2320039002800fff76fffe0
:10356c0005e001f000f903002000002beed0f8bdbf
:10357c00002ef0d02b0034331b785bb2002b1bdbfe
:10358c003400dbb2621eb95c994212d122003900c0
:10359c002800fff754ffa042e9d33f19341b220047
:1035ac003900686901f040f96b6930001c196c61d5
:0c35bc00dde71400002ae5d13400f0e740
:020000040000fa
:1035c800f0b51d00012389b014000e9a06001a40b8
:1035d800039102920ab9a5420ad822000399300041
:1035e80000f0fdfda54203d82500280009b0f0bd74
:1035f8002f1b01973a00102f00d91022202104a870
:1036080001f037f9019b0f2b0ed80f2204a93a407d
:10361800300000f0e4fd029b002be6d12200039964
:10362800300000f0dcfde0e7102204a9300000f0d3
:0a363800d6fd019b103b0193e4e76f
:020000040000fa
:02364200fee7a1
:020000040000fa
:1036440010b540f2f863c2f2000300229a61da6115
:1036540040f60003c4f2002383321a765a68144ced
:1036640022405a6040f60002c4f20022d369002bc3
:10367400fcd1a9b140f2f863c2f200032022032472
:103684009c544000084340f60003c4f200235862ef
:1036940040f60002c4f20022d369002bfcd110bd15
:1036a40040f2f863c2f20003202204249c54e8e7a9
:0436b400fffffbff1a
:020000040000fa
:1036b80042f60003c4f200031a7801210a431a7083
:1036c80042f60002c4f20002012153681942fcd1fb
:1036d80042f60001c4f200019023cb618e3b0b61de
:1036e80040f21863c2f2000310221a720120187502
:1036f8001f301a540c301a540c301a540c301a5407
:103708000c301a540c301a540b78022213430b70e5
:1037180042f60002c4f20002022153681942fcd1a9
:023728007047e8
:020000040000fa
:02372a007047e6
:020000040000fa
:10372c0040f60043c4f2002340f20412c4f210022b
:10373c001a60164a9a81c02292025a6040f60042e0
:10374c00c4f20022d369002bfcd140f60043c4f232
:10375c0000231a6802210a431a6040f60042c4f2a0
:10376c000022d369002bfcd140f2c863c2f20003e3
:10377c0000229a61da611a622c215a545a621a6038
:10378c005a609a601a75da60da85704741f1ffff6a
:020000040000fa
:10379c000021f0b5174b184a934208d340f20b0c9a
:1037ac000027164a1368516823b919b9f0bd19706e
:1037bc000133f1e7100095680c305c18b5b1654623
:1037cc00ed1a5219a3420ad10b00032213405a1ec0
:1037dc00934189085918890040180200e2e75d1ce2
:1037ec00ae5c1e702b00ede71f700133a342fbd1c2
:1037fc00f3e7c0460000002000000020f81700008e
:020000040000fa
:10380c00f0b50b680c008f68cd68496887b006006e
:10381c000593002902db02218b43059305a953680c
:10382c00126802910821009701912000fff7c5fd55
:10383c00059bdb0602d5302301382b54059b1b0757
:10384c0002d5202301382b54236929185a1e059bb5
:10385c00121a009330003b00fff7b0fe7368db05d3
:0e386c0003d56368984200da180007b0f0bd7b
:020000040000fa
:10387a0010b584291fd007dc812915d0822922d0ce
:10388a00802911d0002010bd90291cd008dc88297d
:10389a00f8d119680c1d1c600b6803601a7010e0df
:1038aa00a02901d0c029edd119680c1d1c600b6834
:1038ba0003601a6005e019680c1d1c600b68036040
:1038ca001a800120dfe719680c1d1c600b68036071
:0838da001a60d2175a60f4e7ee
:020000040000fa
:1038e2007fb51600c2680d0013000091591e8b416e
:1038f200f31a019383680400039269460222006866
:10390200029300f044fe002808dc1822082302403b
:10391200534062681343636006000fe0019b8342d9
:10392200fad2a268c01ae3681018e26320642bb1cd
:10393200531ce3631378ad19013d2b70300004b0c2
:0239420070bd56
:020000040000fa
:1039440010b544f20003c4f2001304225a6000f0dc
:103954000ffc40f29c73c2f200031b68186800213c
:1039640000f05dff40f68003c2f200031b68186894
:10397400002100f054ff00f0eff8fff70df800f01d
:103984001bfffff7d1fefff791fcfef7fafdfff7ef
:0c39940091fefdf74cfcfff72bf910bd75
:020000040000fa
:1039a00000230e4a10b513600d4a0e4c13600e4ae8
:1039b00013600e4a13600e4a13600e4a536213617d
:1039c0000133936000f051ff00f03ffa0a4b9c4234
:1039d00000d310bd08cc9847f8e7c0467c0700200c
:1039e00084060020000100008006002078060020e8
:0c39f0007c060020880600200401000076
:020000040000fa
:1039fc002021222324242525262627272828282869
:103a0c00292929292a2a2a2a2b2b2b2b2c2c2c2c02
:103a1c002c2c2c2c2d2d2d2d2d2d2d2d2e2e2e2eca
:103a2c002e2e2e2e2f2f2f2f2f2f2f2f0001170240
:103a3c001d1813031e1b190b1408040d1f161c1242
:0c3a4c001a0a070c1511090610050f0ed0
:020000040000fa
:103a580070b504000d0008b9002070bd43689b06ce
:103a680007d543698269934215d80023a362a361ed
:103a78006361e16b236c994204d2c91a0122206860
:103a880000f050ff00232364e363002de4d0206896
:103a980000f040ffe1e70022c36a1100984763691c
:0a3aa800002be2d101204042d7e7d5
:020000040000fa
:103ab200f0b50b680c008f68cd68496887b00600c6
:103ac2000593002902db02218b43059305a9536864
:103ad200126802910a21009701912000fff772fcff
:103ae200236929185a1e059b121a009330003b00c5
:103af200fff769fd7368db0503d56368984200da56
:063b0200180007b0f0bd41
:020000040000fa
:103b080010b543f22b73c0f20003984743f22b73ae
:103b1800c0f20003984700f0edfe40f20003c0f247
:103b280000037f2293434ef60052cef200029360c8
:103b380043f6a113c0f20003984743f22b73c0f277
:103b48000003984743f22b73c0f200039847fef72f
:043b5800b7fffee7ce
:020000040000fa
:103b5c0043f20003c4f2000380221a60c0f6000294
:103b6c001a61472202219954463a46315a5401317e
:103b7c005a5407315a5401315a5455324c399954cc
:103b8c000532013199542d3100225a5434201954e4
:103b9c0005311238585403315a5402315a54704773
:020000040000fa
:103bac0070b540f2ff740b0d2340a34212d08bb1c1
:103bbc00d31840f2fe7293420ddc002b14dd4ff64d
:103bcc00ff72c8f20f0211401b05194304000d00cf
:103bdc002000290070bd0023c90fc907c7f6f07378
:103bec000b4300241d00f3e7c90f0024cd07efe7ba
:020000040000fa
:103bfc0070b5c668856804000a00ae4211d1012078
:103c0c00002100f0c9fdc043c943431c03d00b4b3a
:103c1c001a68104018604b1c03d0084a53681940ae
:103c2c005160012319006268b56011439a43ee603c
:103c3c006160a41822681343236070bd1004002037
:020000040000fa
:103c4c0070b5040016001d00022a1ad043689b06aa
:103c5c0017d439b90db940f2004528000830fef7e9
:103c6c008dfc010020236268a16013436360230074
:103c7c00e5603433ff22012e00d10a221a70024b68
:0c3c8c00e362002070bdc0464d35000012
:020000040000fa
:103c980037b56b46dd1d836a0400297063b163691b
:103ca800a26a93420fd3e36a0122290020009847b1
:103cb800012805d1287805e000f057fd0028eed04e
:103cc800012040423ebd220034321278287852b298
:0c3cd8009042e8d05a1c62611870f3e7bb
:020000040000fa
:103ce400f0b50f00150087b0039007220e4904a811
:103cf4001c0000f09dfdbb687e6802933f6805b917
:103d040004ad1cb9280000f0d7fd0400002e02db2e
:103d1400b44200d934000097029b22002900039882
:0c3d2400fff750fc07b0f0bd1449000090
:020000040000fa
:103d300070b504000d00e8b140f2c863c2f20003a0
:103d40002c229b5c002003b170bd00f030fa40f2e1
:103d5000c863c2f200039c61dd6100221a622c215b
:103d600001205854da8540f60043c4f2002384321f
:083d70009a75e9e70020e7e77e
:020000040000fa
:103d780070b543f21824c0f200042000183000f097
:103d880075fc40f28675c2f200050023e85e8010db
:103d980000f022fcf4218905fff72cf900f010f956
:103da80000b2288080b200f03dfc0023e95e2000cc
:083db800103000f05bfc70bd4f
:020000040000fa
:103dc00010b540f28873c2f200031a7812025878d4
:103dd000104300b240f28673c2f20003188040f232
:103de0007074c2f2000400f080fc46f26662c6f213
:103df000666241f26623c4f27103fef748f900f0ef
:063e000079fa206010bdfc
:020000040000fa
:103e060030b401256d054c00e54215d85c00e5424d
:103e160012d80c001c436400044314430fd005d28f
:103e260082428b418041013030bc704790429941bb
:103e36008041013030bc7047002030bc7047012003
:043e460030bc7047d5
:020000040000fa
:023e4a007047bf
:020000040000fa
:103e4c0010b5054c227832b9044b13b1044800e08c
:103e5c0000bf0123237010bd4807002000000000a4
:103e6c0000000000034b10b51bb10349034800e0f0
:103e7c0000bf10bd000000004c0700200000000037
:020000040000fa
:103e8c0070b5050040f2f864c2f200042020245cf6
:103e9c00002004b170bd40f2f864c2f20004a580a9
:103eac00e360049b6361a16022610023a370237013
:103ebc002122a35400212800fff7befb0120e9e7d3
:020000040000fa
:103ecc000c4a036810b5546a0b4a591e121b9142d6
:103edc000ad92bb10c220120084b40421a6010bdac
:103eec00102202600020fae70f221733934303607d
:103efc00f8e7c04688060020efffff7f7807002018
:020000040000fa
:103f0c00002b11d1002a0fd1002900d1002802d09a
:103f1c000021c943081c07b4024802a140180290b2
:103f2c0003bdc046f909000003b4684601b5029808
:103f3c00fcf7ecff019b9e4602b00cbc7047c046e0
:020000040000fa
:103f4c0070b5050040f2f863c2f2000320201b5c40
:103f5c00002003b170bd40f2f863c2f200039d80f3
:103f6c000024dc605c6199601a619c701c702122d9
:0e3f7c009c5400212800fff75ffb0120eae7bc
:020000040000fa
:103f8a0030b401256d054c00e54215d85c00e542c8
:103f9a0012d80c001c436400044314430cd005d20d
:103faa00904299418041404230bc704782428b41e5
:0e3fba008041404230bc7047002030bc704750
:020000040000fa
:103fc8004200110e7f390fd40123db0749421f310c
:103fd8000cdd400003d2c0011843c8407047c0013f
:103fe8001843c8404042704700207047ff21090627
:0e3ff8008a4200d99843184000d4d84370473d
:020000040000fa
:10400600030010b51a78202a0dd0110009390429a9
:1040160009d900212b2a02d02d2a01d101310133e1
:1040260000200a2404e00133ece760430133801ae0
:0e4036001a78303a092af8d901b9404210bd73
:020000040000fa
:1040440030b401256d054c00e54215d85c00e5420d
:1040540012d80c001c436400044314430cd005d252
:1040640082428b418041404230bc7047904299412a
:0e4074008041404230bc7047002030bc704795
:020000040000fa
:02408200704785
:020000040000fa
:10408400f0b540f2ff740b0d234007000d0073b12f
:10409400a3420cd0084900248c46090cc8f20f0135
:1040a4000d40c3f6e0742c436344210000e0002378
:0c40b40038001360f0bdc04602fcffffa6
:020000040000fa
:1040c0000309013b1800202b08d940f2ff1293424c
:1040d00005d8094adb089b18043b1878704741f65d
:1040e00000423f209342f9d8034adb099b18043b66
:0c40f00018781030f2e7c046fc390000e0
:020000040000fa
:1040fc000b00496810b50200890603d4190000f0c2
:10410c000df910bd190034310978c0b249b28142a1
:10411c0007d059699c6aa14203d24c1c5c610a709d
:0c412c00efe711001800fff7b1fdeae713
:020000040000fa
:104138001c2101231b04984201d3000c10391b0acf
:10414800984201d3000a08391b09984201d3000993
:10415800043902a2105c40187047c04604030202ea
:0c41680001010101000000000000000047
:020000040000fa
:1041740040f20043c4f2000300221a819a7901211b
:104184000a439a719b7803221340022b0cd040f20d
:104194000043c4f20003013a9a705202c4f20002ce
:0a41a400012193790b42fcd0704713
:020000040000fa
:1041ae0040f60043c4f200235b8b5b0713d040f64e
:1041be000043c4f2002380221a76793a5a831b7e7a
:1041ce005b0708d540f60043c4f2002304211a8d84
:0841de001a7e0a42fbd1704772
:020000040000fa
:1041e600436870b50400d80510d52569954200d9f5
:1041f60015002a00606900f01afb226963695b19e1
:10420600551b0022636125611a7070bddb06fcd464
:08421600200000f015fbf8e7a1
:020000040000fa
:02421e007047e7
:020000040000fa
:10422000f0b5040000200b4e4200955d1db9094b0e
:10423000d2185078f0bd216801300f78c0b2af427b
:1042400004d1044b0131d218507821600a28ebd9ef
:08425000f0e7c046244700001e
:020000040000fa
:1042580070b540f29473c2f200031d782d025b78aa
:104268001d4343f21824c0f200042000243000f05b
:10427800fdf9280000f0d6f920001030290000f0e0
:04428800f5f970bd17
:020000040000fa
:10428c0070b540f28c73c2f200031d782d025b787e
:10429c001d4343f21824c0f2000420003c3000f00f
:1042ac00e3f9280000f0bcf920001030290000f0e0
:0442bc00dbf970bdfd
:020000040000fa
:1042c00070b540f29073c2f200031d782d025b7846
:1042d0001d4343f21824c0f200042000503000f0c7
:1042e000c9f9280000f0a2f920001030290000f0e0
:0442f000c1f970bde3
:020000040000fa
:1042f400f4464a1805d200f060f801d5c01740080a
:10430400604701235b05d34206d200f056f801d57d
:104314000120c0074042604701d10042f5d0d017c8
:044324004008704796
:020000040000fa
:1043280013b50b006a46d41d5a68c1b22170d20574
:1043380005d55a69c0b2541c5c61117016bd0122c2
:104348002100180000f07bfa08b12078f6e7012078
:044358004042f3e705
:020000040000fa
:10435c00f8b5050001262c68344201d000200ee08f
:10436c002000fff7a7fe070000f0c8f92868a0425c
:10437c00f1d1b043281a3900fff73afc0120f8bdff
:020000040000fa
:10438c0070b4012676054c005d00e6420cd8ee4276
:10439c000ad825430543154303d0994204d19042d2
:0e43ac0002d1012070bc7047002070bc704729
:020000040000fa
:1043ba004a0010d2520d03231b02ff33d21a0ad429
:1043ca0052421f3209d4400dc90208430123db07b8
:0e43da001843d040704700207047d01770473e
:020000040000fa
:1043e800f8b5050001276c683c4201d000200de0bb
:1043f8002000fff761fe060000f082f96b68a34217
:0e440800f1d128003100fff7f5fb0120f8bdcf
:020000040000fa
:1044160070b543f21824c0f20004201d00f027f9fd
:1044260040f28a75c2f20005288800f0fcf80023e5
:0c443600e95e2000103000f01af970bda3
:020000040000fa
:10444400074b0200196809b906491960186806493a
:1044540082188a4201d81a60704701204042fbe763
:0c4464008007002090080020900a002033
:020000040000fa
:1044700010b542f60003c4f2000302225a615b69e0
:1044800040f21863c2f20003da682ab140f21863fe
:0a449000c2f200031869904710bd46
:020000040000fa
:10449a00020000234832d356591e0b4313700423db
:1044aa00426813402bb1102313434360012040425a
:0a44ba0070470364c3631800fae7bb
:020000040000fa
:1044c40070b5140016000a004e430d00511e8a41b7
:1044d4005242144001003200180000f0b2f9864242
:0a44e40001d0b0fbf5f4200070bd1c
:020000040000fa
:1044ee00002380290fdb812901dd83290bd10721d0
:1044fe00136807338b431900083111601a685b6823
:0a450e0002604360012318007047ab
:020000040000fa
:1045180010b544f20003c4f2001301221a7340f2ea
:104528002473c2f200031a682ab140f26c73c2f213
:0845380000031868904710bd54
:020000040000fa
:10454000edaf16204a62304029bd56b31544e9bf8d
:1045500077900d9cfe0b88c07e2615fa83807340f1
:084560000fce674b80d541c06e
:020000040000fa
:1045680010b5084c2368196800f06ef8012300287c
:1045780005db23680a20196800f0c0f9c30f584208
:0845880010bdc04680080020b0
:020000040000fa
:10459000f7b5002507000c002e000192019b9e42fa
:1045a00001db2800febd62682168380000f072f867
:0845b00001362d180834f1e773
:020000040000fa
:1045b800f7b5002507000c002e000192019b9e42d2
:1045c80001db2800febd62682168380000f06df844
:0845d80001362d180834f1e74b
:020000040000fa
:1045e000c20f12029d3201000cd001d5494202d403
:1045f000013a4900fcd5d205080a0906494100d311
:0646000001295041704742
:020000040000fa
:10460600012370b544689c43651a102d0ad94218d7
:1046160019432b4311605360083203514160100067
:06462600fef7c5fb70bdac
:020000040000fa
:10462c00f8b507001024012643f21825c0f2000546
:10463c00390021413140280000f016f8013c002cd3
:04464c00f6d1f8bdee
:020000040000fa
:1046500070b50e00050000f031f9330004000200cf
:1046600001212800fff72eff001b431e9841404206
:0246700070bd1b
:020000040000fa
:104674000fb407b5054b04aa1b6802ca1868019257
:1046840000f069f803b008bc04b0184780080020a3
:020000040000fa
:1046940010b503000c00002043b9180032b1012109
:0e46a4002000fff743fb0028f9d0012010bdd5
:020000040000fa
:1046b20070b50d001400012801d0200070bd21004a
:0c46c2002800fef73afe0028f9d0f6e7c9
:020000040000fa
:1046ce0040f28a72c2f2000240f28473c2f2000318
:0c46de00197809025b780b4313807047c9
:020000040000fa
:1046ea0044f24173c0f20003004206d5404200b5cd
:0c46fa00984708bc0122d2071143184762
:020000040000fa
:10470800054a0130c00083582bb90300083b9b18a9
:0c47180081184b60835070471004002093
:020000040000fa
:1047240068076c094c836a9074a07ac0008068881a
:0c47340000846c820081286e696c2900f2
:020000040000fa
:1047400040f21d42010007d002d4013a0018fcd506
:0a4750001205c30a400599187047ce
:020000040000fa
:10475a0013b50400019201aafcf767fd6368db0642
:08476a0001d50120404216bdfb
:020000040000fa
:1047720010b50400fff790fe28b9a368e268a361b0
:0847820063619b18a36210bde6
:020000040000fa
:10478c00d0400b1cd1409c46203ad3401843524297
:10479c0063469340184370479140031c90409c46dd
:1047ac00203a9340194352426346d3401943704711
:020000040000fa
:1047bc0044f20003c4f2001340f202125a60023aaf
:0647cc00ff3a1a7270476b
:020000040000fa
:1047d200006810b5002801da002010bdfff731fe95
:0647e200431cfad1f8e7c8
:020000040000fa
:1047e80010b500f08ff8024b1860586010bdc04635
:0447f8006407002032
:020000040000fa
:1047fc0010b5034b1b68196800f07ef810bdc0465d
:04480c008008002000
:020000040000fa
:10481000f0b40125ed076b4042f29504c0f20004ac
:0248200020472f
:020000040000fa
:104822004a424a4110b5520040f20043fff70dfae6
:0248320010bdb7
:020000040000fa
:10483400002310b59a4200d110bdcc5cc45401339e
:02484400f8e793
:020000040000fa
:10484600c36a10b50bb1984710bd0068fff72eff7d
:02485600fae77f
:020000040000fa
:1048580003000a7818001a7001310133002af8d1d0
:02486800704797
:020000040000fa
:10486a0010b5fff7bcfffff707fcfff705fc10bd0b
:020000040000fa
:10487a0003001218934200d1704719700133f9e707
:020000040000fa
:10488a00494e4600696e66004e414e006e616e00ea
:10489a00494e4600696e66004e414e006e616e00da
:020000040000fa
:1048ac0010b5fdf7c1fd029a039bfdf7eafb10bda5
:020000040000fa
:0e48bc0003001a780ab9181a70470133f9e799
:020000040000fa
:0e48ca000300413b192b01d8202318437047ef
:020000040000fa
:0e48d8000300613b192b01d85f231840704785
:020000040000fa
:0c48e60010b50400fff7b5ff200010bd66
:020000040000fa
:0a48f20010b50068fff7dcfe10bdf2
:020000040000fa
:0848fc0010b5fef74dff10bde1
:020000040000fa
:0849040010b5fff7f9fb10bd2f
:020000040000fa
:08490c00004870470408002078
:020000040000fa
:07491400286e756c6c290090
:020000040000fa
:06491c000120404270473b
:020000040000fa
:0449220000207047ba
:020000040000fa
:044928007047c046ce
:020000040000fa
:04492c0000207047b0
:020000040000fa
:0200000400807a
:044000007f438fb0bb
:020000040000fa
:0200000400807a
:04400400bbfcffff03
:020000040000fa
:0200000400807a
:04c0040000ffffff3b
:020000040000fa
:0200000400807a
:04c04000ffffffff00
:020000040000fa
:0200000400807a
:04c04400fffffffffc
:020000040000fa
:0200000400807a
:04c04800fffffffff8
:020000040000fa
:0200000400807a
:04c04c00fffffffff4
:00000001FF
