:020000040000fa
:10000000f03f0020fd190000a31a00006b1c000047
:1000100000000000000000000000000000000000e0
:10002000000000000000000000000000a716000013
:100030000000000000000000a7160000a716000046
:10004000a7160000a7160000a7160000a7160000bc
:10005000a7160000a7160000a7160000a7160000ac
:10006000a7160000a7160000a7160000a71600009c
:10007000a7160000a7160000a7160000a71600008c
:10008000a7160000a7160000a7160000a71600007c
:10009000a7160000a7160000a7160000a71600006c
:1000a000a7160000a7160000510700005107000026
:1000b0005107000051070000a7160000a716000016
:1000c000a7160000a7160000a7160000a71600003c
:1000d000a7160000a7160000a7160000a71600002c
:1000e000a7160000a7160000a7160000a71600001c
:0400f000a71600004f
:020000040000fa
:1000f400f8b5c046f8bc08bc9e467047911c000089
:10010400f8b5c046f8bc08bc9e4670476d1c00009c
:020000040000fa
:080114000800000001000000da
:020000040000fa
:10011c00f0b585b000930393009b02900c00160081
:10012c00150001900f00002b00d0c9e08a424ad97b
:10013c00100001f0affe48b12023019f1b1adf40d5
:10014c00019b84408340854027430193aab22b0c2a
:10015c00b7fbf3f1160094461a004a434e43bf1afc
:10016c00019a3f04140c27430a00be4207d97f1999
:10017c00013abd4203d8be4201d98a1e7f19be1b6b
:10018c00b6fbf3f14b436446f61a6b464c439b8823
:10019c0036041e430f00b44207d97619013fb5420d
:1001ac0003d8b44201d98f1e76191204341b3a437a
:1001bc000a9b23b1c4401c6000230a994b601000b9
:1001cc00009905b0f0bd02b9ffde100001f062fe2f
:1001dc00b8bb0123a41b00932b0cb4fbf3f21f0040
:1001ec0011005743aeb27143e41b019f24043f0c32
:1001fc003c439446a1420ad9012764197f42bc446e
:10020c00a54204d8a14202d9023a94466419641a50
:10021c00b4fbf3f77b43e41a6b467e439b882404c0
:10022c001c433900a64207d964190139a54203d8e9
:10023c00a64201d9b91e641963461a04a41b0a43c9
:10024c00b6e7202223000199121ad3408440d140f2
:10025c00019a8540824021438c46290cb3fbf1f472
:10026c0001920a00624326009b1a6246afb27e439b
:10027c00120c1b04134322009e4207d95b19013a4e
:10028c009d4203d89e4201d9a21e5b199b1bb3fb56
:10029c00f1f671435b1a614677438cb21b041c4325
:1002ac003100a74207d964190139a54203d8a742e6
:1002bc0001d9b11e641912040a43e41b00928be7a6
:1002cc00009b8b420ad90a9b002b00d1abe0029a0f
:1002dc0059601a60002300931a0070e7039801f02c
:1002ec00d9fdd8b9039ba34203d3029b02009e42c3
:1002fc000ad8029b01229e1b039b0196e41a029bc7
:10030c00b342ad416d42671b0a9b0093002b00d199
:10031c0055e7019982c30023009350e720231b1a51
:10032c0001933300019a039fd34087401f4323005e
:10033c000199d340029a8440ca4022439446029abf
:10034c00390c8240b3fbf1f402920a0086406243fe
:10035c00009626009b1a6246bdb26e43120c1b041b
:10036c00134322009e4207d9db19013a9f4203d85e
:10037c009e4201d9a21edb199e1bb6fbf1f463460b
:10038c0061436543761a360499b20e432300b54295
:10039c0007d9f619013bb74203d8b54201d9a31ec0
:1003ac00f61912041a436b461c88009b711b8c4671
:1003bc00190c230096b2150c6c4373434d437143d7
:1003cc001e0c091971188c4202d9802464022d1953
:1003dc000c0c9bb209046519c918ac4503d30bd19d
:1003ec00029b8b4208d2009b013ace1ab142894142
:1003fc004942cf193100ed1b0a9b0093002b00d111
:10040c00dde6029b019c591a63465d1b029b8b42e5
:10041c009b415b42ed1a2b00c140a340c5401943e0
:0a042c000a9b22c377e70a9b55e7fd
:020000040000fa
:0204360070470d
:020000040000fa
:100438000023f0b506001500afb0059101930599aa
:100448000b78002b00d10ce101235b420a930eab21
:1004580000240c93802309940b940d930b5d0bb12e
:10046800252b29d134b12200300001f089fd059bec
:100478001b190593059b1a78252a00d0e6e040f25f
:10048800020c10210827013302930593059803787d
:100498002b2b1bd025d8202b1bd0232b1dd02a2b50
:1004a8002ad001f09efc0b90059b1a78303a092a55
:1004b80033d801330593f7e70134cfe70122099bcd
:1004c80080180393134309930590dfe70423099adf
:1004d8000ee0099b03933b430be0099b03930b43fb
:1004e80007e02d2bead0302bd9d16246099b039324
:1004f800134309930130e7e72b6801301a1d1b6885
:1005080005902a600b93002b07da099a5b42039245
:10051800012203990b934a400992099bda0702d5f5
:10052800022293430993059b1a782e2a0ed10022a2
:10053800581c0a9205905a782a2a28d10233059322
:100548002b681a1d1b682a6003930a9305a801f0fb
:10055800fbfc059b0700187801f033ff692800d1e0
:1005680082e035dc632800d1d2e01bdc252800d1ed
:10057800dbe0612859d0252306aa1370029b059356
:10058800002309930b93013b0a930233aee001f079
:1005980028fc0a90059b1a78303a092ad6d80133e4
:1005a8000593f7e764285fd06728e4dc2a00390060
:1005b80006a801f061fd002800d1a5e0059b09a966
:1005c8005a1c05921b7806aa300001f020ff3ce077
:1005d800702800d17ae016dc6e2800d18de06f28f3
:1005e800c9d12b000022390006a800f07efd0028a2
:1005f80000d189e0059b06aa013309a930000593bb
:1006080001f016f821e075283fd078284dd07328de
:10061800b1d1802f00d077e0059b2a68013305937c
:10062800131d2b601268002360e02a00390006a819
:1006380001f022fd002867d0059b09a95a1c0592e4
:100648001b7806aa300001f0e2fe2418019b1c1951
:10065800a34200dc71e04f22394b1a6001235b4250
:10066800019301982fb0f0bd2b000122390006a894
:1006780000f03bfd002847d0059b06aa013309a9d5
:100688003000059300f08cfddfe72b0000223900d5
:1006980006a800f02afdb8b3059b06aa013309a9ec
:1006a8003000059301f051f9cfe72b000022390003
:1006b80006a800f01afd38b3059b5a1c05921b7852
:1006c80006aa09a9300000f02ffbbee72b00002284
:1006d800f02106a800f009fdb0b1059b079a013387
:1006e8000593069b134333b9164a163209a93000fd
:1006f80001f024faa9e77823e2e7019b39001a19e7
:1007080006a82b0001f002f8059b013305939de72d
:10071800802ff9d1059b013305932b681a1d1b689f
:100728002a6006aa13700123e0e7802fecd1059b0d
:1007380006aa013305931070f5e701947fe6c046d9
:08074800c00600208e22000013
:020000040000fa
:1007500010b540f60003c4f200239b7d1bb340f6a6
:100760000003c4f200235b8b9b071dd540f2686336
:10077000c2f200032022ff2199540132fd3999541d
:1007800040f26863c2f2000320229b5c5bb201333b
:1007900000d1e1e040f26863c2f2000320229b5cda
:1007a000062b00d103e110bd40f60003c4f2002384
:1007b0005b8bdb070ad540f26863c2f2000320229c
:1007c000ff2199540132fd399954d9e740f60003cd
:1007d000c4f200235b8b5b070ad540f26863c2f268
:1007e00000032022ff2199540132fe399954c7e7b2
:1007f00040f26863c2f2000320229b5c5bb2032bd1
:1008000072d0042b19d0022bbad140f26863c2f225
:1008100000031b6943b140f26863c2f20003988889
:10082000002100f097feabe740f26863c2f20003dc
:100830009888012100f08efea2e740f26863c2f2c0
:1008400000039a691b699a4215d040f26863c2f2ac
:10085000000399688c5c40f60001c4f20021282056
:100860000c5401329a6140f60002c4f20022d369ae
:10087000002bfcd184e740f26863c2f200035b699d
:10088000d3b140f26863c2f200039b885b0001228f
:100890001343d202c4f20022536240f60002c4f2b3
:1008a0000022d369002bfcd140f26863c2f200033e
:1008b00020220321995463e740f60003c4f2002389
:1008c0005968c02292020a435a6040f60002c4f2fc
:1008d0000022d369002bfcd140f26863c2f200030e
:1008e0002022062199544be740f26863c2f20003cc
:1008f0005a69013adb69934216d040f60002c4f20d
:100900000022d369002bfcd140f26863c2f20003dd
:10091000da6940f60001c4f200212820095cd86899
:1009200081540132da612be740f60003c4f2002360
:100930005968e022d2020a435a6040f60002c4f22b
:100940000022d369002bfcd140f26863c2f200039d
:10095000202206219954d0e740f26863c2f20003d6
:100960000021995440f60003c4f200235968c022c4
:1009700092020a435a6040f60002c4f20022d36990
:10098000002bfcd140f60003c4f2002383221a7628
:1009900040f26863c2f200035a6a002a00d102e7fb
:1009a00040f26863c2f20003986a9047fbe640f2a7
:1009b0006863c2f20003002220215a5401315a54c4
:1009c00040f60003c4f2002383321a7640f6000298
:1009d000c4f200220f31538b0b40102bfbd140f29d
:1009e0006863c2f200035a6a002a00d1dbe640f2d3
:0c09f0006863c2f20003986a9047d4e6e6
:020000040000fa
:1009fc00940600201c00000000000000c806002027
:100a0c000200000000000000bc07002002000000f3
:100a1c000100000040000000b807002003000000a7
:100a2c000100000002790000680600202c00000084
:100a3c0000000000b80600200400000000000000c8
:100a4c00180600205000000000000000cc0600201a
:100a5c006c00000001000000d8060020d406002025
:100a6c00d80600200000000025000000080000202f
:100a7c000004000000000000000000000000000066
:100a8c00000000000000000000000000000000005a
:100a9c00000000001b24000000000000000000000b
:100aac000000000000000000df1700000000000044
:100abc00000000000000000000000000000000002a
:100acc0000000000000000200804000000000000ee
:100adc009807002020000000010000000100000029
:100aec0003000000000000000000000000000000f7
:100afc000000000000000000b0060020b00600203e
:100b0c000800000000000000bc06002004000000eb
:100b1c0000000000c00600200400000000000000df
:100b2c00080400201002000000000000380700201c
:100b3c006000000001000000010000000300000044
:100b4c000000000000000000000000000000000099
:100b5c0000000000f9180000000000000000000078
:100b6c0000000000e723000033220000000000001a
:100b7c000000000000000000000000000000000069
:100b8c000000000000000000000000000000000059
:100b9c000000000000000000c4060020040000005b
:100bac000000000000000000000000004444444429
:020000040000fa
:100bbc00f0b587b0039003a801f0b2f8002802da70
:100bcc00002007b0f0bd039b1b095d1e202d0ad928
:100bdc0040f2ff12023b934224d84d4adb089b188b
:100bec00043b1d7801352a000120002101f08afb0d
:100bfc00002443428c4100930194464c0098226897
:100c0c0063681040020001990b401a43f2bb039b2e
:100c1c0005a81033059301f081fb50b90c223e4b13
:100c2c001a60cee73a4adb099b18043b1d78113554
:100c3c00d9e73a490c68a04206d0059b0400103b4a
:100c4c0005930123103483600125059be2180a608b
:100c5c002b43083a083c28c26360002cb0d020001b
:100c6c0001f0c2f958b123686168ab43e31a5a68c2
:100c7c00aa4352185a606168a94362501c002000b4
:100c8c00039901f09afa200008309ae7204a244987
:100c9c003c3290bb584203404b43db0ed65c2036b3
:100cac00300001f0fdfa731cdb001a4ae458083bd3
:100cbc009b189c42a1d0272e25dd0235ae4201dccb
:100ccc003f2e20d101226368039f9343dd1b280034
:100cdc00009301f0a3f8864215d1e268a168e319ec
:100cec00da60996093609a68d360012217431f60a1
:100cfc005d60009be5506760c1e7434203404b4396
:100d0c00db0ed65ccce73100200000f0edfeb6e740
:100d1c009c18000010040020c006002008040020cd
:040d2c0029e66b0742
:020000040000fa
:100d3000f0b58fb00d934b680c9006938b680d0047
:100d40000793cb6816000393069b0f68002b42dbca
:100d500002239f4310233b400a93079b04930a9b63
:100d60003bb1726833681343079a13b11300023b17
:100d7000049308233b400b935a1e9341049ad31ac1
:100d800004933368039a0893736809932b695c1e74
:100d900000231355069b0593012c1fdc0a9b002b97
:100da00051d10b9b1bb12023039a013c13552b6996
:100db00000975a1e039b121b19190c98079b00f0f1
:100dc00051fb0c9b5b68db0503d56b68984200da2e
:100dd00018000fb0f0bd01230693bbe7089b099aea
:100de000134363b9059b002b09dc069a049b9b1aed
:100df000059a9b18002bd1dd02231f42ced00f2273
:100e0000089b013c134018005730092b01dc30339c
:100e100018000d9b413b192b06d820230343613b4f
:100e2000192b01d801f0d8fa039b1855059b013bfb
:100e30000593099b1a07089b1b091a43099b0892f3
:100e40001b090993a8e70cce1343002ba9d0039be1
:100e50000d9a1b19013b1a703023039a023c13555b
:020e60009fe70a
:020000040000fa
:100e620041f20003c4f2000302221a7641f2004367
:100e7200c4f2000300221a7441f60043c4f20003d4
:100e82000632ff32c0f204025a6241f60042c4f254
:100e92000002082153681942fcd141f60043c4f212
:100ea200000380224121995041f60042c4f200021f
:100eb2008020013913581942fcd041f20003c4f2d8
:100ec200000320225a631f321a6341f20002c4f265
:100ed20000023c200421135c0b42fcd141f20003ce
:100ee200c4f200032c220221995441f20002c4f2fe
:100ef20000023c20135c0b42fcd141f20002c4f21e
:100f0200000240200321135c0b40032bfbd141f66e
:100f12000043c4f2000340f20712c0f202021a6256
:100f220041f60042c4f20002042153681942fcd186
:100f320041f60043c4f20003b0224021995041f629
:100f42000042c4f20002b02013581942fcd041f60c
:100f52000043c4f20003b4224021995041f60042fa
:0e0f6200c4f20002b42013581942fcd07047ac
:020000040000fa
:100f7000f7b5002856d00838436801221e00964372
:100f800085192a680400934200d0ffde22686b684e
:100f90001340012213420fd1200001f02bf800284a
:100fa00041d1280001f03ef80028efd001226b6803
:100fb0009343f618ed18e9e70123334363603000eb
:100fc0002b6000f031ff019001f070f922686b682e
:100fd000134001221342dfd0174f019a3868796815
:100fe00001f08af9012318420dd1019a0120002154
:100ff00001f08ef90b0010b13a6802433a6013b168
:101000007b680b437b60019b0b4a0133db009b1821
:101010001a005b68083a66602e60e360a260d460e4
:10102000e3689c60f7bd012223689343e41a636878
:0c1030009343f618b5e7c04610040020fa
:020000040000fa
:10103c0030b405004d400124e407254042004b002c
:10104c00120e32d01b0e3cd0ff2a33d0ff2b3fd0d8
:10105c00d21800022043000a09022143090ac4b233
:10106c004c43000ac3b24b43000a4843210a5b18a5
:10107c00190a091801d44900013a080a7f3a2adbf7
:10108c00fe2a0fd2d2051c43240601d00124214391
:10109c00c9b280295041802901d140084000284321
:1010ac0030bc7047ff20c005f9e71b0eff2b0ad0a0
:1010bc002800f5e7400206d1ff2bf3d1490202d1fb
:1010cc00f0e7ff2af4d17f2000010c300005e7e7a0
:1010dc004902f8d1e6e743020132e9d15b1202334f
:0610ec00e6d9d805e4e797
:020000040000fa
:1010f20010b588293ad014dc81294ad003dc802932
:1011020047d0002010bd822910d08429f9d1196856
:101112002ab30a1d1a6000228b5e0360db1743604c
:1011220010e0a0292ed00fdc9029ead119680724fb
:101132006ab30919a1430a0008321a600b684c68a5
:10114200036044600120dde7c02901d0f029d8d135
:101152001a68111d1960136803600023dfe70c1d74
:101162001c600b689bb203604260ebe7196822b116
:101172000a1d1a600023cb56cfe70c1d1c600b68ba
:10118200dbb2f0e71a68111d19601368c5e7073171
:10119200d0e719681ab10a1d1a600b68bde70c1d69
:0611a2001c600b68dfe792
:020000040000fa
:1011a800f0b54b6889b005930b6807009c46079318
:1011b800cb680c008e6810685168cd0f0493002d21
:1011c80041d00b000200002150429941059b002ba1
:1011d80007db022263469343079315b9079b5a0717
:1011e80028d5731e07aa02920a22009301920b00c7
:1011f8000200200000f071f815b9079b5a071dd5a9
:1012080001382d2305b9023b049a135423695a1e49
:10121800049b121a1918079b38000093330000f03a
:101228001df97b68db0503d56368984200da18006e
:1012380009b0f0bd1b07db0ff31ad3e71b07e5d591
:0e12480001382023e0e7059b002bc2dac6e741
:020000040000fa
:1012560040f60003c4f2002301221a60d202c4f24f
:101266000022d369002bfcd140f60003c4f2002310
:1012760040f200125a60d200c4f20022d369002b59
:10128600fcd140f60003c4f200239922da60833ac7
:10129600c0f210021a6040f60002c4f20022d369be
:1012a600002bfcd140f60003c4f2002310225a831f
:1012b600d201c4f20022d369002bfcd140f268634c
:1012c600c2f20003002221215a5401395a5440f631
:0c12d6000003c4f2002383329a757047b5
:020000040000fa
:1012e200f0b5050085b019000c9b100001931a6837
:1012f2002b696c68013bef681d00002c00da0124a9
:1013020040f2000c664640f2020cfe540a9e012393
:10131200361b0296664616400b9ad2170392002d90
:1013220003dcbbb1280005b0f0bd02000a433ab9a4
:10133200002c05dc029a1219002af2dd002ef0d0f0
:101342000b9a039b00f011fd013d130030327a55d8
:10135200013ce4e71023019a12689a431300019ab0
:041362001360dfe74e
:020000040000fa
:10136600f0b51600050002278369426987b002932b
:10137600d31a03939b1904910596019302ac3a0084
:101386002100286800f0f5fe019b984208d1ab6861
:10139600ea68ab619a18aa626b61300007b0f0bdcb
:1013a60000280cda102200236968ab620a43ab619d
:1013b6006b616a60022f12d06368f61aede7019b33
:1013c6001b1a01936368984202d9c01a0834013f78
:1013d60023681b1823606368181a6060cfe71e0035
:0213e600dbe743
:020000040000fa
:1013e800f8b5846a05000f00160054b1ab6a6a6943
:1013f8009b1ab3420cd2320039002800fff7afff26
:1014080005e000f069ff03002000002beed0f8bdd6
:10141800002ef0d02b0034331b785bb2002b1bdb83
:101428003400dbb2621eb95c994212d12200390045
:101438002800fff794ffa042e9d33f19341b22008c
:101448003900686900f094ff6b6930001c196c6101
:0c145800dde71400002ae5d13400f0e7c5
:020000040000fa
:10146400f0b51d00012389b014000e9a06001a403d
:10147400039102920ab9a5420ad8220003993000c6
:1014840000f080fda54203d82500280009b0f0bd76
:101494002f1b01973a00102f00d91022202104a8f5
:1014a40000f07aff019b0f2b0ed80f2204a93a40bb
:1014b400300000f067fd029b002be6d12200039967
:1014c400300000f05ffde0e7102204a9300000f0d6
:0a14d40059fd019b103b0193e4e772
:020000040000fa
:1014de00f0b585b00f246c4402232370002000f079
:1014ee005cfa42f20010c0f20000103000f015fe5f
:1014fe002378012b1ad00f236b441b780f266e44d2
:10150e00002740f2c865c2f2000540f2bc74c2f278
:10151e00000401343770022300932b0001222100b6
:10152e00402000f0dcfb00f022f9f3e70e336b44b1
:10153e0000221a7040f2b871c2f20001033240204c
:06154e0000f02dfcdae7bd
:020000040000fa
:1015540010b540f26863c2f2000300229a61da61b6
:1015640040f60003c4f2002383321a765a68144cfe
:1015740022405a6040f60002c4f20022d369002bd4
:10158400fcd1a9b140f26863c2f200032022032413
:101594009c544000084340f60003c4f20023586200
:1015a40040f60002c4f20022d369002bfcd110bd26
:1015b40040f26863c2f20003202204249c54e8e74a
:0415c400fffffbff2b
:020000040000fa
:1015c8000021f0b5174b184a934208d340f20b0c90
:1015d8000027164a1368516823b919b9f0bd197064
:1015e8000133f1e7100095680c305c18b5b1654619
:1015f800ed1a5219a3420ad10b00032213405a1eb6
:10160800934189085918890040180200e2e75d1cd7
:10161800ae5c1e702b00ede71f700133a342fbd1b7
:10162800f3e7c0460000002000000020fc0900008d
:020000040000fa
:10163800f0b50b680c008f68cd68496887b0060064
:101648000593002902db02218b43059305a9536802
:10165800126802910821009701912000fff73dfed2
:10166800059bdb0602d5302301382b54059b1b074d
:1016780002d5202301382b54236929185a1e059bab
:10168800121a009330003b00fff7e8fe7368db0591
:0e16980003d56368984200da180007b0f0bd71
:020000040000fa
:0216a600fee75d
:020000040000fa
:1016a800bff35f8f62b64ef20013cef2000340f232
:1016b80018315a5813481040c022120402435a5095
:1016c8008022d2041a605a581202120ac020000658
:1016d80002435a50802212051a6004315a58ff20da
:1016e80082433f3802435a50802252051a605a58a2
:1016f800054802404cf2000002435a5080229205ed
:0c1708001a607047ffff00ffff00ffffaa
:020000040000fa
:1017140010b584291fd007dc812915d0822922d055
:10172400802911d0002010bd90291cd008dc882904
:10173400f8d119680c1d1c600b6803601a7010e066
:10174400a02901d0c029edd119680c1d1c600b68bb
:1017540003601a6005e019680c1d1c600b680360c7
:101764001a800120dfe719680c1d1c600b680360f8
:081774001a60d2175a60f4e775
:020000040000fa
:10177c0010b540f2c863c2f20003187800025b781f
:10178c00184303b2002b11db800800f003fdf42199
:10179c008905fff74dfc00f023fd81b242f20010e9
:1017ac00c0f20000083000f03ffd10bd404280b296
:1017bc00800800f0effcf4218905fff739fc00f0fc
:1017cc000ffd81b242f20010c0f2000000f02cfdbf
:0217dc00ebe739
:020000040000fa
:1017de007fb51600c2680d0013000091591e8b4193
:1017ee00f31a01938368040003926946022200688b
:1017fe00029300f0a6fc002808dc18220823024001
:10180e00534062681343636006000fe0019b8342fe
:10181e00fad2a268c01ae3681018e26320642bb1f2
:10182e00531ce3631378ad19013d2b70300004b0e7
:02183e0070bd7b
:020000040000fa
:1018400000230e4a10b513600d4a0e4c13600e4a69
:1018500013600e4a13600e4a13600e4a53621361fe
:101860000133936000f0a2fd00f0f3fb0a4b9c42b1
:1018700000d310bd08cc9847f8e7c046bc0600204e
:101880002406002000010000200600201806002089
:0c1890001c0600202806002004010000b7
:020000040000fa
:10189c0020212223242425252626272728282828ea
:1018ac00292929292a2a2a2a2b2b2b2b2c2c2c2c84
:1018bc002c2c2c2c2d2d2d2d2d2d2d2d2e2e2e2e4c
:1018cc002e2e2e2e2f2f2f2f2f2f2f2f00011702c2
:1018dc001d1813031e1b190b1408040d1f161c12c4
:0c18ec001a0a070c1511090610050f0e52
:020000040000fa
:1018f80070b504000d0008b9002070bd43689b0650
:1019080007d543698269934215d80023a362a3616e
:101918006361e16b236c994204d2c91a01222068e1
:1019280000f07cfd00232364e363002de4d02068ed
:1019380000f06afde1e70022c36a11009847636975
:0a194800002be2d101204042d7e756
:020000040000fa
:10195200f0b50b680c008f68cd68496887b0060047
:101962000593002902db02218b43059305a95368e5
:10197200126802910a21009701912000fff7b0fc42
:10198200236929185a1e059b121a009330003b0046
:10199200fff767fd7368db0503d56368984200dad9
:0619a200180007b0f0bdc3
:020000040000fa
:1019a80010b544f20003c4f2001304225a6000f098
:1019b80091fa40f2d063c2f200031b681868002154
:1019c80000f0cdfc40f2b473c2f200031b68186843
:1019d800002100f0c4fc00f065f9fff73efa00f0c2
:1019e800b5fc00f05bf8fff732fcfef720fdfff7cf
:0419f80057fe10bdc9
:020000040000fa
:1019fc0010b541f64f73c0f20003984741f64f7390
:101a0c00c0f20003984700f0edfc40f20003c0f276
:101a1c0000037f2293434ef60052cef200029360f5
:101a2c0041f64103c0f20003984741f64f73c0f2f0
:101a3c000003984741f64f73c0f200039847fff735
:041a4c0048fdfee76c
:020000040000fa
:101a5000f8b505000c00002015b300f05cfad4b115
:101a6000002040f60042c4f200220421072605e0cf
:101a7000178d4300ef52013084420dd0137e0b428c
:101a8000fcd0538b334207d153683340012befd046
:101a9000138d2b54efe72000201a44426041c0b25e
:021aa000f8bd8f
:020000040000fa
:021aa200fee75d
:020000040000fa
:101aa40040f60043c4f2002340f20412c4f21002d0
:101ab4001a600e4a9a81c02292025a6040f600428d
:101ac400c4f20022d369002bfcd140f60043c4f2d7
:101ad40000231a6802210a431a6040f60042c4f245
:101ae4000022d369002bfcd17047c04641f1ffffaf
:020000040000fa
:101af40070b5c668856804000a00ae4211d10120a1
:101b0400002100f003fcc043c943431c03d00b4b2a
:101b14001a68104018604b1c03d0084a53681940d7
:101b24005160012319006268b56011439a43ee6065
:101b34006160a41822681343236070bd1004002060
:020000040000fa
:101b4400f0b50f00150087b0039007220e4904a8d2
:101b54001c0000f00ffcbb687e6802933f6805b967
:101b640004ad1cb9280000f027fc0400002e02dba1
:101b7400b44200d934000097029b22002900039844
:0c1b8400fff76efc07b0f0bd0824000065
:020000040000fa
:101b900070b5040016001d00022a1ad043689b0687
:101ba00017d439b90db940f2004528000830fff7c5
:101bb00005f8010020236268a160134363602300dd
:101bc000e5603433ff22012e00d10a221a70024b45
:0c1bd000e362002070bdc046e913000075
:020000040000fa
:101bdc0037b56b46dd1d836a0400297063b16369f8
:101bec00a26a93420fd3e36a01222900200098478e
:101bfc00012805d1287805e000f06cfb0028eed018
:101c0c00012040423ebd220034321278287852b274
:0c1c1c009042e8d05a1c62611870f3e797
:020000040000fa
:101c280070b5d0b1d9b1002540f60042c4f2002207
:101c38000124072605e06b00c35a13850135a94224
:101c480009d0137e2342fcd053683340012bf2d0d5
:101c5800435d1385f2e7012070bd0020fce70120f9
:021c6800fae799
:020000040000fa
:021c6a00fee793
:020000040000fa
:101c6c0010b5054c227832b9044b13b1044800e08e
:101c7c0000bf0123237010bd94060020000000005b
:101c8c0000000000034b10b51bb10349034800e0f2
:101c9c0000bf10bd000000009806002000000000ee
:020000040000fa
:101cac0043f20003c4f2000380221a601a61393a2d
:101cbc0002219954463a46315a5401315a5407314b
:101ccc005a5401315a5405315a54233900225a546a
:101cdc003420195405311238585403315a54704772
:020000040000fa
:101cec0070b5050040f26864c2f200042020245c48
:101cfc00002004b170bd40f26864c2f20004a580fb
:101d0c00e360049b6361a16022610023a3702370d4
:101d1c002122a35400212800fff716fc0120e9e73b
:020000040000fa
:101d2c000c4a036810b5546a0b4a591e121b914297
:101d3c000ad92bb10c220120084b40421a6010bd6d
:101d4c00102202600020fae70f221733934303603e
:101d5c00f8e7c04628060020efffff7fc0060020f2
:020000040000fa
:101d6c00002b11d1002a0fd1002900d1002802d05c
:101d7c000021c943081c07b4024802a14018029074
:101d8c0003bdc0469106000003b4684601b5029835
:101d9c00fef7bef9019b9e4602b00cbc7047c046d4
:020000040000fa
:101dac0070b5050040f26863c2f2000320201b5c92
:101dbc00002003b170bd40f26863c2f200039d8045
:101dcc000024dc605c6199601a619c701c7021229b
:0e1ddc009c5400212800fff7b7fb0120eae726
:020000040000fa
:101dea00030010b51a78202a0dd0110009390429e8
:101dfa0009d900212b2a02d02d2a01d10131013320
:101e0a0000200a2404e00133ece760430133801a1e
:0e1e1a001a78303a092af8d901b9404210bdb1
:020000040000fa
:101e28000309013b1800202b08d940f2ff12934206
:101e380005d8094adb089b18043b1878704741f617
:101e480000423f209342f9d8034adb099b18043b20
:0c1e580018781030f2e7c0469c1800001b
:020000040000fa
:101e64000b00496810b50200890603d4190000f07c
:101e7400a5f810bd190034310978c0b249b28142c5
:101e840007d059699c6aa14203d24c1c5c610a7058
:0c1e9400efe711001800fff79ffeeae7df
:020000040000fa
:101ea0001c2101231b04984201d3000c10391b0a8a
:101eb000984201d3000a08391b09984201d300094e
:101ec000043902a2105c40187047c04604030202a5
:0c1ed00001010101000000000000000002
:020000040000fa
:101edc0040f20043c4f2000300221a819a790121d6
:101eec000a439a719b7803221340022b0cd040f2c8
:101efc000043c4f20003013a9a705202c4f2000289
:0a1f0c00012193790b42fcd07047cd
:020000040000fa
:101f160040f60043c4f200235b8b5b0713d040f608
:101f26000043c4f2002380221a76793a5a831b7e34
:101f36005b0708d540f60043c4f2002304211a8d3e
:081f46001a7e0a42fbd170472c
:020000040000fa
:021f4e007047da
:020000040000fa
:101f5000f0b5040000200b4e4200955d1db9094b01
:101f6000d2185078f0bd216801300f78c0b2af426e
:101f700004d1044b0131d218507821600a28ebd9e2
:081f8000f0e7c0468e220000cc
:020000040000fa
:101f8800436870b50400d80510d52569954200d975
:101f980015002a00606900f0ebf9226963695b1992
:101fa800551b0022636125611a7070bddb06fcd4e5
:081fb800200000f0e6f9f8e753
:020000040000fa
:101fc00013b50b006a46d41d5a68c1b22170d20500
:101fd00005d55a69c0b2541c5c61117016bd01224e
:101fe0002100180000f0d1f908b12078f6e70120af
:041ff0004042f3e791
:020000040000fa
:101ff400f8b5050001262c68344201d000200ee01b
:102004002000fff70fff070000f04ef92868a042f8
:10201400f1d1b043281a3900fff76afd0120f8bd59
:020000040000fa
:10202400f8b5050001276c683c4201d000200de0a2
:102034002000fff7f7fe060000f036f96b68a342b4
:0e204400f1d128003100fff753fd0120f8bd57
:020000040000fa
:022052007047d5
:020000040000fa
:10205400074b0200196809b906491960186806494e
:1020640082188a4201d81a60704701204042fbe777
:0c207400c4060020c0070020c0090020a6
:020000040000fa
:10208000002380290fdb812901dd83290bd1072162
:10209000136807338b431900083111601a685b68b5
:0a20a000026043600123180070473e
:020000040000fa
:1020aa00020000234832d356591e0b4313700423ef
:1020ba00426813402bb1102313434360012040426e
:0a20ca0070470364c3631800fae7cf
:020000040000fa
:1020d40070b5140016000a004e430d00511e8a41cb
:1020e4005242144001003200180000f04cf98642bc
:0a20f40001d0b0fbf5f4200070bd30
:020000040000fa
:0220fe00704729
:020000040000fa
:1021000020202d2564000000202025640000000010
:102110000d0a2053797374656d20496e6974696185
:082120006c697a6564200d0072
:020000040000fa
:1021280010b5084c2368196800f06ef801230028e0
:1021380005db23680a20196800f05af9c30f5842d2
:0821480010bdc046b4070020e1
:020000040000fa
:10215000f7b5002507000c002e000192019b9e425e
:1021600001db2800febd62682168380000f072f8cb
:0821700001362d180834f1e7d7
:020000040000fa
:10217800f7b5002507000c002e000192019b9e4236
:1021880001db2800febd62682168380000f06df8a8
:0821980001362d180834f1e7af
:020000040000fa
:1021a000c20f12029d3201000cd001d5494202d467
:1021b000013a4900fcd5d205080a0906494100d375
:0621c000012950417047a7
:020000040000fa
:1021c600012370b544689c43651a102d0ad942183c
:1021d60019432b43116053600832035141601000cc
:0621e600fef7c3fe70bd10
:020000040000fa
:1021ec0041000dd2090e7f390ad449421f3105d462
:1021fc0000020122d2071043c8407047c81770472d
:04220c0000207047f7
:020000040000fa
:1022100070b50e00050000f0d1f833000400020094
:1022200001212800fff756ff001b431e9841404242
:0222300070bd7f
:020000040000fa
:022232007047f3
:020000040000fa
:102234000fb407b5054b04aa1b6802ca18680192bb
:1022440000f040f803b008bc04b01847b4070020fd
:020000040000fa
:1022540010b503000c00002043b9180032b101216d
:0e2264002000fff7f3fb0028f9d0012010bd89
:020000040000fa
:1022720070b50d001400012801d0200070bd2100ae
:0c2282002800fff7d0fc0028f9d0f6e798
:020000040000fa
:10228e0068076c094c836a9074a07ac000806888d5
:0c229e0000846c820081286e696c2900ad
:020000040000fa
:1022ac00054a0130c00083582bb90300083b9b182a
:0c22bc0081184b60835070471004002014
:020000040000fa
:1022c80013b50400019201aafef7b2f86368db06b1
:0822d80001d50120404216bdb2
:020000040000fa
:1022e00010b50400fff7e1fe28b9a368e268a36116
:0822f00063619b18a36210bd9d
:020000040000fa
:1022f800d0400b1cd1409c46203ad3401843524250
:1023080063469340184370479140031c90409c4695
:10231800203a9340194352426346d34019437047c9
:020000040000fa
:10232800006810b5002801da002010bdfff78efe06
:06233800431cfad1f8e796
:020000040000fa
:1023400010b500f05df8024b1860586010bdc04633
:04235000b0060020b3
:020000040000fa
:1023540044f20003c4f2001302225a60013a1a72d2
:022364007047c0
:020000040000fa
:102366004a424a4110b5520040f20043fff70dfcc5
:0223760010bd98
:020000040000fa
:10237800002310b59a4200d110bdcc5cc45401337f
:02238800f8e774
:020000040000fa
:10238a00c36a10b50bb1984710bd0068fff76cff20
:02239a00fae760
:020000040000fa
:10239c0003001218934200d1704719700133f9e70a
:020000040000fa
:1023ac0010b5fff7c7fffff7a4fefff7a2fe10bda5
:020000040000fa
:0e23bc0003001a780ab9181a70470133f9e7be
:020000040000fa
:0e23ca000300413b192b01d820231843704714
:020000040000fa
:0e23d8000300613b192b01d85f2318407047aa
:020000040000fa
:0a23e60010b50068fff742ff10bdbc
:020000040000fa
:0823f00010b5fff7e9f810bd7c
:020000040000fa
:0823f80010b5fff733fd10bd25
:020000040000fa
:08240000004870473807002076
:020000040000fa
:07240800286e756c6c2900c1
:020000040000fa
:062410000120404270476c
:020000040000fa
:0424160000207047eb
:020000040000fa
:04241a0000207047e7
:020000040000fa
:042420007047c046fb
:020000040000fa
:0424240000207047dd
:020000040000fa
:0200000400807a
:044000007f438fb0bb
:020000040000fa
:0200000400807a
:04400400bbfcffff03
:020000040000fa
:0200000400807a
:04c0040000ffffff3b
:020000040000fa
:0200000400807a
:04c04000ffffffff00
:020000040000fa
:0200000400807a
:04c04400fffffffffc
:020000040000fa
:0200000400807a
:04c04800fffffffff8
:020000040000fa
:0200000400807a
:04c04c00fffffffff4
:00000001FF
