:020000040000fa
:10000000f83f002097140000bb1100000f13000000
:1000100000000000000000000000000000000000e0
:100020000000000000000000000000005b0e000067
:1000300000000000000000005b0e00005b0e0000ee
:100040005b0e00005b0e00005b0e00005b0e00000c
:100050005b0e00005b0e00005b0e00005b0e0000fc
:100060005b0e00005b0e00005b0e00005b0e0000ec
:100070005b0e00005b0e00005b0e00005b0e0000dc
:100080005b0e00005b0e00005b0e00005b0e0000cc
:100090005b0e00005b0e00005b0e00005b0e0000bc
:1000a0005b0e00005b0e00005107000051070000ce
:1000b00051070000510700005b0e00005b0e0000be
:1000c0005b0e00005b0e00005b0e00005b0e00008c
:1000d0005b0e00005b0e00005b0e00005b0e00007c
:1000e0005b0e00005b0e00005b0e00005b0e00006c
:0400f0005b0e0000a3
:020000040000fa
:1000f400f8b5c046f8bc08bc9e4670475d150000c4
:10010400f8b5c046f8bc08bc9e46704739150000d7
:020000040000fa
:080114000800000001000000da
:020000040000fa
:10011c00f0b585b000930393009b02900c00160081
:10012c00150001900f00002b00d0c9e08a424ad97b
:10013c00100001f07bfa48b12023019f1b1adf400d
:10014c00019b84408340854027430193aab22b0c2a
:10015c00b7fbf3f1160094461a004a434e43bf1afc
:10016c00019a3f04140c27430a00be4207d97f1999
:10017c00013abd4203d8be4201d98a1e7f19be1b6b
:10018c00b6fbf3f14b436446f61a6b464c439b8823
:10019c0036041e430f00b44207d97619013fb5420d
:1001ac0003d8b44201d98f1e76191204341b3a437a
:1001bc000a9b23b1c4401c6000230a994b601000b9
:1001cc00009905b0f0bd02b9ffde100001f02efa67
:1001dc00b8bb0123a41b00932b0cb4fbf3f21f0040
:1001ec0011005743aeb27143e41b019f24043f0c32
:1001fc003c439446a1420ad9012764197f42bc446e
:10020c00a54204d8a14202d9023a94466419641a50
:10021c00b4fbf3f77b43e41a6b467e439b882404c0
:10022c001c433900a64207d964190139a54203d8e9
:10023c00a64201d9b91e641963461a04a41b0a43c9
:10024c00b6e7202223000199121ad3408440d140f2
:10025c00019a8540824021438c46290cb3fbf1f472
:10026c0001920a00624326009b1a6246afb27e439b
:10027c00120c1b04134322009e4207d95b19013a4e
:10028c009d4203d89e4201d9a21e5b199b1bb3fb56
:10029c00f1f671435b1a614677438cb21b041c4325
:1002ac003100a74207d964190139a54203d8a742e6
:1002bc0001d9b11e641912040a43e41b00928be7a6
:1002cc00009b8b420ad90a9b002b00d1abe0029a0f
:1002dc0059601a60002300931a0070e7039801f02c
:1002ec00a5f9d8b9039ba34203d3029b02009e42fb
:1002fc000ad8029b01229e1b039b0196e41a029bc7
:10030c00b342ad416d42671b0a9b0093002b00d199
:10031c0055e7019982c30023009350e720231b1a51
:10032c0001933300019a039fd34087401f4323005e
:10033c000199d340029a8440ca4022439446029abf
:10034c00390c8240b3fbf1f402920a0086406243fe
:10035c00009626009b1a6246bdb26e43120c1b041b
:10036c00134322009e4207d9db19013a9f4203d85e
:10037c009e4201d9a21edb199e1bb6fbf1f463460b
:10038c0061436543761a360499b20e432300b54295
:10039c0007d9f619013bb74203d8b54201d9a31ec0
:1003ac00f61912041a436b461c88009b711b8c4671
:1003bc00190c230096b2150c6c4373434d437143d7
:1003cc001e0c091971188c4202d9802464022d1953
:1003dc000c0c9bb209046519c918ac4503d30bd19d
:1003ec00029b8b4208d2009b013ace1ab142894142
:1003fc004942cf193100ed1b0a9b0093002b00d111
:10040c00dde6029b019c591a63465d1b029b8b42e5
:10041c009b415b42ed1a2b00c140a340c5401943e0
:0a042c000a9b22c377e70a9b55e7fd
:020000040000fa
:0204360070470d
:020000040000fa
:100438000023f0b506001500afb0059101930599aa
:100448000b78002b00d10ce101235b420a930eab21
:1004580000240c93802309940b940d930b5d0bb12e
:10046800252b29d134b12200300001f039f9059b40
:100478001b190593059b1a78252a00d0e6e040f25f
:10048800020c10210827013302930593059803787d
:100498002b2b1bd025d8202b1bd0232b1dd02a2b50
:1004a8002ad001f0a5f80b90059b1a78303a092a52
:1004b80033d801330593f7e70134cfe70122099bcd
:1004c80080180393134309930590dfe70423099adf
:1004d8000ee0099b03933b430be0099b03930b43fb
:1004e80007e02d2bead0302bd9d16246099b039324
:1004f800134309930130e7e72b6801301a1d1b6885
:1005080005902a600b93002b07da099a5b42039245
:10051800012203990b934a400992099bda0702d5f5
:10052800022293430993059b1a782e2a0ed10022a2
:10053800581c0a9205905a782a2a28d10233059322
:100548002b681a1d1b682a6003930a9305a801f0fb
:10055800abf8059b0700187801f031fa692800d13b
:1005680082e035dc632800d1d2e01bdc252800d1ed
:10057800dbe0612859d0252306aa1370029b059356
:10058800002309930b93013b0a930233aee001f079
:100598002ff80a90059b1a78303a092ad6d80133e1
:1005a8000593f7e764285fd06728e4dc2a00390060
:1005b80006a801f02cf9002800d1a5e0059b09a99f
:1005c8005a1c05921b7806aa300001f01efa3ce07e
:1005d800702800d17ae016dc6e2800d18de06f28f3
:1005e800c9d12b000022390006a800f0d7fb00284b
:1005f80000d189e0059b06aa013309a930000593bb
:1006080000f04afe21e075283fd078284dd07328a5
:10061800b1d1802f00d077e0059b2a68013305937c
:10062800131d2b601268002360e02a00390006a819
:1006380001f0edf8002867d0059b09a95a1c05921e
:100648001b7806aa300001f0e0f92418019b1c1958
:10065800a34200dc71e04f22394b1a6001235b4250
:10066800019301982fb0f0bd2b000122390006a894
:1006780000f094fb002847d0059b06aa013309a97e
:100688003000059300f03efcdfe72b000022390024
:1006980006a800f083fbb8b3059b06aa013309a995
:1006a8003000059300f0c8fecfe72b000022390088
:1006b80006a800f073fb38b3059b5a1c05921b78fb
:1006c80006aa09a9300000f058fabee72b0000225c
:1006d800f02106a800f062fbb0b1059b079a013330
:1006e8000593069b134333b9164a163209a93000fd
:1006f80000f0f8fea9e77823e2e7019b39001a1910
:1007080006a82b0000f036fe059b013305939de7f4
:10071800802ff9d1059b013305932b681a1d1b689f
:100728002a6006aa13700123e0e7802fecd1059b0d
:1007380006aa013305931070f5e701947fe6c046d9
:08074800ac00002010190000b4
:020000040000fa
:1007500010b540f60003c4f200239b7d1bb340f6a6
:100760000003c4f200235b8b9b071dd540f25003ae
:10077000c2f200032022ff2199540132fd3999541d
:1007800040f25003c2f2000320229b5c5bb20133b3
:1007900000d1e1e040f25003c2f2000320229b5c52
:1007a000062b00d103e110bd40f60003c4f2002384
:1007b0005b8bdb070ad540f25003c2f20003202214
:1007c000ff2199540132fd399954d9e740f60003cd
:1007d000c4f200235b8b5b070ad540f25003c2f2e0
:1007e00000032022ff2199540132fe399954c7e7b2
:1007f00040f25003c2f2000320229b5c5bb2032b49
:1008000072d0042b19d0022bbad140f25003c2f29d
:1008100000031b6943b140f25003c2f20003988801
:10082000002100f0cbfcabe740f25003c2f2000322
:100830009888012100f0c2fca2e740f25003c2f206
:1008400000039a691b699a4215d040f25003c2f224
:10085000000399688c5c40f60001c4f20021282056
:100860000c5401329a6140f60002c4f20022d369ae
:10087000002bfcd184e740f25003c2f200035b6915
:10088000d3b140f25003c2f200039b885b00012207
:100890001343d202c4f20022536240f60002c4f2b3
:1008a0000022d369002bfcd140f25003c2f20003b6
:1008b00020220321995463e740f60003c4f2002389
:1008c0005968c02292020a435a6040f60002c4f2fc
:1008d0000022d369002bfcd140f25003c2f2000386
:1008e0002022062199544be740f25003c2f2000344
:1008f0005a69013adb69934216d040f60002c4f20d
:100900000022d369002bfcd140f25003c2f2000355
:10091000da6940f60001c4f200212820095cd86899
:1009200081540132da612be740f60003c4f2002360
:100930005968e022d2020a435a6040f60002c4f22b
:100940000022d369002bfcd140f25003c2f2000315
:10095000202206219954d0e740f25003c2f200034e
:100960000021995440f60003c4f200235968c022c4
:1009700092020a435a6040f60002c4f20022d36990
:10098000002bfcd140f60003c4f2002383221a7628
:1009900040f25003c2f200035a6a002a00d102e773
:1009a00040f25003c2f20003986a9047fbe640f21f
:1009b0005003c2f20003002220215a5401315a543c
:1009c00040f60003c4f2002383321a7640f6000298
:1009d000c4f200220f31538b0b40102bfbd140f29d
:1009e0005003c2f200035a6a002a00d1dbe640f24b
:0c09f0005003c2f20003986a9047d4e65e
:020000040000fa
:1009fc0006d128b9f54203d800d30ab96d0d09d137
:100a0c000020c143090dc904f0bdf9d11242f7d140
:100a1c00640df5d00020c14349054908a6e000202b
:100a2c006146f0bdf0b50127ff070e005e403e4069
:100a3c00b446be0a4c18dd18f442d9d2f542e4d2c1
:100a4c00640decd06d0dead06419c9023943460d22
:100a5c00c0023143db023b43db0a10b48e4685b245
:100a6c0097b26f43140c6c433e0ca419260c24044f
:100a7c00bfb227439cb26c43a419190c6943250cd3
:100a8c00a4b249190d04090c6419000c95b2454324
:100a9c003e0c76193743bfb2360c150c4543ad19d5
:100aac00a6b2240cad192e0437432e0c36199db268
:100abc004543ad19acb22e0c89191d0c45436d186c
:100acc002e04290c3443704680b295b245433e0c3b
:100adc0076193743bfb2360c150c4543ad19a6b287
:100aec00ad19240c2e0437432e0c36199db24543f8
:100afc00ad19acb22e0c89191d0c45436d182e0482
:100b0c003443290c75462d0c90b268433e0c801969
:100b1c000604bfb23e43070ca0b23f18120c6a4346
:100b2c00d019020c80b2240ca4189ab26a43121980
:100b3c0014042043120c89181b0c6b43c91810bced
:100b4c0001273d05294203d1b61940414941013cd9
:100b5c00ff077d0d013d641b0bdb6d00ac4209da18
:100b6c00240500254208be41684161416646314377
:060b7c00f0bd54e74ee756
:020000040000fa
:100b8200f0b58fb00d934b680c9006938b680d00f7
:100b92000793cb6816000393069b0f68002b42db7a
:100ba20002239f4310233b400a93079b04930a9b13
:100bb2003bb1726833681343079a13b11300023bc7
:100bc200049308233b400b935a1e9341049ad31a71
:100bd20004933368039a0893736809932b695c1e24
:100be20000231355069b0593012c1fdc0a9b002b47
:100bf20051d10b9b1bb12023039a013c13552b6946
:100c020000975a1e039b121b19190c98079b00f0a0
:100c12005bfa0c9b5b68db0503d56b68984200dad4
:100c220018000fb0f0bd01230693bbe7089b099a99
:100c3200134363b9059b002b09dc069a049b9b1a9c
:100c4200059a9b18002bd1dd02231f42ced00f2222
:100c5200089b013c134018005730092b01dc30334c
:100c620018000d9b413b192b06d820230343613bff
:100c7200192b01d800f0adfe039b1855059b013bd3
:100c82000593099b1a07089b1b091a43099b0892a3
:100c92001b090993a8e70cce1343002ba9d0039b91
:100ca2000d9a1b19013b1a703023039a023c13550b
:020cb2009fe7ba
:020000040000fa
:100cb40041f20003c4f2000302221a7641f2004317
:100cc400c4f2000300221a7441f60043c4f2000384
:100cd4000632ff32c0f204025a6241f60042c4f204
:100ce4000002082153681942fcd141f60043c4f2c2
:100cf400000380224121995041f60042c4f20002cf
:100d04008020013913581942fcd041f20003c4f287
:100d1400000320225a631f321a6341f20002c4f214
:100d240000023c200421135c0b42fcd141f200037d
:100d3400c4f200032c220221995441f20002c4f2ad
:100d440000023c20135c0b42fcd141f20002c4f2cd
:100d5400000240200321135c0b40032bfbd141f61e
:100d64000043c4f2000340f20712c0f202021a6206
:100d740041f60042c4f20002042153681942fcd136
:100d840041f60043c4f20003b0224021995041f6d9
:100d94000042c4f20002b02013581942fcd070473c
:020000040000fa
:100da40010b588293ad014dc81294ad003dc802983
:100db40047d0002010bd822910d08429f9d11968a8
:100dc4002ab30a1d1a6000228b5e0360db1743609e
:100dd40010e0a0292ed00fdc9029ead1196807244d
:100de4006ab30919a1430a0008321a600b684c68f7
:100df400036044600120dde7c02901d0f029d8d187
:100e04001a68111d1960136803600023dfe70c1dc5
:100e14001c600b689bb203604260ebe7196822b167
:100e24000a1d1a600023cb56cfe70c1d1c600b680b
:100e3400dbb2f0e71a68111d19601368c5e70731c2
:100e4400d0e719681ab10a1d1a600b68bde70c1dba
:060e54001c600b68dfe7e3
:020000040000fa
:020e5a00fee7b1
:020000040000fa
:100e5c007c0000201c00000000000000a00000200e
:100e6c000400000000000000b4000020020000009c
:100e7c0000000000b0000020020000000000000094
:100e8c00500000202c00000000000000a4000020f6
:100e9c0004000000000000000000002050000000d2
:100eac0000000000b800002020000000010000003d
:100ebc000100000003000000000000000000000022
:100ecc00000000000000000000000000980000205e
:100edc00980000200800000000000000a80000207e
:100eec000400000000000000ac0000200400000022
:100efc0000000000000000000000000044444444d6
:020000040000fa
:100f0c00f0b54b6889b005930b6807009c460793b6
:100f1c00cb680c008e6810685168cd0f0493002dbf
:100f2c0041d00b000200002150429941059b002b3f
:100f3c0007db022263469343079315b9079b5a07b5
:100f4c0028d5731e07aa02920a22009301920b0065
:100f5c000200200000f071f815b9079b5a071dd547
:100f6c0001382d2305b9023b049a135423695a1ee8
:100f7c00049b121a1918079b38000093330000f0d9
:100f8c009ef87b68db0503d56368984200da18008d
:100f9c0009b0f0bd1b07db0ff31ad3e71b07e5d530
:0e0fac0001382023e0e7059b002bc2dac6e7e0
:020000040000fa
:100fba0040f60003c4f2002301221a60d202c4f2ee
:100fca000022d369002bfcd140f60003c4f20023af
:100fda0040f200125a60d200c4f20022d369002bf8
:100fea00fcd140f60003c4f200239922da60833a66
:100ffa00c0f210021a6040f60002c4f20022d3695d
:10100a00002bfcd140f60003c4f2002310225a83bd
:10101a00d201c4f20022d369002bfcd140f2500362
:10102a00c2f20003002221215a5401395a5440f6cf
:0c103a000003c4f2002383329a75704753
:020000040000fa
:10104600f0b5050085b019000c9b100001931a68d5
:101056002b696c68013bef681d00002c00da012447
:1010660040f2000c664640f2020cfe540a9e012332
:10107600361b0296664616400b9ad2170392002d2f
:1010860003dcbbb1280005b0f0bd02000a433ab943
:10109600002c05dc029a1219002af2dd002ef0d08f
:1010a6000b9a039b00f085fa013d130030327a5506
:1010b600013ce4e71023019a12689a431300019a4f
:0410c6001360dfe7ed
:020000040000fa
:1010ca00f0b51d00012389b014000e9a06001a40db
:1010da00039102920ab9a5420ad822000399300064
:1010ea0000f0fdfaa54203d82500280009b0f0bd9a
:1010fa002f1b01973a00102f00d91022202104a893
:10110a0000f045fc019b0f2b0ed80f2204a93a4090
:10111a00300000f0e4fa029b002be6d1220003998a
:10112a00300000f0dcfae0e7102204a9300000f0f9
:0a113a00d6fa019b103b0193e4e795
:020000040000fa
:10114400f0b585b00f236b4402221a70002000f022
:101154004afb41f6d800c0f2000000f085fb0f26e0
:101164006e4400250224357040f2b407c2f2000731
:1011740040f2b001c2f2000100943b002200402082
:1011840000f0f8f9787800f0b3fb00220023c3f6ee
:10119400a073fff74bfc00f0dbfa010040f2a00360
:1011a400c2f20003186041f6d800c0f20000183003
:0611b40000f080fbd7e70c
:020000040000fa
:0211ba00fee74e
:020000040000fa
:1011bc0010b540f25003c2f2000300229a61da61ca
:1011cc0040f60003c4f2002383321a765a68144c9a
:1011dc0022405a6040f60002c4f20022d369002b70
:1011ec00fcd1a9b140f25003c2f200032022032427
:1011fc009c544000084340f60003c4f2002358629c
:10120c0040f60002c4f20022d369002bfcd110bdc1
:10121c0040f25003c2f20003202204249c54e8e75d
:04122c00fffffbffc6
:020000040000fa
:101230000021f0b5174b184a934208d340f20b0c2b
:101240000027164a1368516823b919b9f0bd1970ff
:101250000133f1e7100095680c305c18b5b16546b4
:10126000ed1a5219a3420ad10b00032213405a1e51
:10127000934189085918890040180200e2e75d1c73
:10128000ae5c1e702b00ede71f700133a342fbd153
:10129000f3e7c04600000020000000205c0e0000c4
:020000040000fa
:1012a000f0b50b680c008f68cd68496887b0060000
:1012b0000593002902db02218b43059305a953689e
:1012c000126802910821009701912000fff7bbfef0
:1012d000059bdb0602d5302301382b54059b1b07e9
:1012e00002d5202301382b54236929185a1e059b47
:1012f000121a009330003b00fff7e7fe7368db052e
:0e13000003d56368984200da180007b0f0bd0c
:020000040000fa
:02130e00fee7f8
:020000040000fa
:10131000bff35f8f62b64ef20013cef2000340f2cd
:1013200018315a5813481040c022120402435a5030
:101330008022d2041a605a581202120ac0200006f3
:1013400002435a50802212051a6004315a58ff2075
:1013500082433f3802435a50802252051a605a583d
:10136000054802404cf2000002435a508022920588
:0c1370001a607047ffff00ffff00ffff46
:020000040000fa
:10137c0010b584291fd007dc812915d0822922d0f1
:10138c00802911d0002010bd90291cd008dc8829a0
:10139c00f8d119680c1d1c600b6803601a7010e002
:1013ac00a02901d0c029edd119680c1d1c600b6857
:1013bc0003601a6005e019680c1d1c600b68036063
:1013cc001a800120dfe719680c1d1c600b68036094
:0813dc001a60d2175a60f4e711
:020000040000fa
:1013e40000230e4a10b513600d4a0e4c13600e4aca
:1013f40013600e4a13600e4a13600e4a536213615f
:101404000133936000f0cefa00f013f90a4b9c42ca
:1014140000d310bd08cc9847f8e7c046a8000020c8
:101424000c00002000010000080000200000002043
:0c14340004000020100000200401000053
:020000040000fa
:10144000f0b50b680c008f68cd68496887b006005e
:101450000593002902db02218b43059305a95368fc
:10146000126802910a21009701912000fff7ebfd1d
:10147000236929185a1e059b121a009330003b005d
:10148000fff723fe7368db0503d56368984200da33
:06149000180007b0f0bdda
:020000040000fa
:1014960010b541f2eb43c0f20003984741f2eb432b
:1014a600c0f20003984700f09efa40f20003c0f233
:1014b60000037f2293434ef60052cef20002936061
:1014c60041f2e533c0f20003984741f2eb43c0f224
:1014d6000003984741f2eb43c0f200039847fff739
:0414e6002efefee7f1
:020000040000fa
:0214ea00704749
:020000040000fa
:1014ec00f0b50f00150087b0039007220e4904a831
:1014fc001c0000f042fabb687e6802933f6805b995
:10150c0004ad1cb9280000f051fa0400002e02dbd7
:10151c00b44200d934000097029b220029000398a2
:0c152c00fff7cdfd07b0f0bd041a000071
:020000040000fa
:1015380010b5054c227832b9044b13b1044800e0c9
:1015480000bf0123237010bd7c00002000000000b4
:1015580000000000034b10b51bb10349034800e02d
:1015680000bf10bd00000000800000200000000047
:020000040000fa
:1015780070b5050040f25004c2f200042020245c3b
:10158800002004b170bd40f25004c2f20004a580ee
:10159800e360049b6361a16022610023a370237050
:1015a8002122a35400212800fff704fe0120e9e7c7
:020000040000fa
:1015b800002b11d1002a0fd1002900d1002802d018
:1015c8000021c943081c07b4024802a14018029030
:1015d80003bdc0463d04000003b4684601b5029847
:1015e800fef798fd019b9e4602b00cbc7047c046b2
:020000040000fa
:1015f800030010b51a78202a0dd0110009390429e2
:1016080009d900212b2a02d02d2a01d10131013319
:1016180000200a2404e00133ece760430133801a18
:0e1628001a78303a092af8d901b9404210bdab
:020000040000fa
:021636007047fb
:020000040000fa
:101638001c2101231b04984201d3000c10391b0afa
:10164800984201d3000a08391b09984201d30009be
:10165800043902a2105c40187047c0460403020215
:0c16680001010101000000000000000072
:020000040000fa
:1016740040f20043c4f2000300221a819a79012146
:101684000a439a719b7803221340022b0cd040f238
:101694000043c4f20003013a9a705202c4f20002f9
:0a16a400012193790b42fcd070473e
:020000040000fa
:0216ae00704783
:020000040000fa
:1016b000f0b5040000200b4e4200955d1db9094baa
:1016c000d2185078f0bd216801300f78c0b2af4217
:1016d00004d1044b0131d218507821600a28ebd98b
:0816e000f0e7c04610190000fc
:020000040000fa
:1016e800436870b50400d80510d52569954200d91e
:1016f80015002a00606900f042f9226963695b19e4
:10170800551b0022636125611a7070bddb06fcd48d
:08171800200000f062f9f8e77f
:020000040000fa
:1017200043f20003c4f2000380221a601a61393abe
:1017300002219954463a4e315a5401315a540531d6
:101740005a54002223395a54053122205854033167
:041750005a54704730
:020000040000fa
:10175400f4464a1805d200f031f801d5c017400804
:10176400604701235b05d34206d200f027f801d578
:101774000120c0074042604701d10042f5d0d01794
:041784004008704762
:020000040000fa
:1017880013b50b006a46d41d5a68c1b22170d20540
:1017980005d55a69c0b2541c5c61117016bd01228e
:1017a8002100180000f019f908b12078f6e70120a7
:0417b8004042f3e7d1
:020000040000fa
:1017bc004a0010d2520d03231b02ff33d21a0ad453
:1017cc0052421f3209d4400dc90208430123db07e2
:0e17dc001843d040704700207047d017704768
:020000040000fa
:1017ea0010b544f20003c4f2001304225a60fff752
:1017fa003cfffff790fffff758fa00f0b6f8fff743
:0c180a00d7fbfef713fefff77efd10bdbc
:020000040000fa
:10181600002380290fdb812901dd83290bd10721d4
:10182600136807338b431900083111601a685b6827
:0a18360002604360012318007047b0
:020000040000fa
:1018400070b5140016000a004e430d00511e8a4167
:101850005242144001003200180000f0c2f88642e3
:0a18600001d0b0fbf5f4200070bdcc
:020000040000fa
:10186c0010b5084c2368196800f00ef80123002805
:10187c0005db23680a20196800f0baf8c30f584238
:08188c0010bdc046d40000208d
:020000040000fa
:1018940070b50e00050000f08df83300040002005e
:1018a40001212800fff7caff001b431e9841404254
:0218b40070bd05
:020000040000fa
:1018b8000fb407b5054b04aa1b6802ca1868019241
:1018c80000f03df803b008bc04b01847d40000206d
:020000040000fa
:1018d8000d0a2053797374656d20496e69746961c6
:0c18e8006c697a6564200d002564000026
:020000040000fa
:1018f40041f62d13c0f20003004206d5404200b564
:0c190400984708bc0122d2071143184785
:020000040000fa
:1019100068076c094c836a9074a07ac0008068885c
:0c19200000846c820081286e696c290034
:020000040000fa
:10192c0040f21d42010007d002d4013a0018fcd548
:0a193c001205c30a40059918704710
:020000040000fa
:1019460013b50400019201aafef773fd6368db0676
:0819560001d50120404216bd3d
:020000040000fa
:1019600010b500f047f8024b1860586010bdc04633
:0419700098000020bb
:020000040000fa
:1019740044f20003c4f2001302225a60013a1a72bc
:021984007047aa
:020000040000fa
:10198600002310b59a4200d110bdcc5cc45401337b
:02199600f8e770
:020000040000fa
:1019980003001218934200d1704719700133f9e718
:020000040000fa
:1019a80010b5fff7d9fffff77efefff77cfe10bded
:020000040000fa
:0e19b80003001a780ab9181a70470133f9e7cc
:020000040000fa
:0e19c6000300413b192b01d820231843704722
:020000040000fa
:0e19d4000300613b192b01d85f2318407047b8
:020000040000fa
:0a19e20010b5006800f011f810bd08
:020000040000fa
:0819ec0010b5fff71ffc10bd50
:020000040000fa
:0819f40000487047b800002014
:020000040000fa
:0819fc0010b5fff7c3fe10bd9a
:020000040000fa
:071a0400286e756c6c2900cf
:020000040000fa
:061a0c000120404270477a
:020000040000fa
:041a120000207047f9
:020000040000fa
:041a18007047c0460d
:020000040000fa
:0200000400807a
:044000007f438fb0bb
:020000040000fa
:0200000400807a
:04400400bbfcffff03
:020000040000fa
:0200000400807a
:04c0040000ffffff3b
:020000040000fa
:0200000400807a
:04c04000ffffffff00
:020000040000fa
:0200000400807a
:04c04400fffffffffc
:020000040000fa
:0200000400807a
:04c04800fffffffff8
:020000040000fa
:0200000400807a
:04c04c00fffffffff4
:00000001FF
