:020000040000fa
:10000000f03f0020d70e00006f0d000043110000ec
:1000100000000000000000000000000000000000e0
:10002000000000000000000000000000bb0b00000a
:100030000000000000000000bb0b0000bb0b000034
:10004000bb0b0000bb0b0000bb0b0000bb0b000098
:10005000bb0b0000bb0b0000bb0b0000bb0b000088
:10006000bb0b0000bb0b0000bb0b0000bb0b000078
:10007000bb0b0000bb0b0000bb0b0000bb0b000068
:10008000bb0b0000bb0b0000bb0b0000bb0b000058
:10009000bb0b0000bb0b0000bb0b0000bb0b000048
:1000a000bb0b0000bb0b0000150100001501000098
:1000b0001501000015010000bb0b0000bb0b000088
:1000c000bb0b0000bb0b0000bb0b0000bb0b000018
:1000d000bb0b0000bb0b0000bb0b0000bb0b000008
:1000e000bb0b0000bb0b0000bb0b0000bb0b0000f8
:0400f000bb0b000046
:020000040000fa
:1000f400f8b5c046f8bc08bc9e46704769110000bc
:10010400f8b5c046f8bc08bc9e46704745110000cf
:020000040000fa
:1001140010b540f60003c4f200239b7d1bb340f6e8
:100124000003c4f200235b8b9b071dd540f2686378
:10013400c2f200032022ff2199540132fd3999545f
:1001440040f26863c2f2000320229b5c5bb201337d
:1001540000d1e1e040f26863c2f2000320229b5c1c
:10016400062b00d103e110bd40f60003c4f20023c6
:100174005b8bdb070ad540f26863c2f200032022de
:10018400ff2199540132fd399954d9e740f600030f
:10019400c4f200235b8b5b070ad540f26863c2f2aa
:1001a40000032022ff2199540132fe399954c7e7f4
:1001b40040f26863c2f2000320229b5c5bb2032b13
:1001c40072d0042b19d0022bbad140f26863c2f268
:1001d40000031b6943b140f26863c2f200039888cc
:1001e400002100f0e9fcabe740f26863c2f20003cf
:1001f4009888012100f0e0fca2e740f26863c2f2b3
:1002040000039a691b699a4215d040f26863c2f2ee
:10021400000399688c5c40f60001c4f20021282098
:100224000c5401329a6140f60002c4f20022d369f0
:10023400002bfcd184e740f26863c2f200035b69df
:10024400d3b140f26863c2f200039b885b000122d1
:100254001343d202c4f20022536240f60002c4f2f5
:100264000022d369002bfcd140f26863c2f2000380
:1002740020220321995463e740f60003c4f20023cb
:100284005968c02292020a435a6040f60002c4f23e
:100294000022d369002bfcd140f26863c2f2000350
:1002a4002022062199544be740f26863c2f200030e
:1002b4005a69013adb69934216d040f60002c4f24f
:1002c4000022d369002bfcd140f26863c2f2000320
:1002d400da6940f60001c4f200212820095cd868dc
:1002e40081540132da612be740f60003c4f20023a3
:1002f4005968e022d2020a435a6040f60002c4f26e
:100304000022d369002bfcd140f26863c2f20003df
:10031400202206219954d0e740f26863c2f2000318
:100324000021995440f60003c4f200235968c02206
:1003340092020a435a6040f60002c4f20022d369d2
:10034400002bfcd140f60003c4f2002383221a766a
:1003540040f26863c2f200035a6a002a00d102e73d
:1003640040f26863c2f20003986a9047fbe640f2e9
:100374006863c2f20003002220215a5401315a5406
:1003840040f60003c4f2002383321a7640f60002da
:10039400c4f200220f31538b0b40102bfbd140f2df
:1003a4006863c2f200035a6a002a00d1dbe640f215
:0c03b4006863c2f20003986a9047d4e628
:020000040000fa
:1003c000940600201c00000000000000b806002079
:1003d0000400000000000000b80700200600000034
:1003e0000100000000004d43485000006806002056
:1003f0002c00000000000000bc06002004000000eb
:10040000000000001806002050000000000000005e
:10041000cc0600206c00000001000000d80600207f
:10042000d4060020d80600200000000025000000af
:100430000800002000040000000000000000000090
:1004400000000000000000000000000000000000ac
:10045000000000000000000007170000000000007e
:100460000000000000000000000000000d0d000072
:10047000000000000000000000000000000000007c
:100480000000000000000000000000200804000040
:10049000000000009807002020000000010000007c
:1004a0000100000003000000000000000000000048
:1004b000000000000000000000000000b006002066
:1004c000b00600200800000000000000c006002068
:1004d00004000000000000000804002010020000da
:1004e000000000003807002060000000010000004c
:1004f00001000000030000000000000000000000f8
:10050000000000000000000000000000290e0000b4
:10051000000000000000000000000000dd160000e8
:10052000f7160000000000000000000000000000be
:1005300000000000000000000000000000000000bb
:1005400000000000000000000000000000000000ab
:10055000c40600200400000000000000c8060020bf
:100560000400000000000000000000000000000087
:020000040000fa
:10057000f0b587b0039003a800f024fe002802da4b
:10058000002007b0f0bd039b1b095d1e202d0ad97a
:1005900040f2ff12023b934224d84d4adb089b18dd
:1005a000043b1d7801352a000120002101f028f8c4
:1005b000002443428c4100930194464c00982268e9
:1005c00063681040020001990b401a43f2bb039b81
:1005d00005a81033059301f01ff850b90c223e4bcb
:1005e0001a60cee73a4adb099b18043b1d781135a7
:1005f000d9e73a490c68a04206d0059b0400103b9d
:1006000005930123103483600125059be2180a60dd
:100610002b43083a083c28c26360002cb0d020006d
:1006200000f09ffe58b123686168ab43e31a5a6833
:10063000aa4352185a606168a94362501c00200006
:10064000039900f04dff200008309ae7204a244922
:100650003c3290bb584203404b43db0ed65c203605
:10066000300000f09bff731cdb001a4ae458083b83
:100670009b189c42a1d0272e25dd0235ae4201dc1d
:100680003f2e20d101226368039f9343dd1b280086
:10069000009300f0d7fd864215d1e268a168e31906
:1006a000da60996093609a68d360012217431f60f3
:1006b0005d60009be5506760c1e7434203404b43e8
:1006c000db0ed65ccce73100200000f07ffcb6e703
:1006d000cc0d000010040020c406002008040020f7
:0406e00029e66b0795
:020000040000fa
:1006e400f0b585b00f236b4402221a700e236b44bd
:1006f40000221a70002000f0c2fb41f2b850c0f290
:10070400000000f0affe0024504f40f2b875c2f272
:100714000005ae1c15e0042413e0062411e00f24a8
:100724006c4441f26350c0f20000210000f0c6ffa7
:100734000023237001220e216944402000f060fd53
:100744000124012000f07cff092cfad8a300fb58f7
:100754009f460f236b441b78012b07d00f236b4458
:100764001c78023c631e9c41e4b2eae70e336b44fe
:1007740000221a7006322900402000f041fd0224b4
:10078400dfe70f236b441b78012b06d00f236b4448
:100794001b78022bd5d10924d3e70e336b440022f6
:1007a4001a7001320e216944402000f029fd03240f
:1007b400c7e70f236b441b78012bacd00f236b448a
:1007c4001b78022bbdd10d336b4400221a70013209
:1007d4000e216944402000f013fdb2e70f236b445f
:1007e40000221a7040f2b863c2f20003043200928d
:1007f400023a2900402000f0c3fc0524a1e70f239e
:100804006b441b78012b88d00f236b441b78022b7d
:1008140097d1092495e740f2b861c2f2000104229d
:10082400300000f0aafe441ea0410830040088e70e
:1008340043f20003c4f2000380225a6181e743f2c9
:100844000003c4f2000380229a617ae74014000096
:020000040000fa
:1008540041f20003c4f2000302221a7641f200437b
:10086400c4f2000300221a7441f60043c4f20003e8
:100874000632ff32c0f204025a6241f60042c4f268
:100884000002082153681942fcd141f60043c4f226
:10089400000380224121995041f60042c4f2000233
:1008a4008020013913581942fcd041f20003c4f2ec
:1008b400000320225a631f321a6341f20002c4f279
:1008c40000023c200421135c0b42fcd141f20003e2
:1008d400c4f200032c220221995441f20002c4f212
:1008e40000023c20135c0b42fcd141f20002c4f232
:1008f400000240200321135c0b40032bfbd141f683
:100904000043c4f2000340f20712c0f202021a626a
:1009140041f60042c4f20002042153681942fcd19a
:1009240041f60043c4f20003b0224021995041f63d
:100934000042c4f20002b02013581942fcd041f620
:100944000043c4f20003b4224021995041f600420e
:0e095400c4f20002b42013581942fcd07047c0
:020000040000fa
:020962007047dc
:020000040000fa
:10096400f7b5002856d00838436801221e00964384
:1009740085192a680400934200d0ffde22686b6860
:100984001340012213420fd1200000f0e8fc00289c
:1009940041d1280000f0fbfc0028efd001226b6855
:1009a4009343f618ed18e9e70123334363603000fd
:1009b4002b6000f045fc019000f0eefd22686b68ae
:1009c400134001221342dfd0174f019a3868796827
:1009d40000f008fe012318420dd1019a01200021e4
:1009e40000f00cfe0b0010b13a6802433a6013b1f8
:1009f4007b680b437b60019b0b4a0133db009b1834
:100a04001a005b68083a66602e60e360a260d460f6
:100a1400e3689c60f7bd012223689343e41a63688a
:0c0a24009343f618b5e7c046100400200c
:020000040000fa
:100a300040f60003c4f2002301221a60d202c4f27d
:100a40000022d369002bfcd140f60003c4f200233e
:100a500040f200125a60d200c4f20022d369002b87
:100a6000fcd140f60003c4f200239922da60833af5
:100a7000c0f210021a6040f60002c4f20022d369ec
:100a8000002bfcd140f60003c4f2002310225a834d
:100a9000d201c4f20022d369002bfcd140f268637a
:100aa000c2f20003002221215a5401395a5440f65f
:0c0ab0000003c4f2002383329a757047e3
:020000040000fa
:100abc00f0b51600050002278369426987b00293de
:100acc00d31a03939b1904910596019302ac3a0037
:100adc002100286800f0eafc019b984208d1ab6821
:100aec00ea68ab619a18aa626b61300007b0f0bd7e
:100afc0000280cda102200236968ab620a43ab6150
:100b0c006b616a60022f12d06368f61aede7019be5
:100b1c001b1a01936368984202d9c01a0834013f2a
:100b2c0023681b1823606368181a6060cfe71e00e7
:020b3c00dbe7f5
:020000040000fa
:100b3e00f8b5846a05000f00160054b1ab6a6a69f5
:100b4e009b1ab3420cd2320039002800fff7afffd8
:100b5e0005e000f036fd03002000002beed0f8bdbe
:100b6e00002ef0d02b0034331b785bb2002b1bdb36
:100b7e003400dbb2621eb95c994212d122003900f8
:100b8e002800fff794ffa042e9d33f19341b22003f
:100b9e003900686900f06bfd6b6930001c196c61df
:0c0bae00dde71400002ae5d13400f0e778
:020000040000fa
:020bba00fee754
:020000040000fa
:100bbc0010b540f26863c2f2000300229a61da6158
:100bcc0040f60003c4f2002383321a765a68144ca0
:100bdc0022405a6040f60002c4f20022d369002b76
:100bec00fcd1a9b140f26863c2f2000320220324b5
:100bfc009c544000084340f60003c4f200235862a2
:100c0c0040f60002c4f20022d369002bfcd110bdc7
:100c1c0040f26863c2f20003202204249c54e8e7eb
:040c2c00fffffbffcc
:020000040000fa
:100c30000021f0b5174b184a934208d340f20b0c31
:100c40000027164a1368516823b919b9f0bd197005
:100c50000133f1e7100095680c305c18b5b16546ba
:100c6000ed1a5219a3420ad10b00032213405a1e57
:100c7000934189085918890040180200e2e75d1c79
:100c8000ae5c1e702b00ede71f700133a342fbd159
:100c9000f3e7c0460000002000000020c003000071
:020000040000fa
:100ca000bff35f8f62b64ef20013cef2000340f244
:100cb00018315a5813481040c022120402435a50a7
:100cc0008022d2041a605a581202120ac02000066a
:100cd00002435a50802212051a6004315a58ff20ec
:100ce00082433f3802435a50802252051a605a58b4
:100cf000054802404cf2000002435a5080229205ff
:0c0d00001a607047ffff00ffff00ffffbc
:020000040000fa
:100d0c007fb51600c2680d0013000091591e8b416f
:100d1c00f31a019383680400039269460222006867
:100d2c00029300f0affb002808dc182208230240d5
:100d3c00534062681343636006000fe0019b8342db
:100d4c00fad2a268c01ae3681018e26320642bb1cf
:100d5c00531ce3631378ad19013d2b70300004b0c4
:020d6c0070bd58
:020000040000fa
:020d6e00fee79e
:020000040000fa
:100d700000230e4a10b513600d4a0e4c13600e4a44
:100d800013600e4a13600e4a13600e4a53621361d9
:100d90000133936000f08cfc00f0fffb0a4b9c4297
:100da00000d310bd08cc9847f8e7c046c006002025
:100db0002406002000010000200600201806002064
:0c0dc0001c060020280600200401000092
:020000040000fa
:100dcc0020212223242425252626272728282828c5
:100ddc00292929292a2a2a2a2b2b2b2b2c2c2c2c5f
:100dec002c2c2c2c2d2d2d2d2d2d2d2d2e2e2e2e27
:100dfc002e2e2e2e2f2f2f2f2f2f2f2f000117029d
:100e0c001d1813031e1b190b1408040d1f161c129e
:0c0e1c001a0a070c1511090610050f0e2c
:020000040000fa
:100e280070b504000d0008b9002070bd43689b062a
:100e380007d543698269934215d80023a362a36149
:100e48006361e16b236c994204d2c91a01222068bc
:100e580000f057fc00232364e363002de4d02068ee
:100e680000f04afce1e70022c36a11009847636971
:0a0e7800002be2d101204042d7e731
:020000040000fa
:100e820010b544f20003c4f2001304225a6000f0c9
:100e920014fa40f2d063c2f200031b681868002102
:100ea20000f0e2fb40f2b473c2f200031b68186860
:100eb200002100f0d9fb00f0b0f8fff7cafc00f007
:100ec200cafb00f05af8fff7b2fdfff749fdfff742
:040ed200e6fe10bd6b
:020000040000fa
:100ed60010b541f24323c0f20003984741f2432381
:100ee600c0f20003984700f0fbfb40f20003c0f29b
:100ef60000037f2293434ef60052cef20002936027
:100f060040f67153c0f20003984741f24323c0f202
:100f16000003984741f24323c0f200039847fff7c6
:040f2600defbfee709
:020000040000fa
:100f2a00f8b505000c00002015b300f0dff9d4b1c4
:100f3a00002040f60042c4f200220421072605e000
:100f4a00178d4300ef52013084420dd0137e0b42bd
:100f5a00fcd0538b334207d153683340012befd077
:100f6a00138d2b54efe72000201a44426041c0b28f
:020f7a00f8bdc0
:020000040000fa
:100f7c0040f60043c4f2002340f20412c4f2100203
:100f8c001a600e4a9a81c02292025a6040f60042c0
:100f9c00c4f20022d369002bfcd140f60043c4f20a
:100fac0000231a6802210a431a6040f60042c4f278
:100fbc000022d369002bfcd17047c04641f1ffffe2
:020000040000fa
:100fcc0070b5c668856804000a00ae4211d10120d4
:100fdc00002100f00ffbc043c943431c03d00b4b53
:100fec001a68104018604b1c03d0084a536819400b
:100ffc005160012319006268b56011439a43ee6099
:10100c006160a41822681343236070bd1004002093
:020000040000fa
:10101c0043f20003c4f2000380221a601a61393ac9
:10102c0002219954463a46315a5401315a540731e7
:10103c005a5401315a5405315a5402315a5401311f
:10104c005a5432320021995434201a54113a043033
:0c105c001a54033019543c315a547047a8
:020000040000fa
:1010680070b5040016001d00022a1ad043689b06ba
:1010780017d439b90db940f2004528000830fff7f8
:1010880073fa010020236268a160134363602300a0
:10109800e5603433ff22012e00d10a221a70024b78
:0c10a800e362002070bdc0463f0b00005a
:020000040000fa
:1010b40037b56b46dd1d836a0400297063b163692b
:1010c400a26a93420fd3e36a0122290020009847c1
:1010d400012805d1287805e000f078fa0028eed040
:1010e400012040423ebd220034321278287852b2a8
:0c10f4009042e8d05a1c62611870f3e7cb
:020000040000fa
:1011000070b5d0b1d9b1002540f60042c4f200223a
:101110000124072605e06b00c35a13850135a94257
:1011200009d0137e2342fcd053683340012bf2d008
:10113000435d1385f2e7012070bd0020fce701202c
:02114000fae7cc
:020000040000fa
:02114200fee7c6
:020000040000fa
:1011440010b5054c227832b9044b13b1044800e0c1
:1011540000bf0123237010bd94060020000000008e
:1011640000000000034b10b51bb10349034800e025
:1011740000bf10bd00000000980600200000000021
:020000040000fa
:1011840070b5050040f26864c2f200042020245cbb
:10119400002004b170bd40f26864c2f20004a5806e
:1011a400e360049b6361a16022610023a370237048
:1011b4002122a35400212800fff7fefc0120e9e7c7
:020000040000fa
:1011c4000c4a036810b5546a0b4a591e121b91420b
:1011d4000ad92bb10c220120084b40421a6010bde1
:1011e400102202600020fae70f22173393430360b2
:1011f400f8e7c04628060020efffff7fc406002062
:020000040000fa
:1012040070b5050040f26863c2f2000320201b5c45
:10121400002003b170bd40f26863c2f200039d80f8
:101224000024dc605c6199601a619c701c7021224e
:0e1234009c5400212800fff7bffc0120eae7d0
:020000040000fa
:021242007047f3
:020000040000fa
:101244000309013b1800202b08d940f2ff129342f6
:1012540005d8094adb089b18043b1878704741f607
:1012640000423f209342f9d8034adb099b18043b10
:0c12740018781030f2e7c046cc0d0000e6
:020000040000fa
:101280000b00496810b50200890603d4190000f06c
:101290004ef810bd190034310978c0b249b281420c
:1012a00007d059699c6aa14203d24c1c5c610a7048
:0c12b000efe711001800fff7fdfeeae771
:020000040000fa
:1012bc0040f20043c4f2000300221a819a79012102
:1012cc000a439a719b7803221340022b0cd040f2f4
:1012dc000043c4f20003013a9a705202c4f20002b5
:0a12ec00012193790b42fcd07047fa
:020000040000fa
:1012f60040f60043c4f200235b8b5b0713d040f635
:101306000043c4f2002380221a76793a5a831b7e60
:101316005b0708d540f60043c4f2002304211a8d6a
:081326001a7e0a42fbd1704758
:020000040000fa
:10132e0013b50b006a46d41d5a68c1b22170d2059e
:10133e0005d55a69c0b2541c5c61117016bd0122ec
:10134e002100180000f09cf908b12078f6e7012082
:04135e004042f3e72f
:020000040000fa
:10136200f8b5050001262c68344201d000200ee0b9
:101372002000fff766ff070000f00ff92868a0427f
:10138200f1d1b043281a3900fff71ffe0120f8bd42
:020000040000fa
:10139200f8b5050001276c683c4201d000200de041
:1013a2002000fff74eff060000f0f7f86b68a3423b
:0e13b200f1d128003100fff708fe0120f8bd40
:020000040000fa
:1013c000074b0200196809b90649196018680649ef
:1013d00082188a4201d81a60704701204042fbe718
:0c13e000c8060020c0070020c009002043
:020000040000fa
:1013ec00020000234832d356591e0b4313700423ba
:1013fc00426813402bb11023134343600120404239
:0a140c0070470364c3631800fae799
:020000040000fa
:1014160070b5140016000a004e430d00511e8a4195
:101426005242144001003200180000f02df98642a5
:0a14360001d0b0fbf5f4200070bdfa
:020000040000fa
:10144000220700005607000086070000b6070000cc
:10145000e0070000020800001a080000460700002c
:081460003408000042080000fe
:020000040000fa
:1014680010b5084c2368196800f049f801230028d2
:1014780005db23680a20196800f035f9c30f5842c4
:0814880010bdc046b4070020ae
:020000040000fa
:10149000f7b5002507000c002e000192019b9e422b
:1014a00001db2800febd62682168380000f03cf8ce
:0814b00001362d180834f1e7a4
:020000040000fa
:1014b800f7b5002507000c002e000192019b9e4203
:1014c80001db2800febd62682168380000f037f8ab
:0814d80001362d180834f1e77c
:020000040000fa
:1014e000012370b544689c43651a102d0ad942182f
:1014f00019432b43116053600832035141601000bf
:06150000fff730fa70bd98
:020000040000fa
:1015060070b50e00050000f0dff83300040002009d
:1015160001212800fff77cff001b431e9841404233
:0215260070bd96
:020000040000fa
:1015280010b503000c00002043b9180032b10121a6
:0e1538002000fff7f6fc0028f9d0012010bdbe
:020000040000fa
:1015460070b50d001400012801d0200070bd2100e7
:0c1556002800fff7d2fd0028f9d0f6e7ce
:020000040000fa
:1015620010b5040000f09bf818b90cb101232370e8
:0c15720010bd002cfcd002232370f9e710
:020000040000fa
:10157e0030b500240139a24206d0035d01340d5d61
:0c158e00ab42f8d0581b00e0002030bd3c
:020000040000fa
:02159a00704798
:020000040000fa
:10159c00054a0130c00083582bb90300083b9b1847
:0c15ac0081184b60835070471004002031
:020000040000fa
:1015b8000d0a2053797374656d20496e69746961e9
:0815c8006c697a6564200d00d6
:020000040000fa
:1015d00010b50400fff70aff28b9a368e268a36109
:0815e00063619b18a36210bdba
:020000040000fa
:1015e800d0400b1cd1409c46203ad340184352426d
:1015f80063469340184370479140031c90409c46b3
:10160800203a9340194352426346d34019437047e6
:020000040000fa
:10161800006810b5002801da002010bdfff7ccfee5
:06162800431cfad1f8e7b3
:020000040000fa
:02162e00704703
:020000040000fa
:1016300010b500f061f8024b1860586010bdc0464c
:04164000b0060020d0
:020000040000fa
:1016440010b5034b1b68196800f04ff810bdc04675
:04165400b4070020b7
:020000040000fa
:1016580044f20003c4f2001302225a60013a1a72db
:021668007047c9
:020000040000fa
:10166a004a424a4110b5520040f20043fff7f7fce4
:02167a0010bda1
:020000040000fa
:10167c00002310b59a4200d110bdcc5cc454013388
:02168c00f8e77d
:020000040000fa
:10168e00c36a10b50bb1984710bd0068fff754ff41
:02169e00fae769
:020000040000fa
:1016a00040f26863c2f200032122985cc0b2704726
:020000040000fa
:1016b00010b5fff7bdfffff7bafffff7b8ff10bd8a
:020000040000fa
:0e16c00040f26863c2f20003586299627047fc
:020000040000fa
:0e16ce0003001a780ab9181a70470133f9e7b9
:020000040000fa
:0a16dc0010b50068fff731ff10bde4
:020000040000fa
:0816e60010b5fff7a2fa10bdd8
:020000040000fa
:0816ee0010b5fff7c6fd10bda9
:020000040000fa
:0216f60070473b
:020000040000fa
:0816f80000487047380700208c
:020000040000fa
:0617000001204042704789
:020000040000fa
:041706000020704708
:020000040000fa
:04170a000020704704
:020000040000fa
:0200000400807a
:044000007f438fb0bb
:020000040000fa
:0200000400807a
:04400400bbfcffff03
:020000040000fa
:0200000400807a
:04c0040000ffffff3b
:020000040000fa
:0200000400807a
:04c04000ffffffff00
:020000040000fa
:0200000400807a
:04c04400fffffffffc
:020000040000fa
:0200000400807a
:04c04800fffffffff8
:020000040000fa
:0200000400807a
:04c04c00fffffffff4
:00000001FF
