:020000040000fa
:10000000f03f0020612c00007f280000f72a00004c
:1000100000000000000000000000000000000000e0
:10002000000000000000000000000000a718000011
:100030000000000000000000a7180000a718000042
:10004000a7180000a7180000a7180000a7180000b4
:10005000a7180000a7180000a7180000a7180000a4
:10006000a7180000a7180000a7180000a718000094
:10007000a7180000a7180000a7180000a718000084
:10008000a7180000a7180000a7180000a718000074
:10009000a7180000a7180000a7180000a718000064
:1000a000a7180000a71800009d1000009d10000078
:1000b0009d1000009d100000a7180000a718000068
:1000c000a7180000a7180000a7180000a718000034
:1000d000a7180000a7180000a7180000a718000024
:1000e000a7180000a7180000a7180000a718000014
:0400f000a71800004d
:020000040000fa
:1000f400f8b5c046f8bc08bc9e467047992e00006f
:10010400f8b5c046f8bc08bc9e467047752e000082
:020000040000fa
:08011400540900000100000085
:020000040000fa
:10011c00f0b59bb013930b6815900a938b680d91f7
:10012c000b930b694d681893cb6802931368089373
:10013c0053680898069300220023069902f0b0ff3a
:10014c0060b90a9b5b0738d408200a9b03400993cb
:10015c000b9b0393099b7bb1202306e080221206a4
:10016c009446069b634406932d23029a13700b9bb3
:10017c00013b039301230993069b08995b005b08e1
:10018c008f4af1b993421cd10299139b8c46099a60
:10019c00413b624410008b49192b10d803f064fbcf
:1001ac00029803f04cfb0a9b0200009302990b9bf4
:1001bc00159802f036fa1bb0f0bd2b23d5e70431ad
:1001cc00ece7934202d80fd1089b6bb10299139bb9
:1001dc008c46099a413b624410007a49192b01d88c
:1001ec000831dbe70c31d9e7002200230898069987
:1001fc0003f024f90026744f0024e8bb040002e04d
:10020c000134049e059f0022704b3000390001f030
:10021c009bfa089a069b0490059102f022ff002895
:10022c00eed0002304931fe0694b9c4213da049b2d
:10023c008bb90022674b0898069901f085fa654b3b
:10024c000890069130003900002201f07dfa01235c
:10025c0006000f0004933000390000225b4b01f0c4
:10026c0041fe06000f00013c32003b000898069945
:10027c0002f016ff0028d7d1139803f0e7fac3b2a7
:10028c000c93002d00da8be10493672b00d0a7e0d0
:10029c00002d00d180e1231d02dbac4200da9be093
:1002ac006523abe0002200230e920f93f7e0069635
:1002bc000797049b2600652b00d00ee100260ce16d
:1002cc00129b5bb9002e09da029a14992e335354ff
:1002dc00039b0137013b039301231293ea193b0063
:1002ec009446302102e0029ad15401339c45fad154
:1002fc00039aeb19551b029a30305f1cd0546b1ebd
:10030c000393002522e00d9b14971b691093053b6a
:10031c00bb4200d8eae0069a079b08980e9901f0b8
:10032c00e1fd01f03ffe1090119103f027f8092830
:10033c0000dd092010230a9a13400343002bbfd180
:10034c000c9b672bbcd1002ec8da0135802000062f
:10035c0084460e99089a61440b00109811990092ea
:10036c000193069a079b03f05bfa80231b06cb18bc
:10037c0008900e93069807990022144b01f0b2fdd9
:10038c00013e06900791ade00a9bdb0600d4b1e07c
:10039c002e23029ad3550137ace094fbf6fc614650
:1003ac007143611a029c3031013be154039964465c
:1003bc0001390391b1e0029a125c1a540138dbe066
:1003cc000000f07f1c3800000000f03f00002440cb
:1003dc00d4feffff00005043002c0eda662304937a
:1003ec00049b0135662b0ad1002c02da002600246e
:1003fc006e4f0c9b672b00d02d1966230493089b22
:10040c000e960f971293069b1093002314930e9a3b
:10041c000f9b1298109901f065fd01f0c3fd169029
:10042c00179102f0abff19908020000684461099ba
:10043c00129a61440b0016981799009201930e9a28
:10044c000f9b03f0edf980231b06cb181290109331
:10045c000e980f99564b002201f044fd149b0e9000
:10046c000f91013314939d42d1d10022514b01f0d5
:10047c006bf90e900f9102000b001298109902f07c
:10048c000ffe002800d00de70e9a0f9b12981099c2
:10049c0002f0d4ff18b1199bdb0700d402e70e9ac7
:1004ac000f9b0898069901f051f8002208900e91c4
:1004bc003f4b3000390001f047f9089a0e9b06902b
:1004cc00079102f0affc002800d1f0e6049b013448
:1004dc00662b00d0ede626000135731b0025099f25
:1004ec0016931295169b9e4200d00ce7129b002b84
:1004fc0000d149e70022029bd819049b0270652b9e
:10050c002ad1189b0299013bca54944201da6442e5
:10051c00013203250a2618996d1a002c00d03ce7ed
:10052c00e918002900dd38e75d1e2d2102b90239da
:10053c00029a023b5155139a413a192a01d8452285
:10054c000492029ad118049a0a70039a023a0392fe
:10055c009f4201da03f088f903230a9a1340022b15
:10056c0000d01de6039b002b00dc19e6029803f07b
:10057c0066f9029b039a9b18099a824200dc1ae7df
:10058c001300029a3021944663441800039a03f036
:10059c002ff900230b9303e601257ce606257ae66a
:1005ac000c9b672bfad00493062519e70000f03f4b
:0805bc0000002440000014407f
:020000040000fa
:1005c400f0b599b015930b6814900b934b680d9389
:1005d4008b680c930b691193cb680393136809938d
:1005e40053680998089300220023089902f05cfddf
:1005f40068b90b9b5b073ad408200b9b0c9d034006
:1006040006938bb12023039a013d13700ae08022e4
:1006140012069446089b634408932d23039a13708f
:100624000c9b5d1e01230693089b099a5b005b08e3
:10063400fab9b64a93421cd10399159b8c46069a83
:10064400b34c6244413b10002100192b00d9211df9
:1006540003f00ef9201d03f0f6f80b9b0200009343
:1006640003990c9b149801f0e0ff19b0f0bd2b2303
:10067400d4e7a64a934202d814d1099b93b10399b3
:10068400159b8c46069aa24c6244413b1000210003
:10069400192b05d8083103f0ebf820000c30dae709
:1006a4000c31f8e7069b03995a1c302306980b5427
:1006b400159b413b0e930e995823192900d92033d9
:1006c400069909980231069103998b54ab1e0a933b
:1006d40000220023089902f0b5fe002800d164e14d
:1006e40000238c4c0793049305940d9b1093002bcb
:1006f40001da182310930023049e059f099d089c8a
:100704003200129328003b00210001f0effb01f0be
:100714004dfc32003b001690179101f019f80200cd
:100724000b002800210003f02af87b4b05000c0085
:1007340030003900002201f00bf8129b060001334f
:100744000f930d9b0f00002b06da002200232800d4
:10075400210002f077fe30b9109b129a934200dd1b
:1007640029e101330f9300226c4b3000390000f073
:10077400efff06000f0002000b002800210002f02a
:1007840093fc002800d018e132003b00280021002f
:1007940002f058fe30b11698179902f0f3fdc30722
:1007a40000d40ae1089932003b00099800f0d2fe17
:1007b400109149000890490818b9544b994200d146
:1007c4003ae700252f00069c0995119b2600053b5e
:1007d400a3422dd9049a059b0898109901f086fb31
:1007e40001f0e4fb1290139102f0ccfd0300002809
:1007f40000d0e5e0002f00d1e2e00135049a059b2a
:100804001298139900f0a4ff02000b0008981099a5
:1008140002f0b5ff404b089010910022049805990e
:1008240000f096ff0f9b013704900591bb42ccd199
:10083400099be3b9002d00d104e10d9b002b00dce2
:1008440000e10b9bdb0700d5fce02e22039b039900
:100854001b191a702a198a183021597001339a42c7
:10086400fbd12c19ed430a9b0134eb180a930022a7
:10087400039b03991819119b0270013bca540799f1
:10088400914202da4a4207920122022511990a266c
:10089400691a8c460799002900d0bee06146c91840
:1008a400012900d1b9e05d1e2d2102b90239039a54
:1008b400023b51550e995022192900d9203203992f
:1008c400c9180a709c4201da02f0d2ff03230b9a82
:1008d4001340022b17d10a9d023d002d13dd03980e
:1008e40002f0b1ff039b5b19069a904200dba4e07f
:1008f4001300039a30219446634418002a0002f03e
:100904007bff00230c930398a5e6c0460000f07f0c
:100914000c3800000000f03f0000b03f0000204011
:10092400079b0494059501330793049a059b1000d3
:10093400190000f00ffe04000d0002000b000998de
:10094400089902f0b1fb0028ead0049a059b0998a3
:10095400089902f0a9fb002800d1c6e6049805997d
:1009640000223d4b00f0f4fe0022002302f06afd59
:1009740078b1049805990022384b00f0e9fe002272
:1009840004900591354b0998089900f0e1fe09900f
:100994000891314b04980599002200f0d9fe079b79
:1009a40004900591013b0793cfe700232c4c07905b
:1009b40004930594b9e70f9ba2e600260027f1e60d
:1009c400099a4ab947b103992e328a550a9a0134d1
:1009d400013a0a92012209922e1903e03021039a66
:1009e40011550134b442f9d118000a9a5730551bf5
:1009f400092b01dc303318000e9b192b06d8202359
:100a04000343613b192b01d802f02bff039b741c99
:100a140098556b1e0a930025f0e60799079d91fbf4
:100a2400f6f731007943691a039d3031013be954eb
:100a34000a99079701390a912ce7039a125c1a5410
:100a4400013851e70b9bdb0600d410e72e23039af1
:100a5400135501340be7c0460000e03f000050434b
:040a64000000f03f5f
:020000040000fa
:100a6800f0b585b000930393009b02900c0016002c
:100a7800150001900f00002b00d0c9e08a424ad926
:100a8800100002f06bfb48b12023019f1b1adf40c6
:100a9800019b84408340854027430193aab22b0cd5
:100aa800b7fbf3f1160094461a004a434e43bf1aa7
:100ab800019a3f04140c27430a00be4207d97f1944
:100ac800013abd4203d8be4201d98a1e7f19be1b16
:100ad800b6fbf3f14b436446f61a6b464c439b88ce
:100ae80036041e430f00b44207d97619013fb542b8
:100af80003d8b44201d98f1e76191204341b3a4325
:100b08000a9b23b1c4401c6000230a994b60100063
:100b1800009905b0f0bd02b9ffde100002f01efb1f
:100b2800b8bb0123a41b00932b0cb4fbf3f21f00ea
:100b380011005743aeb27143e41b019f24043f0cdc
:100b48003c439446a1420ad9012764197f42bc4418
:100b5800a54204d8a14202d9023a94466419641afb
:100b6800b4fbf3f77b43e41a6b467e439b8824046b
:100b78001c433900a64207d964190139a54203d894
:100b8800a64201d9b91e641963461a04a41b0a4374
:100b9800b6e7202223000199121ad3408440d1409d
:100ba800019a8540824021438c46290cb3fbf1f41d
:100bb80001920a00624326009b1a6246afb27e4346
:100bc800120c1b04134322009e4207d95b19013af9
:100bd8009d4203d89e4201d9a21e5b199b1bb3fb01
:100be800f1f671435b1a614677438cb21b041c43d0
:100bf8003100a74207d964190139a54203d8a74291
:100c080001d9b11e641912040a43e41b00928be750
:100c1800009b8b420ad90a9b002b00d1abe0029ab9
:100c280059601a60002300931a0070e7039802f0d5
:100c380095fad8b9039ba34203d3029b02009e42b4
:100c48000ad8029b01229e1b039b0196e41a029b71
:100c5800b342ad416d42671b0a9b0093002b00d144
:100c680055e7019982c30023009350e720231b1afc
:100c780001933300019a039fd34087401f43230009
:100c88000199d340029a8440ca4022439446029a6a
:100c9800390c8240b3fbf1f402920a0086406243a9
:100ca800009626009b1a6246bdb26e43120c1b04c6
:100cb800134322009e4207d9db19013a9f4203d809
:100cc8009e4201d9a21edb199e1bb6fbf1f46346b6
:100cd80061436543761a360499b20e432300b54240
:100ce80007d9f619013bb74203d8b54201d9a31e6b
:100cf800f61912041a436b461c88009b711b8c461c
:100d0800190c230096b2150c6c4373434d43714381
:100d18001e0c091971188c4202d9802464022d19fd
:100d28000c0c9bb209046519c918ac4503d30bd147
:100d3800029b8b4208d2009b013ace1ab1428941ec
:100d48004942cf193100ed1b0a9b0093002b00d1bb
:100d5800dde6029b019c591a63465d1b029b8b4290
:100d68009b415b42ed1a2b00c140a340c54019438b
:0a0d78000a9b22c377e70a9b55e7a8
:020000040000fa
:020d82007047b8
:020000040000fa
:100d84000023f0b506001500afb005910193059955
:100d94000b78002b00d10ce101235b420a930eabcc
:100da40000240c93802309940b940d930b5d0bb1d9
:100db400252b29d134b12200300002f028fa059bfa
:100dc4001b190593059b1a78252a00d0e6e040f20a
:100dd400020c102108270133029305930598037828
:100de4002b2b1bd025d8202b1bd0232b1dd02a2bfb
:100df4002ad002f01bf90b90059b1a78303a092a85
:100e040033d801330593f7e70134cfe70122099b77
:100e140080180393134309930590dfe70423099a89
:100e24000ee0099b03933b430be0099b03930b43a5
:100e340007e02d2bead0302bd9d16246099b0393ce
:100e4400134309930130e7e72b6801301a1d1b682f
:100e540005902a600b93002b07da099a5b420392f0
:100e6400012203990b934a400992099bda0702d5a0
:100e7400022293430993059b1a782e2a0ed100224d
:100e8400581c0a9205905a782a2a28d102330593cd
:100e94002b681a1d1b682a6003930a9305a802f0a5
:100ea400d3f9059b0700187802f0d4fc692800d117
:100eb40082e035dc632800d1d2e01bdc252800d198
:100ec400dbe0612859d0252306aa1370029b059301
:100ed400002309930b93013b0a930233aee002f023
:100ee400a5f80a90059b1a78303a092ad6d8013316
:100ef4000593f7e764285fd06728e4dc2a0039000b
:100f040006a802f0f7fa002800d1a5e0059b09a97c
:100f14005a1c05921b7806aa3000fff7fdf83ce046
:100f2400702800d17ae016dc6e2800d18de06f289d
:100f3400c9d12b000022390006a801f0f0f80028de
:100f440000d189e0059b06aa013309a93000059365
:100f540001f004fd21e075283fd078284dd0732896
:100f6400b1d1802f00d077e0059b2a680133059327
:100f7400131d2b601268002360e02a00390006a8c4
:100f840002f0b8fa002867d0059b09a95a1c0592fb
:100f94001b7806aa3000fff713fb2418019b1c19c9
:100fa400a34200dc71e04f22394b1a6001235b42fb
:100fb400019301982fb0f0bd2b000122390006a83f
:100fc40001f0adf8002847d0059b06aa013309a912
:100fd4003000059301f0fef8dfe72b000022390012
:100fe40006a801f09cf8b8b3059b06aa013309a929
:100ff4003000059301f007fecfe72b0000223900f3
:1010040006a801f08cf838b3059b5a1c05921b788e
:1010140006aa09a9300000f0fffcbee72b0000225d
:10102400f02106a801f07bf8b0b1059b079a0133c3
:101034000593069b134333b9164a163209a93000a7
:1010440001f0aafea9e77823e2e7019b39001a1907
:1010540006a82b0001f0b9fc059b013305939de71d
:10106400802ff9d1059b013305932b681a1d1b684a
:101074002a6006aa13700123e0e7802fecd1059bb8
:1010840006aa013305931070f5e701947fe6c04684
:0810940050070020c8360000df
:020000040000fa
:10109c0010b540f60003c4f200239b7d1bb340f651
:1010ac000003c4f200235b8b9b071dd540f2f86351
:1010bc00c2f200032022ff2199540132fd399954c8
:1010cc0040f2f863c2f2000320229b5c5bb2013356
:1010dc0000d1e1e040f2f863c2f2000320229b5cf5
:1010ec00062b00d103e110bd40f60003c4f200232f
:1010fc005b8bdb070ad540f2f863c2f200032022b7
:10110c00ff2199540132fd399954d9e740f6000377
:10111c00c4f200235b8b5b070ad540f2f863c2f282
:10112c0000032022ff2199540132fe399954c7e75c
:10113c0040f2f863c2f2000320229b5c5bb2032beb
:10114c0072d0042b19d0022bbad140f2f863c2f240
:10115c0000031b6943b140f2f863c2f200039888a4
:10116c00002101f013fbabe740f2f863c2f200037d
:10117c009888012101f00afba2e740f2f863c2f261
:10118c0000039a691b699a4215d040f2f863c2f2c7
:10119c00000399688c5c40f60001c4f20021282001
:1011ac000c5401329a6140f60002c4f20022d36959
:1011bc00002bfcd184e740f2f863c2f200035b69b8
:1011cc00d3b140f2f863c2f200039b885b000122aa
:1011dc001343d202c4f20022536240f60002c4f25e
:1011ec000022d369002bfcd140f2f863c2f2000359
:1011fc0020220321995463e740f60003c4f2002334
:10120c005968c02292020a435a6040f60002c4f2a6
:10121c000022d369002bfcd140f2f863c2f2000328
:10122c002022062199544be740f2f863c2f20003e6
:10123c005a69013adb69934216d040f60002c4f2b7
:10124c000022d369002bfcd140f2f863c2f20003f8
:10125c00da6940f60001c4f200212820095cd86844
:10126c0081540132da612be740f60003c4f200230b
:10127c005968e022d2020a435a6040f60002c4f2d6
:10128c000022d369002bfcd140f2f863c2f20003b8
:10129c00202206219954d0e740f2f863c2f20003f1
:1012ac000021995440f60003c4f200235968c0226f
:1012bc0092020a435a6040f60002c4f20022d3693b
:1012cc00002bfcd140f60003c4f2002383221a76d3
:1012dc0040f2f863c2f200035a6a002a00d102e716
:1012ec0040f2f863c2f20003986a9047fbe640f2c2
:1012fc00f863c2f20003002220215a5401315a54df
:10130c0040f60003c4f2002383321a7640f6000242
:10131c00c4f200220f31538b0b40102bfbd140f247
:10132c00f863c2f200035a6a002a00d1dbe640f2ed
:0c133c00f863c2f20003986a9047d4e600
:020000040000fa
:10134800240700201c00000000000000f806002010
:101358002c000000000000006807002002000000c8
:1013680000000000640700200200000000000000e8
:101378006007002002000000000000005c07002059
:1013880002000000000000005807002002000000d2
:1013980000000000580800200600000001000000be
:1013a80040000102feff000060080020030000006a
:1013b8000100000002790000c8060020300000008b
:1013c8000000000018060020600000000000000077
:1013d80048070020040000000000000078060020f4
:1013e80050000000000000006c0700206c000000a6
:1013f800010000007807002074070020780700200b
:101408000000000025000000080000200004000083
:1014180000000000000000000000000000000000c4
:1014280000000000000000000000000000000000b4
:10143800b3380000000000000000000000000000b9
:1014480000000000372a0000000000000000000033
:101458000000000000000000000000000000000084
:1014680000000020080400000000000038080020e8
:10147800200000000100000001000000030000003f
:101488000000000000000000000000000000000054
:10149800000000004007002040070020080000006e
:1014a800000000004c0700200400000000000000bd
:1014b800080400201002000000000000d8070020e7
:1014c80060000000010000000100000003000000af
:1014d8000000000000000000000000000000000004
:1014e80000000000b12b0000000000000000000018
:1014f80000000000813800002335000000000000d3
:1015080000000000000000000000000000000000d3
:1015180000000000000000000000000000000000c3
:101528000000000000000000500700200400000038
:101538000000000054070020040000000000000024
:101548000000000000000000444444444444444473
:020000040000fa
:10155800f0b40125ed070f005f405ad48b4200d14b
:10156800824205d950404240504059404b40594072
:101578004e18760ddf187f0d3bd0741c640529d0fa
:10158800f41b352c26d80e0ddb022b43db0ac902cf
:101598002943c9121700202c1ed2e741e2405740c8
:1015a800e3415a40a340e3405a400024801859417f
:1015b8000ad3b21c520521d0c207012f624117007d
:1015c8004008cb0718434908013636054208af41a1
:1015d80060417141f0bc7047203c06d01f00e741d4
:1015e800e3405f400024012a6741c0186141ebd302
:1015f800dfe7002eeed129400020ebe70136310568
:101608000020e7e7e742e5d10020c143090dc904fe
:10161800e0e76b400e00871a9e4104d26e40c01b63
:10162800b141d21973414e18df18ac0ae642e9d22b
:10163800760d7f0d31d0f41b362ccbd8b4460e0d69
:10164800db022b43db0ac9022943c90a012c32d821
:1016580004d1d4075208df073a435b08ef0a644213
:10166800904199411ed0002239424dd12419404160
:1016780049410124394204d1013400184941394211
:10168800fad06246a24204d9361b013e36058919b2
:10169800a0e7f10ac90700209ce736429ad100204a
:1016a800002197e70200224394d0b842ded201001d
:1016b80020002024e3d1202c13dd203ce241170038
:1016c800a240e2405740e3415a40a340e3405a4019
:1016d800012fbf410137174300227c4298419141b5
:1016e8000ce01700e741e2405740e3415a40a3406d
:1016f800e3405a407c429041994100220f0303d2b3
:10170800013e241940414941013e36054708ac4194
:0817180050417141f0bc704723
:020000040000fa
:1017200006d128b9f54203d800d30ab96d0d09d105
:101730000020c143090dc904f0bdf9d11242f7d10f
:10174000640df5d00020c14349054908a6e00020fa
:101750006146f0bdf0b50127ff070e005e403e4038
:10176000b446be0a4c18dd18f442d9d2f542e4d290
:10177000640decd06d0dead06419c9023943460df1
:10178000c0023143db023b43db0a10b48e4685b214
:1017900097b26f43140c6c433e0ca419260c24041e
:1017a000bfb227439cb26c43a419190c6943250ca2
:1017b000a4b249190d04090c6419000c95b24543f3
:1017c0003e0c76193743bfb2360c150c4543ad19a4
:1017d000a6b2240cad192e0437432e0c36199db237
:1017e0004543ad19acb22e0c89191d0c45436d183b
:1017f0002e04290c3443704680b295b245433e0c0a
:1018000076193743bfb2360c150c4543ad19a6b255
:10181000ad19240c2e0437432e0c36199db24543c6
:10182000ad19acb22e0c89191d0c45436d182e0450
:101830003443290c75462d0c90b268433e0c801938
:101840000604bfb23e43070ca0b23f18120c6a4315
:10185000d019020c80b2240ca4189ab26a4312194f
:1018600014042043120c89181b0c6b43c91810bcbc
:1018700001273d05294203d1b61940414941013ca8
:10188000ff077d0d013d641b0bdb6d00ac4209dae7
:10189000240500254208be41684161416646314346
:0618a000f0bd54e74ee725
:020000040000fa
:0218a600fee75b
:020000040000fa
:1018a800f0b587b0039003a801f040fb002802dae6
:1018b800002007b0f0bd039b1b095d1e202d0ad92f
:1018c80040f2ff12023b934224d84d4adb089b1892
:1018d800043b1d7801352a000120002101f022ff78
:1018e800002443428c4100930194464c009822689e
:1018f80063681040020001990b401a43f2bb039b36
:1019080005a81033059301f019ff50b90c223e4b7e
:101918001a60cee73a4adb099b18043b1d7811355b
:10192800d9e73a490c68a04206d0059b0400103b51
:1019380005930123103483600125059be2180a6092
:101948002b43083a083c28c26360002cb0d0200022
:1019580001f030fd58b123686168ab43e31a5a6857
:10196800aa4352185a606168a94362501c002000bb
:10197800039901f022fe200008309ae7204a244902
:101988003c3290bb584203404b43db0ed65c2036ba
:10199800300001f087fe731cdb001a4ae458083b4c
:1019a8009b189c42a1d0272e25dd0235ae4201dcd2
:1019b8003f2e20d101226368039f9343dd1b28003b
:1019c800009301f08ffb864215d1e268a168e31904
:1019d800da60996093609a68d360012217431f60a8
:1019e8005d60009be5506760c1e7434203404b439d
:1019f800db0ed65ccce73100200001f057f9b6e7e2
:101a0800542b000010040020500700200804002078
:041a180029e66b0749
:020000040000fa
:101a1c00f0b58fb00d934b680c9006938b680d004e
:101a2c000793cb6816000393069b0f68002b42dbd1
:101a3c0002239f4310233b400a93079b04930a9b6a
:101a4c003bb1726833681343079a13b11300023b1e
:101a5c00049308233b400b935a1e9341049ad31ac8
:101a6c0004933368039a0893736809932b695c1e7b
:101a7c0000231355069b0593012c1fdc0a9b002b9e
:101a8c0051d10b9b1bb12023039a013c13552b699d
:101a9c0000975a1e039b121b19190c98079b00f0f8
:101aac00c0fd0c9b5b68db0503d56b68984200dac4
:101abc0018000fb0f0bd01230693bbe7089b099af1
:101acc00134363b9059b002b09dc069a049b9b1af4
:101adc00059a9b18002bd1dd02231f42ced00f227a
:101aec00089b013c134018005730092b01dc3033a4
:101afc0018000d9b413b192b06d820230343613b57
:101b0c00192b01d801f0a9fe039b1855059b013b2d
:101b1c000593099b1a07089b1b091a43099b0892fa
:101b2c001b090993a8e70cce1343002ba9d0039be8
:101b3c000d9a1b19013b1a703023039a023c135562
:021b4c009fe711
:020000040000fa
:101b4e0041f20003c4f2000302221a7641f200436e
:101b5e00c4f2000300221a7441f60043c4f20003db
:101b6e000632ff32c0f204025a6241f60042c4f25b
:101b7e000002082153681942fcd141f60043c4f219
:101b8e00000380224121995041f60042c4f2000226
:101b9e008020013913581942fcd041f20003c4f2df
:101bae00000320225a631f321a6341f20002c4f26c
:101bbe0000023c200421135c0b42fcd141f20003d5
:101bce00c4f200032c220221995441f20002c4f205
:101bde0000023c20135c0b42fcd141f20002c4f225
:101bee00000240200321135c0b40032bfbd141f676
:101bfe000043c4f2000340f20712c0f202021a625e
:101c0e0041f60042c4f20002042153681942fcd18d
:101c1e0041f60043c4f20003b0224021995041f630
:101c2e000042c4f20002b02013581942fcd041f613
:101c3e000043c4f20003b4224021995041f6004201
:0e1c4e00c4f20002b42013581942fcd07047b3
:020000040000fa
:101c5c00f0b585b00f246c440223237043f63d018c
:101c6c00c0f200010022152001f054fb002000f00e
:101c7c000dff42f22070c0f20000603001f04cfc0d
:101c8c002378012b48d00f236b441b780f276f440c
:101c9c00002640f65805c2f200053e7040f25c7317
:101cac00c2f200030224009401222249402001f0d8
:101cbc001bf900f0f3fc40f26873c2f20003e91c5c
:101ccc0000940122402001f00ff901f0d5fa40f206
:101cdc006073c2f20003291d00940122402001f020
:101cec0003f901f0e3fa40f26473c2f20003691dd8
:101cfc0000940122402001f0f7f801f0f1fa40f2d3
:101d0c005873c2f20003691c00940122402001f0b8
:101d1c00ebf800f00afcc0e70e336b4400221a709b
:101d2c0040f66001c2f200010332402001f03cf9a0
:081d3c00ace7c0465a08002084
:020000040000fa
:101d4400f0b5d6464f464646c0b5bff35f8f62b680
:101d54004ef20013cef2000340f200315a58120240
:101d6400120ac020000602435a5008221a6040f2a8
:101d740018355a59284989460a40c02109048a4617
:101d84000a435a518022d2041a605a591202120a82
:101d940002435a51802212051a6040f21c329d58a7
:101da40040f2ff0c61468d43c0273d439d50802582
:101db4006d051d609d58194e3540a8464cf200052e
:101dc40041462943995080218905196099584c4608
:101dd4000c40210054460c439c508021c9051960d5
:101de4009c582402240a2043985052071a6040f257
:101df400203019586246914339431950fe3a5a60cb
:101e04001a5832402a431a5002225a601cbc904687
:101e14009946a246f0bdc046ffff00ffff00ffff4a
:020000040000fa
:101e2400f7b5002856d00838436801221e009643af
:101e340085192a680400934200d0ffde22686b688b
:101e44001340012213420fd1200001f0b5fa0028fb
:101e540041d1280001f0dffa0028efd001226b689d
:101e64009343f618ed18e9e7012333436360300028
:101e74002b6001f039f9019001f016fc22686b68bf
:101e8400134001221342dfd0174f019a3868796852
:101e940001f03efc012318420dd1019a01200021da
:101ea40001f042fc0b0010b13a6802433a6013b1ee
:101eb4007b680b437b60019b0b4a0133db009b185f
:101ec4001a005b68083a66602e60e360a260d46022
:101ed400e3689c60f7bd012223689343e41a6368b6
:0c1ee4009343f618b5e7c0461004002038
:020000040000fa
:101ef000f0b40125ed070c005c402c40a446ae0a6e
:101f00004c18df18f4423dd2f74244d2640d4ad057
:101f10007f0d3bd0e41bc9022943cf0adb022b43d0
:101f2000db0a0600b61a9f4104d2013cb6197f4174
:101f3000b6185f416812800d241836dd00188442ff
:101f400024d8e80c0021b6197f41b61a9f4103d36b
:101f500040414941f7d304e0b6185f4100184941b8
:101f6000f1d32405b6197f41b61a9f4105d33743f3
:101f7000c20717430022012f5041614162461143bd
:101f8000f0bc70470ad148b9f74207d20020c143dc
:101f9000490d0905f2e70ab9f74206d00020c1430e
:101fa000090dc904ece77f0df8d000206146e7e792
:020000040000fa
:101fb00040f2fd724b005b0df0b55c1e944242d8be
:101fc000284a9e182ad4332e27dc274a9b182ed461
:101fd000120cc0f20f02da404ff6ff730700c0f296
:101fe0000f039743f3403c000f00024019409f430a
:101ff0000a433d007ab1002f0dda20235b42f1182d
:1020000029d480204003c840020080214903f140c8
:102010000b00a4185d4120002900f0bd002000291c
:1020200001db0021f9e70021cbf6f071f5e7202272
:102030004ff6ff73921bc0f20f03934001225242ee
:10204000f2401a43c8e7002be7d10022c90fcb07a3
:1020500010001900e1e720218020891b40038840ff
:0c2060000200d2e701fcffffe1fbffffe4
:020000040000fa
:10206c0030b405004d400124e407254042004b00ec
:10207c00120e32d01b0e3cd0ff2a33d0ff2b3fd098
:10208c00d21800022043000a09022143090ac4b2f3
:10209c004c43000ac3b24b43000a4843210a5b1865
:1020ac00190a091801d44900013a080a7f3a2adbb7
:1020bc00fe2a0fd2d2051c43240601d00124214351
:1020cc00c9b280295041802901d1400840002843e1
:1020dc0030bc7047ff20c005f9e71b0eff2b0ad060
:1020ec002800f5e7400206d1ff2bf3d1490202d1bb
:1020fc00f0e7ff2af4d17f2000010c300005e7e760
:10210c004902f8d1e6e743020132e9d15b1202330e
:06211c00e6d9d805e4e756
:020000040000fa
:1021220010b588293ad014dc81294ad003dc8029f1
:1021320047d0002010bd822910d08429f9d1196816
:102142002ab30a1d1a6000228b5e0360db1743600c
:1021520010e0a0292ed00fdc9029ead119680724bb
:102162006ab30919a1430a0008321a600b684c6865
:10217200036044600120dde7c02901d0f029d8d1f5
:102182001a68111d1960136803600023dfe70c1d34
:102192001c600b689bb203604260ebe7196822b1d6
:1021a2000a1d1a600023cb56cfe70c1d1c600b687a
:1021b200dbb2f0e71a68111d19601368c5e7073131
:1021c200d0e719681ab10a1d1a600b68bde70c1d29
:0621d2001c600b68dfe752
:020000040000fa
:1021d800f0b54b6889b005930b6807009c460793d8
:1021e800cb680c008e6810685168cd0f0493002de1
:1021f80041d00b000200002150429941059b002b61
:1022080007db022263469343079315b9079b5a07d6
:1022180028d5731e07aa02920a22009301920b0086
:102228000200200000f000f915b9079b5a071dd5d8
:1022380001382d2305b9023b049a135423695a1e09
:10224800049b121a1918079b38000093330000f0fa
:10225800eaf97b68db0503d56368984200da180061
:1022680009b0f0bd1b07db0ff31ad3e71b07e5d551
:0e22780001382023e0e7059b002bc2dac6e701
:020000040000fa
:1022860030b405004d400124e407254042004b00d0
:10229600120e26d01b0e34d0ff2a2dd0ff2b35d0a0
:1022a600d21a000220430902214343084908a00d1f
:1022b6005b1a02d2013a5b005b185b008b4200d3cb
:1022c6005b1a4041f9d37f3222ddff2a06d2d205be
:1022d600c91a8b425041284330bc7047ff20c005c5
:1022e600f9e71b0e03d0ff2b12d1490210d07f2035
:1022f60000010c300005efe74002f8d1ff2bedd1cd
:10230600f5e7ff2aead14002f1d1e7e74902eed12b
:042316002800e1e7d3
:020000040000fa
:10231a0040f60003c4f2002301221a60d202c4f27a
:10232a000022d369002bfcd140f60003c4f200233b
:10233a0040f200125a60d200c4f20022d369002b84
:10234a00fcd140f60003c4f200239922da60833af2
:10235a00c0f210021a6040f60002c4f20022d369e9
:10236a00002bfcd140f60003c4f2002310225a834a
:10237a00d201c4f20022d369002bfcd140f2f863e7
:10238a00c2f20003002221215a5401395a5440f65c
:0c239a000003c4f2002383329a757047e0
:020000040000fa
:1023a60070b500283fd040f2c863c2f200031a7d20
:1023b6000023a2bb40f2c863c2f200031860596052
:1023c60001321a7540f60043c4f200231b7edb0778
:1023d60018d531b3002340f60044c4f20024072682
:1023e600012507e0c25c22850133227e2a420ad0fb
:1023f600994208d962683240012af3d15a00825aba
:102406002285f1e7002340f2c862c2f2000293601f
:1024160040f60043c4f2002301229a7501231800f6
:0a24260070bd0b00efe70023f9e79b
:020000040000fa
:10243000f0b5050085b019000c9b100001931a68d7
:102440002b696c68013bef681d00002c00da012449
:1024500040f2000c664640f2020cfe540a9e012334
:10246000361b0296664616400b9ad2170392002d31
:1024700003dcbbb1280005b0f0bd02000a433ab945
:10248000002c05dc029a1219002af2dd002ef0d091
:102490000b9a039b00f06efd013d130030327a551c
:1024a000013ce4e71023019a12689a431300019a51
:0424b0001360dfe7ef
:020000040000fa
:1024b400f0b51600050002278369426987b00293cc
:1024c400d31a03939b1904910596019302ac3a0025
:1024d4002100286801f04cf8019b984208d1ab68b0
:1024e400ea68ab619a18aa626b61300007b0f0bd6c
:1024f40000280cda102200236968ab620a43ab613e
:102504006b616a60022f12d06368f61aede7019bd3
:102514001b1a01936368984202d9c01a0834013f18
:1025240023681b1823606368181a6060cfe71e00d5
:02253400dbe7e3
:020000040000fa
:1025360010b540f25873c2f200031c782402587892
:10254600044342f22070c0f20000043001f07df82e
:10255600200001f058f823b2002b11dba00801f08f
:102566001af8f4218905fff77efd01f03af881b2e9
:1025760042f22070c0f200001c3001f066f810bd77
:10258600604280b2800801f006f842f20041c4f2cf
:10259600f461fff775fe00f029fd010042f220709c
:0c25a600c0f20000143001f050f8e8e72b
:020000040000fa
:1025b200f8b5846a05000f00160054b1ab6a6a6967
:1025c2009b1ab3420cd2320039002800fff771ff88
:1025d20005e001f092f803002000002beed0f8bdd8
:1025e200002ef0d02b0034331b785bb2002b1bdba8
:1025f2003400dbb2621eb95c994212d1220039006a
:102602002800fff756ffa042e9d33f19341b2200ee
:102612003900686901f0c6f86b6930001c196c61f9
:0c262200dde71400002ae5d13400f0e7e9
:020000040000fa
:10262e00f0b51d00012389b014000e9a06001a4061
:10263e00039102920ab9a5420ad8220003993000ea
:10264e0000f0e0fda54203d82500280009b0f0bd3a
:10265e002f1b01973a00102f00d91022202104a819
:10266e0001f0c5f8019b0f2b0ed80f2204a93a409a
:10267e00300000f0c7fd029b002be6d1220003992b
:10268e00300000f0bffde0e7102204a9300000f09a
:0a269e00b9fd019b103b0193e4e736
:020000040000fa
:1026a80010b540f25c73c2f200031c78240258781b
:1026b800044342f22070c0f20000243000f0c4ff4e
:1026c800200000f09fff23b2002b11dba00800f0d0
:1026d80061fff4218905fff7c5fc00f081ff81b295
:1026e80042f22070c0f200001c3000f0adff10bdb7
:1026f800604280b2800800f04dfff4218905fff7a1
:10270800b1fc00f06dff81b242f22070c0f200000f
:08271800143000f099ffeae71c
:020000040000fa
:1027200025640000546f626a2054656d70203a2061
:10273000000000003d3d2d25642020003d3d256426
:102740002020000054616d622054656d70203a2095
:10275000000000004d616e7566616374757265728c
:10276000204944203a200000446576696365204989
:1027700044203a20000000003d3d256420200a004e
:102780000d0a2053797374656d20496e697469610f
:082790006c697a6564200d00fc
:020000040000fa
:1027980010b540f2f863c2f2000300229a61da61d0
:1027a80040f60003c4f2002383321a765a68144ca8
:1027b80022405a6040f60002c4f20022d369002b7e
:1027c800fcd1a9b140f2f863c2f20003202203242d
:1027d8009c544000084340f60003c4f200235862aa
:1027e80040f60002c4f20022d369002bfcd110bdd0
:1027f80040f2f863c2f20003202204249c54e8e764
:04280800fffffbffd4
:020000040000fa
:10280c0042f60003c4f200031a7801210a431a703d
:10281c0042f60002c4f20002012153681942fcd1b5
:10282c0042f60001c4f200010023cb6101330b61bd
:10283c0040f21863c2f2000310221a7215201875a8
:10284c000b301a540c301a540c301a540c301a54d5
:10285c000c301a540c301a540b78022213430b70a0
:10286c0042f60002c4f20002022153681942fcd164
:02287c007047a3
:020000040000fa
:02287e00fee773
:020000040000fa
:1028800040f60043c4f2002340f20412c4f21002e6
:102890001a60164a9a81c02292025a6040f600429b
:1028a000c4f20022d369002bfcd140f60043c4f2ed
:1028b00000231a6802210a431a6040f60042c4f25b
:1028c0000022d369002bfcd140f2c863c2f200039e
:1028d00000229a61da611a622c215a545a621a60f3
:1028e0005a609a601a75da60da85704741f1ffff25
:020000040000fa
:1028f0000021f0b5174b184a934208d340f20b0c55
:102900000027164a1368516823b919b9f0bd197028
:102910000133f1e7100095680c305c18b5b16546dd
:10292000ed1a5219a3420ad10b00032213405a1e7a
:10293000934189085918890040180200e2e75d1c9c
:10294000ae5c1e702b00ede71f700133a342fbd17c
:10295000f3e7c046000000200000002048130000fc
:020000040000fa
:10296000f0b50b680c008f68cd68496887b0060029
:102970000593002902db02218b43059305a95368c7
:10298000126802910821009701912000fff750fd85
:10299000059bdb0602d5302301382b54059b1b0712
:1029a00002d5202301382b54236929185a1e059b70
:1029b000121a009330003b00fff739fe7368db0505
:0e29c00003d56368984200da180007b0f0bd36
:020000040000fa
:1029ce0010b584291fd007dc812915d0822922d089
:1029de00802911d0002010bd90291cd008dc882938
:1029ee00f8d119680c1d1c600b6803601a7010e09a
:1029fe00a02901d0c029edd119680c1d1c600b68ef
:102a0e0003601a6005e019680c1d1c600b680360fa
:102a1e001a800120dfe719680c1d1c600b6803602b
:082a2e001a60d2175a60f4e7a8
:020000040000fa
:102a36007fb51600c2680d0013000091591e8b4128
:102a4600f31a019383680400039269460222006820
:102a5600029300f078fd002808dc182208230240c3
:102a6600534062681343636006000fe0019b834294
:102a7600fad2a268c01ae3681018e26320642bb188
:102a8600531ce3631378ad19013d2b70300004b07d
:022a960070bd11
:020000040000fa
:102a980010b544f20003c4f2001304225a6000f097
:102aa8007bfb40f27073c2f200031b6818680021b8
:102ab80000f06cfe40f65403c2f200031b6818686d
:102ac800002100f063fe00f0f1f9fff73cf800f098
:102ad8004bfefff7d1fefff71cfcfef74ef9fff7a0
:0e2ae80091fe152000f076fefff728f910bdd4
:020000040000fa
:022af600fee7f9
:020000040000fa
:102af80000230e4a10b513600d4a0e4c13600e4a9f
:102b080013600e4a13600e4a13600e4a5362136133
:102b18000133936000f066fe00f093fb0a4b9c4281
:102b280000d310bd08cc9847f8e7c0464c070020f2
:102b3800840600200001000080060020780600209e
:0c2b48007c06002088060020040100002c
:020000040000fa
:102b5400202122232424252526262727282828281f
:102b6400292929292a2a2a2a2b2b2b2b2c2c2c2cb9
:102b74002c2c2c2c2d2d2d2d2d2d2d2d2e2e2e2e81
:102b84002e2e2e2e2f2f2f2f2f2f2f2f00011702f7
:102b94001d1813031e1b190b1408040d1f161c12f9
:0c2ba4001a0a070c1511090610050f0e87
:020000040000fa
:102bb00070b504000d0008b9002070bd43689b0685
:102bc00007d543698269934215d80023a362a361a4
:102bd0006361e16b236c994204d2c91a0122206817
:102be00000f06cfe00232364e363002de4d0206832
:102bf00000f05cfee1e70022c36a110098476369b8
:0a2c0000002be2d101204042d7e78b
:020000040000fa
:102c0a00f0b50b680c008f68cd68496887b006007c
:102c1a000593002902db02218b43059305a953681a
:102c2a00126802910a21009701912000fff7fbfb2d
:102c3a00236929185a1e059b121a009330003b007b
:102c4a00fff7f0fc7368db0503d56368984200da86
:062c5a00180007b0f0bdf8
:020000040000fa
:102c600010b543f2eb03c0f20003984743f2eb03c5
:102c7000c0f20003984700f008fe40f20003c0f2e3
:102c800000037f2293434ef60052cef2000293607f
:102c900042f6f923c0f20003984743f2eb03c0f277
:102ca0000003984743f2eb03c0f200039847fef796
:042cb000d5fffee767
:020000040000fa
:102cb40070b5c668856804000a00ae4211d10120cf
:102cc400002100f031fdc043c943431c03d00b4b2a
:102cd4001a68104018604b1c03d0084a5368194006
:102ce4005160012319006268b56011439a43ee6094
:102cf4006160a41822681343236070bd100400208f
:020000040000fa
:102d040070b5040016001d00022a1ad043689b0601
:102d140017d439b90db940f2004528000830fef740
:102d2400c1fd010020236268a16013436360230096
:102d3400e5603433ff22012e00d10a221a70024bbf
:0c2d4400e362002070bdc046b325000013
:020000040000fa
:102d500037b56b46dd1d836a0400297063b1636972
:102d6000a26a93420fd3e36a012229002000984708
:102d7000012805d1287805e000f0c0fc0028eed03d
:102d8000012040423ebd220034321278287852b2ef
:0c2d90009042e8d05a1c62611870f3e712
:020000040000fa
:102d9c00f0b50f00150087b0039007220e4904a868
:102dac001c0000f0fafcbb687e6802933f6805b912
:102dbc0004ad1cb9280000f042fd0400002e02db1b
:102dcc00b44200d934000097029b220029000398da
:0c2ddc00fff727fc07b0f0bda438000092
:020000040000fa
:102de80070b504000d00e8b140f2c863c2f20003f8
:102df8002c229b5c002003b170bd00f0eaf940f280
:102e0800c863c2f200039c61dd6100221a622c21b2
:102e180001205854da8540f60043c4f20023843276
:082e28009a75e9e70020e7e7d5
:020000040000fa
:102e300030b401256d054c00e54215d85c00e54233
:102e400012d80c001c436400044314430fd005d275
:102e500082428b418041013030bc704790429941a1
:102e60008041013030bc7047002030bc70470120e9
:042e700030bc7047bb
:020000040000fa
:102e740010b5054c227832b9044b13b1044800e074
:102e840000bf0123237010bd2407002000000000b0
:102e940000000000034b10b51bb10349034800e0d8
:102ea40000bf10bd00000000280700200000000043
:020000040000fa
:102eb40043f20003c4f2000380221a601a61393a13
:102ec40002219954463a46315a5401315a54073131
:102ed4005a5401315a5405315a54233900225a5450
:102ee4003420195405311238585403315a54704758
:020000040000fa
:102ef40070b5050040f2f864c2f200042020245c9e
:102f0400002004b170bd40f2f864c2f20004a58050
:102f1400e360049b6361a16022610023a3702370ba
:102f24002122a35400212800fff734fc0120e9e703
:020000040000fa
:102f34000c4a036810b5546a0b4a591e121b91427d
:102f44000ad92bb10c220120084b40421a6010bd53
:102f5400102202600020fae70f2217339343036024
:102f6400f8e7c04688060020efffff7f50070020e7
:020000040000fa
:102f7400002b11d1002a0fd1002900d1002802d042
:102f84000021c943081c07b4024802a1401802905a
:102f940003bdc0462109000003b4684601b5029888
:102fa400fdf760fd019b9e4602b00cbc7047c04615
:020000040000fa
:102fb40070b5050040f2f863c2f2000320201b5ce8
:102fc400002003b170bd40f2f863c2f200039d809b
:102fd4000024dc605c6199601a619c701c70212281
:0e2fe4009c5400212800fff7d5fb0120eae7ee
:020000040000fa
:102ff2004200110e7f390fd40123db0749421f31f2
:103002000cdd400003d2c0011843c8407047c00124
:103012001843c8404042704700207047ff2109060c
:0e3022008a4200d99843184000d4d843704722
:020000040000fa
:10303000030010b51a78202a0dd01100093904298f
:1030400009d900212b2a02d02d2a01d101310133c7
:1030500000200a2404e00133ece760430133801ac6
:0e3060001a78303a092af8d901b9404210bd59
:020000040000fa
:10306e0030b401256d054c00e54215d85c00e542f3
:10307e0012d80c001c436400044314430cd005d238
:10308e0082428b418041404230bc70479042994110
:0e309e008041404230bc7047002030bc70477b
:020000040000fa
:1030ac0030b401256d054c00e54215d85c00e542b5
:1030bc0012d80c001c436400044314430cd005d2fa
:1030cc00904299418041404230bc704782428b41d2
:0e30dc008041404230bc7047002030bc70473d
:020000040000fa
:0230ea0070472d
:020000040000fa
:1030ec000309013b1800202b08d940f2ff12934230
:1030fc0005d8094adb089b18043b1878704741f641
:10310c0000423f209342f9d8034adb099b18043b49
:0c311c0018781030f2e7c046542b000079
:020000040000fa
:103128000b00496810b50200890603d4190000f0a5
:103138000df910bd190034310978c0b249b2814285
:1031480007d059699c6aa14203d24c1c5c610a7081
:0c315800efe711001800fff7f7fdeae7b1
:020000040000fa
:103164001c2101231b04984201d3000c10391b0ab3
:10317400984201d3000a08391b09984201d3000977
:10318400043902a2105c40187047c04604030202ce
:0c3194000101010100000000000000002b
:020000040000fa
:1031a00040f20043c4f2000300221a819a790121ff
:1031b0000a439a719b7803221340022b0cd040f2f1
:1031c0000043c4f20003013a9a705202c4f20002b2
:0a31d000012193790b42fcd07047f7
:020000040000fa
:1031da0040f60043c4f200235b8b5b0713d040f632
:1031ea000043c4f2002380221a76793a5a831b7e5e
:1031fa005b0708d540f60043c4f2002304211a8d68
:08320a001a7e0a42fbd1704755
:020000040000fa
:10321200436870b50400d80510d52569954200d9d8
:1032220015002a00606900f0bdfa226963695b1922
:10323200551b0022636125611a7070bddb06fcd448
:08324200200000f0b8faf8e7e3
:020000040000fa
:02324a007047cb
:020000040000fa
:10324c00f0b5040000200b4e4200955d1db9094bf2
:10325c00d2185078f0bd216801300f78c0b2af425f
:10326c0004d1044b0131d218507821600a28ebd9d3
:08327c00f0e7c046c83600006f
:020000040000fa
:1032840070b540f26873c2f200031d782d025b78ba
:103294001d4342f22074c0f200042000343000f0d8
:1032a400d5f9280000f0b0f920001c30290000f006
:0432b400cdf970bd23
:020000040000fa
:1032b80070b540f26073c2f200031d782d025b788e
:1032c8001d4342f22074c0f200042000343000f0a4
:1032d800bbf9280000f096f920001c30290000f006
:0432e800b3f970bd09
:020000040000fa
:1032ec0070b540f26473c2f200031d782d025b7856
:1032fc001d4342f22074c0f200042000483000f05c
:10330c00a1f9280000f07cf920005830290000f0c9
:04331c0099f970bdee
:020000040000fa
:1033200030b543001b189b0040f21864c2f2000441
:10333000a44663441b7a834200d030bd40f2186437
:10334000c2f2000443001d18ad002951280060445a
:043350004260f2e7fe
:020000040000fa
:1033540013b50b006a46d41d5a68c1b22170d20558
:1033640005d55a69c0b2541c5c61117016bd0122a6
:103374002100180000f01efa08b12078f6e70120b9
:043384004042f3e7e9
:020000040000fa
:10338800f4464a1805d200f02ff801d5c0174008b6
:10339800604701235b05d34206d200f025f801d52a
:1033a8000120c0074042604701d10042f5d0d01744
:0433b8004008704712
:020000040000fa
:1033bc00f8b5050001262c68344201d000200ee03f
:1033cc002000fff78dfe070000f06af92868a04284
:1033dc00f1d1b043281a3900fff766fc0120f8bd83
:020000040000fa
:1033ec004a0010d2520d03231b02ff33d21a0ad407
:1033fc0052421f3209d4400dc90208430123db0796
:0e340c001843d040704700207047d01770471b
:020000040000fa
:10341a00f8b5050001276c683c4201d000200de098
:10342a002000fff75efe060000f03bf96b68a3423e
:0e343a00f1d128003100fff738fc0120f8bd69
:020000040000fa
:1034480070b4012676054c005d00e6420cd8ee42c9
:103458000ad825430543154303d0994204d1904225
:0e34680002d1012070bc7047002070bc70477c
:020000040000fa
:0234760070479d
:020000040000fa
:10347800074b0200196809b9064919601868064916
:1034880082188a4201d81a60704701204042fbe73f
:0c3498005407002068080020680a00208b
:020000040000fa
:1034a400020000234832d356591e0b4313700423e1
:1034b400426813402bb11023134343600120404260
:0a34c40070470364c3631800fae7c1
:020000040000fa
:1034ce0070b5140016000a004e430d00511e8a41bd
:1034de005242144001003200180000f066f9864294
:0a34ee0001d0b0fbf5f4200070bd22
:020000040000fa
:1034f800002380290fdb812901dd83290bd10721d6
:10350800136807338b431900083111601a685b6828
:0a35180002604360012318007047b1
:020000040000fa
:023522007047f0
:020000040000fa
:1035240010b5084c2368196800f07ff801230028bf
:1035340005db23680a20196800f0a9f9c30f584273
:0835440010bdc0465408002030
:020000040000fa
:10354c00f7b5002507000c002e000192019b9e424e
:10355c0001db2800febd62682168380000f082f8ab
:08356c0001362d180834f1e7c7
:020000040000fa
:10357400f7b5002507000c002e000192019b9e4226
:1035840001db2800febd62682168380000f07df888
:0835940001362d180834f1e79f
:020000040000fa
:10359c00c20f12029d3201000cd001d5494202d457
:1035ac00013a4900fcd5d205080a0906494100d365
:0635bc0001295041704797
:020000040000fa
:1035c200012370b544689c43651a102d0ad942182c
:1035d20019432b43116053600832035141601000bc
:0635e200fef71ffc70bda6
:020000040000fa
:1035e80041000dd2090e7f390ad449421f3105d452
:1035f80000020122d2071043c8407047c81770471d
:0436080000207047e7
:020000040000fa
:10360c00f8b507000f24012642f22075c0f2000520
:10361c00390021413140280000f014f8013cf7d268
:02362c00f8bde7
:020000040000fa
:10362e0070b50e00050000f009f933000400020029
:10363e0001212800fff744ff001b431e9841404222
:02364e0070bd4d
:020000040000fa
:103650000fb407b5054b04aa1b6802ca186801928b
:1036600000f040f803b008bc04b01847540800202c
:020000040000fa
:1036700010b503000c00002043b9180032b101213d
:0e3680002000fff7b1fb0028f9d0012010bd9b
:020000040000fa
:10368e0070b50d001400012801d0200070bd21007e
:0c369e002800fef781fe0028f9d0f6e7b6
:020000040000fa
:1036ac00054a0130c00083582bb90300083b9b1816
:0c36bc0081184b60835070471004002000
:020000040000fa
:1036c80068076c094c836a9074a07ac00080688887
:0c36d80000846c820081286e696c29005f
:020000040000fa
:1036e40013b50400019201aafdf74afb6368db06e7
:0836f40001d50120404216bd82
:020000040000fa
:1036fc0010b50400fff7d0fe28b9a368e268a361f7
:08370c0063619b18a36210bd6c
:020000040000fa
:10371400d0400b1cd1409c46203ad340184352421f
:1037240063469340184370479140031c90409c4665
:10373400203a9340194352426346d3401943704799
:020000040000fa
:10374400006810b5002801da002010bdfff792fed2
:06375400431cfad1f8e766
:020000040000fa
:10375c0010b500f09df8024b1860586010bdc046c3
:04376c0040070020f2
:020000040000fa
:1037700044f20003c4f2001302225a60013a1a72a2
:02378000704790
:020000040000fa
:10378200f0b40125ed076b4041f25f54c0f2000432
:023792002047ce
:020000040000fa
:103794004a424a4110b5520040f20043fff7b0fae2
:0237a40010bd56
:020000040000fa
:1037a600002310b59a4200d110bdcc5cc45401333d
:0237b600f8e732
:020000040000fa
:1037b800c36a10b50bb1984710bd0068fff763ffe7
:0237c800fae71e
:020000040000fa
:1037ca0003000a7818001a7001310133002af8d16f
:0237da00704736
:020000040000fa
:1037dc000123834042f60002c4f2000213617047d9
:020000040000fa
:1037ec0010b5fff7b5fffff740fefff73efe10bd2b
:020000040000fa
:1037fc0003001218934200d1704719700133f9e796
:020000040000fa
:10380c00494e4600696e66004e414e006e616e0078
:10381c00494e4600696e66004e414e006e616e0068
:020000040000fa
:10382c0010b5fdf791ff029a039bfdf78ffe10bdbb
:020000040000fa
:0e383c0043f20003c4f200038022da617047f9
:020000040000fa
:0e384a0003001a780ab9181a70470133f9e71b
:020000040000fa
:0e3858000300413b192b01d820231843704771
:020000040000fa
:0e3866000300613b192b01d85f231840704707
:020000040000fa
:0c38740010b50400fff7a7ff200010bdf6
:020000040000fa
:0a38800010b50068fff703ff10bd4c
:020000040000fa
:08388a0010b5fff730f810bd86
:020000040000fa
:0838920010b5fff748fc10bd62
:020000040000fa
:08389c0000487047d807002026
:020000040000fa
:0738a400286e756c6c290011
:020000040000fa
:0638ac00012040427047bc
:020000040000fa
:0438b200002070473b
:020000040000fa
:0438b8007047c0464f
:020000040000fa
:0438bc000020704731
:020000040000fa
:0200000400807a
:044000007f438fb0bb
:020000040000fa
:0200000400807a
:04400400bbfcffff03
:020000040000fa
:0200000400807a
:04c0040000ffffff3b
:020000040000fa
:0200000400807a
:04c04000ffffffff00
:020000040000fa
:0200000400807a
:04c04400fffffffffc
:020000040000fa
:0200000400807a
:04c04800fffffffff8
:020000040000fa
:0200000400807a
:04c04c00fffffffff4
:00000001FF
