:020000040000fa
:10000000f03f0020f50800004f0c0000510c0000ec
:1000100000000000000000000000000000000000e0
:10002000000000000000000000000000ab0b00001a
:100030000000000000000000ab0b0000ab0b000054
:10004000ab0b0000ab0b0000ab0b0000ab0b0000d8
:10005000ab0b0000ab0b0000ab0b0000ab0b0000c8
:10006000ab0b0000ab0b0000ab0b0000ab0b0000b8
:10007000ab0b0000ab0b0000ab0b0000ab0b0000a8
:10008000ab0b0000ab0b0000ab0b0000ab0b000098
:10009000ab0b0000ab0b0000ab0b0000ab0b000088
:1000a000ab0b0000ab0b00001501000015010000b8
:1000b0001501000015010000ab0b0000ab0b0000a8
:1000c000ab0b0000ab0b0000ab0b0000ab0b000058
:1000d000ab0b0000ab0b0000ab0b0000ab0b000048
:1000e000ab0b0000ab0b0000ab0b0000ab0b000038
:0400f000ab0b000056
:020000040000fa
:1000f400f8b5c046f8bc08bc9e4670476d090000c0
:10010400f8b5c046f8bc08bc9e46704749090000d3
:020000040000fa
:1001140010b540f60003c4f200239b7d1bb340f6e8
:100124000003c4f200235b8b9b071dd540f25003f0
:10013400c2f200032022ff2199540132fd3999545f
:1001440040f25003c2f2000320229b5c5bb20133f5
:1001540000d1e1e040f25003c2f2000320229b5c94
:10016400062b00d103e110bd40f60003c4f20023c6
:100174005b8bdb070ad540f25003c2f20003202256
:10018400ff2199540132fd399954d9e740f600030f
:10019400c4f200235b8b5b070ad540f25003c2f222
:1001a40000032022ff2199540132fe399954c7e7f4
:1001b40040f25003c2f2000320229b5c5bb2032b8b
:1001c40072d0042b19d0022bbad140f25003c2f2e0
:1001d40000031b6943b140f25003c2f20003988844
:1001e400002100f0affaabe740f25003c2f2000383
:1001f4009888012100f0a6faa2e740f25003c2f267
:1002040000039a691b699a4215d040f25003c2f266
:10021400000399688c5c40f60001c4f20021282098
:100224000c5401329a6140f60002c4f20022d369f0
:10023400002bfcd184e740f25003c2f200035b6957
:10024400d3b140f25003c2f200039b885b00012249
:100254001343d202c4f20022536240f60002c4f2f5
:100264000022d369002bfcd140f25003c2f20003f8
:1002740020220321995463e740f60003c4f20023cb
:100284005968c02292020a435a6040f60002c4f23e
:100294000022d369002bfcd140f25003c2f20003c8
:1002a4002022062199544be740f25003c2f2000386
:1002b4005a69013adb69934216d040f60002c4f24f
:1002c4000022d369002bfcd140f25003c2f2000398
:1002d400da6940f60001c4f200212820095cd868dc
:1002e40081540132da612be740f60003c4f20023a3
:1002f4005968e022d2020a435a6040f60002c4f26e
:100304000022d369002bfcd140f25003c2f2000357
:10031400202206219954d0e740f25003c2f2000390
:100324000021995440f60003c4f200235968c02206
:1003340092020a435a6040f60002c4f20022d369d2
:10034400002bfcd140f60003c4f2002383221a766a
:1003540040f25003c2f200035a6a002a00d102e7b5
:1003640040f25003c2f20003986a9047fbe640f261
:100374005003c2f20003002220215a5401315a547e
:1003840040f60003c4f2002383321a7640f60002da
:10039400c4f200220f31538b0b40102bfbd140f2df
:1003a4005003c2f200035a6a002a00d1dbe640f28d
:0c03b4005003c2f20003986a9047d4e6a0
:020000040000fa
:1003c00070b584b00f236b4402221a700e236b4465
:1003d00000221a70002000f067fb40f6ac30c0f23b
:1003e000000000f0a1fb04224b4c43f20005c4f2d4
:1003f00000058be00f266e4440f67330c0f200001b
:10040000310000f002fc0023337001220e21694408
:10041000402000f0d9fa0f236b441b78012b06d043
:100420000f236b441b78022be4d001226ee00e33c5
:100430006b4400221a7040f2d001c2f20001063271
:10044000402000f0c1fa0f236b441b78012b06d02b
:100450000f236b441b78022b55d0022256e00e333b
:100460006b4400221a7001320e216944402000f0d2
:10047000abfa0f236b441b78012b11d00f236b4475
:100480001b780322022b41d10d336b4400221a70da
:1004900001320e216944402000f096fa032235e033
:1004a0000f236b4400221a7040f2ac03c2f2000327
:1004b00040f2d001c2f2000102320092402000f06e
:1004c00063fa40f2a003c2f2000318600f236b44ea
:1004d0001b78012b06d00f236b441b78022b12d004
:1004e000052213e040f2ac01c2f2000140f2d0005c
:1004f000c2f200000230022200f049fb18b980234a
:100500006b61082202e08023ab61092293001b1972
:0c051000092afdd819688f46000b000076
:020000040000fa
:10051c0041f20003c4f2000302221a7641f20043b6
:10052c00c4f2000300221a7441f60043c4f2000323
:10053c000632ff32c0f204025a6241f60042c4f2a3
:10054c000002082153681942fcd141f60043c4f261
:10055c00000380224121995041f60042c4f200026e
:10056c008020013913581942fcd041f20003c4f227
:10057c00000320225a631f321a6341f20002c4f2b4
:10058c0000023c200421135c0b42fcd141f200031d
:10059c00c4f200032c220221995441f20002c4f24d
:1005ac0000023c20135c0b42fcd141f20002c4f26d
:1005bc00000240200321135c0b40032bfbd141f6be
:1005cc000043c4f2000340f20712c0f202021a62a6
:1005dc0041f60042c4f20002042153681942fcd1d6
:1005ec0041f60043c4f20003b0224021995041f679
:1005fc000042c4f20002b02013581942fcd07047dc
:020000040000fa
:10060c007c0000201c00000000000000a000002066
:10061c000400000000000000ac00002002000000fc
:10062c0000000000d00000200600000001000000c7
:10063c0001024d4348500000500000202c000000e7
:10064c0000000000a40000200400000000000000d6
:10065c00000000205000000000000000a800002056
:10066c000400000000000000b0000020200000008a
:10067c000100000001000000030000000000000069
:10068c00000000000000000000000000000000005e
:10069c0098000020980000200800000000000000d6
:1006ac00000000000000000044444444444444441e
:020000040000fa
:1006bc0040f60003c4f2002301221a60d202c4f2f5
:1006cc000022d369002bfcd140f60003c4f20023b6
:1006dc0040f200125a60d200c4f20022d369002bff
:1006ec00fcd140f60003c4f200239922da60833a6d
:1006fc00c0f210021a6040f60002c4f20022d36964
:10070c00002bfcd140f60003c4f2002310225a83c4
:10071c00d201c4f20022d369002bfcd140f2500369
:10072c00c2f20003002221215a5401395a5440f6d6
:0c073c000003c4f2002383329a7570475a
:020000040000fa
:1007480010b540f25003c2f2000300229a61da6148
:1007580040f60003c4f2002383321a765a68144c18
:1007680022405a6040f60002c4f20022d369002bee
:10077800fcd1a9b140f25003c2f2000320220324a5
:100788009c544000084340f60003c4f2002358621a
:1007980040f60002c4f20022d369002bfcd110bd40
:1007a80040f25003c2f20003202204249c54e8e7dc
:0407b800fffffbff45
:020000040000fa
:1007bc000021f0b5174b184a934208d340f20b0caa
:1007cc000027164a1368516823b919b9f0bd19707e
:1007dc000133f1e7100095680c305c18b5b1654633
:1007ec00ed1a5219a3420ad10b00032213405a1ed0
:1007fc00934189085918890040180200e2e75d1cf2
:10080c00ae5c1e702b00ede71f700133a342fbd1d1
:10081c00f3e7c04600000020000000200c0600009a
:020000040000fa
:10082c00bff35f8f62b64ef20013cef2000340f2bc
:10083c0018315a5813481040c022120402435a501f
:10084c008022d2041a605a581202120ac0200006e2
:10085c0002435a50802212051a6004315a58ff2064
:10086c0082433f3802435a50802252051a605a582c
:10087c00054802404cf2000002435a508022920577
:0c088c001a607047ffff00ffff00ffff35
:020000040000fa
:1008980000230e4a10b513600d4a0e4c13600e4a21
:1008a80013600e4a13600e4a13600e4a53621361b6
:1008b8000133936000f09df900f0c8f90a4b9c429f
:1008c80000d310bd08cc9847f8e7c046a800002020
:1008d8000c0000200001000008000020000000209b
:0c08e800040000201000002004010000ab
:020000040000fa
:1008f40010b540f65343c0f20003984740f6534303
:10090400c0f20003984700f091f940f20003c0f2ee
:1009140000037f2293434ef60052cef2000293600e
:1009240040f69903c0f20003984740f65343c0f2df
:100934000003984740f65343c0f200039847fff77b
:040944003dfdfee790
:020000040000fa
:1009480010b5054c227832b9044b13b1044800e0c5
:1009580000bf0123237010bd7c00002000000000b0
:1009680000000000034b10b51bb10349034800e029
:1009780000bf10bd00000000800000200000000043
:020000040000fa
:1009880070b5050040f25004c2f200042020245c37
:10099800002004b170bd40f25004c2f20004a580ea
:1009a800e360049b6361a16022610023a37023704c
:1009b8002122a35400212800fff7c2fe0120e9e705
:020000040000fa
:1009c80070b5050040f25003c2f2000320201b5c02
:1009d800002003b170bd40f25003c2f200039d80b5
:1009e8000024dc605c6199601a619c701c70212293
:0e09f8009c5400212800fff7a3fe0120eae72f
:020000040000fa
:100a060040f20043c4f2000300221a819a790121c0
:100a16000a439a719b7803221340022b0cd040f2b2
:100a26000043c4f20003013a9a705202c4f2000273
:0a0a3600012193790b42fcd07047b8
:020000040000fa
:100a400043f20003c4f2000380221a601a61393aab
:100a500002219954463a4e315a5401315a540531c3
:100a60005a54002223395a54053122205854033154
:040a70005a5470471d
:020000040000fa
:100a740013b50b006a46d41d5a68c1b22170d20561
:100a840005d55a69c0b2541c5c61117016bd0122af
:100a94002100180000f0c5f808b12078f6e701201d
:040aa4004042f3e7f2
:020000040000fa
:100aa80010b544f20003c4f2001304225a60fff7a1
:100ab800a6fffff7c1fffff72dfd00f089f8fff74c
:0c0ac800f9fd00f018f8fff7adfe10bdbe
:020000040000fa
:100ad40070b5140016000a004e430d00511e8a41e1
:100ae4005242144001003200180000f09af8864285
:0a0af40001d0b0fbf5f4200070bd46
:020000040000fa
:020afe0070473f
:020000040000fa
:100b0000f403000016040000460400007204000014
:100b1000a0040000cc040000e40400001005000064
:080b2000fe04000006050000c0
:020000040000fa
:100b280010b5084c2368196800f00ef80123002856
:100b380005db23680a20196800f07af8c30f5842c9
:080b480010bdc046cc000020e6
:020000040000fa
:100b500070b50e00050000f05ff8330004000200dd
:100b600001212800fff7b6ff001b431e98414042b9
:020b700070bd56
:020000040000fa
:100b720010b5040000f038f818b90cb10123237045
:0c0b820010bd002cfcd002232370f9e70a
:020000040000fa
:100b8e0030b500240139a24206d0035d01340d5d5b
:0c0b9e00ab42f8d0581b00e0002030bd36
:020000040000fa
:020baa00fee764
:020000040000fa
:100bac000d0a2053797374656d20496e69746961ff
:080bbc006c697a6564200d00ec
:020000040000fa
:100bc40010b500f03bf8024b1860586010bdc046e9
:040bd4009800002065
:020000040000fa
:100bd80044f20003c4f2001302225a60013a1a7266
:020be800704754
:020000040000fa
:100bea0040f25003c2f200032122985cc0b270475f
:020000040000fa
:100bfa0010b5fff7e2ff00f029f800f027f810bd62
:020000040000fa
:0e0c0a0040f25003c2f2000358629962704734
:020000040000fa
:0e0c180003001a780ab9181a70470133f9e779
:020000040000fa
:0a0c260010b5006800f00df810bdd5
:020000040000fa
:080c300010b5fff7c3fd10bd74
:020000040000fa
:080c380010b5fff71bff10bd12
:020000040000fa
:080c400000487047b0000020dd
:020000040000fa
:060c48000120404270474c
:020000040000fa
:020c4e00fee7bf
:020000040000fa
:020c5000fee7bd
:020000040000fa
:020c52007047e9
:020000040000fa
:040c5400704770472e
:020000040000fa
:0200000400807a
:044000007f438fb0bb
:020000040000fa
:0200000400807a
:04400400bbfcffff03
:020000040000fa
:0200000400807a
:04c0040000ffffff3b
:020000040000fa
:0200000400807a
:04c04000ffffffff00
:020000040000fa
:0200000400807a
:04c04400fffffffffc
:020000040000fa
:0200000400807a
:04c04800fffffffff8
:020000040000fa
:0200000400807a
:04c04c00fffffffff4
:00000001FF
