:020000040000fa
:10000000f03f002069060000d50a0000d70a000072
:1000100000000000000000000000000000000000e0
:10002000000000000000000000000000d30a0000f3
:100030000000000000000000d30a0000d30a000006
:10004000d30a0000d30a0000d30a0000d30a00003c
:10005000d30a0000d30a0000d30a0000d30a00002c
:10006000d30a0000d30a0000d30a0000d30a00001c
:10007000d30a0000d30a0000d30a0000d30a00000c
:10008000d30a0000d30a0000d30a0000d30a0000fc
:10009000d30a0000d30a000015010000150100007a
:1000a0001501000015010000d30a0000d30a00006a
:1000b000d30a0000d30a0000d30a0000d30a0000cc
:1000c000d30a0000d30a0000d30a0000d30a0000bc
:1000d000d30a0000d30a0000d30a0000d30a0000ac
:1000e000d30a0000d30a0000d30a0000d30a00009c
:0400f000d30a00002f
:020000040000fa
:1000f400f8b5c046f8bc08bc9e4670472509000008
:10010400f8b5c046f8bc08bc9e467047010900001b
:020000040000fa
:1001140010b540f20043c4f200239b7d1bb340f2b0
:100124000043c4f200235b8b9b071dd540f25003b0
:10013400c2f200032022ff2199540132fd3999545f
:1001440040f25003c2f2000320229b5c5bb20133f5
:1001540000d1d3e040f25003c2f2000320229b5ca2
:10016400062b00d1f5e010bd40f20043c4f2002399
:100174005b8bdb070ad540f25003c2f20003202256
:10018400ff2199540132fd399954d9e740f20043d3
:10019400c4f200235b8b5b070ad540f25003c2f222
:1001a40000032022ff2199540132fe399954c7e7f4
:1001b40040f25003c2f2000320229b5c5bb2032b8b
:1001c4006bd0042b19d0022bbad140f25003c2f2e7
:1001d40000031b6943b140f25003c2f20003988844
:1001e400002100f07dfaabe740f25003c2f20003b5
:1001f4009888012100f074faa2e740f25003c2f299
:1002040000039a691b699a420ed040f25003c2f26d
:1002140000039968501c9861895c40f20043c4f261
:100224000023282299548be740f25003c2f20003c2
:100234005b69d3b140f25003c2f200039b885b00b8
:10024400012213439202c4f20022536240f200429c
:10025400c4f20022d369002bfcd140f25003c2f255
:1002640000032022032199546ae740f20043c4f2b8
:1002740000235968c02292020a435a6040f20042a5
:10028400c4f20022d369002bfcd140f25003c2f225
:10029400000320220621995452e740f25003c2f28f
:1002a40000035a69013adb6993420fd040f25003cc
:1002b400c2f20003d968da69501cd86140f20043e5
:1002c400c4f2002328201b5c8b5439e740f200431e
:1002d400c4f200235968e022d2020a435a6040f271
:1002e4000042c4f20022d369002bfcd140f2500337
:1002f400c2f20003202206219954d7e740f25003aa
:10030400c2f200030021995440f20043c4f20023d6
:100314005968c02292020a435a6040f20042c4f271
:100324000022d369002bfcd140f20043c4f2002325
:1003340083221a7640f25003c2f200035a6a002a5a
:1003440000d110e740f25003c2f20003986a9047cc
:1003540009e740f25003c2f20003002220215a545c
:1003640001315a5440f20043c4f2002383321a7616
:1003740040f20042c4f200220f31538b0b40102b89
:10038400fbd140f25003c2f200035a6a002a00d1a2
:10039400e9e640f25003c2f20003986a9047e2e6ad
:020000040000fa
:1003a40070b584b00f236b4402221a700e236b4481
:1003b40000221a70002000f000fb0022494c43f296
:1003c4000005c4f2000587e00f266e4440f6632062
:1003d400c0f20000310000f06ffb002333700122f3
:1003e4000e216944542000f0c9fa0f236b441b7892
:1003f400012b06d00f236b441b78022be4d001227f
:100404006ae00e336b4400221a7040f2a401c2f277
:1004140000010632542000f0b1fa0f236b441b781c
:10042400012b06d00f236b441b78022b51d00222e0
:1004340052e00e336b4400221a7001320e216944db
:10044400542000f09bfa0f236b441b78012b11d02e
:100454000f236b441b780322022b3dd10d336b44d5
:1004640000221a7001320e216944542000f086fae9
:10047400032231e00f236b4400221a7040f29803e8
:10048400c2f2000340f2a401c2f20001043200925d
:10049400023a542000f052fa0f236b441b78012bcc
:1004a40006d00f236b441b78022b12d0052213e0d5
:1004b40040f29801c2f2000140f2a400c2f200002e
:1004c4000230042200f0d9fa18b980236b610822a3
:1004d40002e08023ab61092293001b19092afdd88d
:0804e40019688f46140a00009c
:020000040000fa
:1004ec0041f20003c4f2000302221a7641f20043e7
:1004fc00c4f2000300221a7441f60043c4f2000354
:10050c000632ff32c0f204025a6241f60042c4f2d3
:10051c000002082153681942fcd141f60043c4f291
:10052c00000380224121995041f60042c4f200029e
:10053c008020013913581942fcd041f20003c4f257
:10054c00000320225a631f321a6341f20002c4f2e4
:10055c0000023c200421135c0b42fcd141f200034d
:10056c00c4f200032c220221995441f20002c4f27d
:10057c0000023c20135c0b42fcd141f20002c4f29d
:10058c00000240200321135c0b40032bfbd141f6ee
:10059c000043c4f2000340f20712c0f202021a62d6
:1005ac0041f60042c4f20002042153681942fcd106
:1005bc0041f60043c4f20003ac224021995041f6ad
:1005cc000042c4f20002ac2013581942fcd0704710
:020000040000fa
:1005dc0040f20043c4f2002301221a609202c4f2da
:1005ec000022d369002bfcd140f20043c4f200235b
:1005fc0040f200125a609200c4f20022d369002b20
:10060c00fcd140f20043c4f200239922da60833a11
:10061c00c0f210021a6040f20042c4f20022d36908
:10062c00002bfcd140f20043c4f2002310225a8369
:10063c009201c4f20022d369002bfcd140f250038a
:10064c00c2f20003002221215a5401395a5440f2bb
:0c065c000043c4f2002383329a757047fb
:020000040000fa
:1006680010b540f20003c0f2000323b140f20003ca
:10067800c0f20003984740f20003c0f2000323b120
:1006880040f20003c0f20003984700f01afa40f263
:100698000003c0f200037f2293434ef60052cef2cd
:1006a8000002936040f6a503c0f20003984740f2a9
:1006b8000003c0f2000323b140f20003c0f20003bc
:1006c800984740f20003c0f2000323b140f2000350
:0c06d800c0f200039847fff761fefee748
:020000040000fa
:1006e40010b540f25003c2f2000300229a61da61ad
:1006f40040f20043c4f2002383321a765a68144c41
:1007040022405a6040f20042c4f20022d369002b16
:10071400fcd1a9b140f25003c2f200032022032409
:100724009c544000084340f20043c4f20023586242
:1007340040f20042c4f20022d369002bfcd110bd68
:1007440040f25003c2f20003202204249c54e8e740
:04075400fffffbffa9
:020000040000fa
:100758000021f0b5174b184a934208d340f20b0c0e
:100768000027164a1368516823b919b9f0bd1970e2
:100778000133f1e7100095680c305c18b5b1654697
:10078800ed1a5219a3420ad10b00032213405a1e34
:10079800934189085918890040180200e2e75d1c56
:1007a800ae5c1e702b00ede71f700133a342fbd136
:1007b800f3e7c0460000002000000020c807000042
:020000040000fa
:1007c8007c0000201c0000000000000050000020f9
:1007d8002c00000000000000980000200400000029
:1007e80000000000a4000020060000000100000036
:1007f80000004d43485000009c0000200400000009
:100808000000000000000020500000000000000070
:10081800a00000200400000000000000000000000c
:100828000000000044444444444444444444444490
:020000040000fa
:10083800bff35f8f62b64ef20013cef2000340f2b0
:1008480014315a5813481040c022120402435a5017
:100858008022d2031a605a581202120ac0200006d7
:1008680002435a50802212041a6004315a58ff2059
:1008780082433f3802435a50802252041a605a5821
:10088800054802404cf2000002435a50802292046c
:0c0898001a607047ffff00ffff00ffff29
:020000040000fa
:1008a40000230e4a10b513600d4a0e4c13600e4a15
:1008b40013600e4a13600e4a13600e4a53621361aa
:1008c4000133936000f006f900f004f90a4b9c42ee
:1008d40000d310bd08cc9847f8e7c046a00000201c
:1008e4000c0000200001000008000020000000208f
:0c08f4000400002010000020040100009f
:020000040000fa
:1009000010b5054c227832b9044b13b1044800e00d
:1009100000bf0123237010bd7c00002000000000f8
:1009200000000000034b10b51bb10349034800e071
:1009300000bf10bd0000000080000020000000008b
:020000040000fa
:1009400070b5050040f25004c2f200042020245c7f
:10095000002004b170bd40f25004c2f20004a58032
:10096000e360049b6361a16022610023a370237094
:100970002122a35400212800fff7b4fe0120e9e75b
:020000040000fa
:1009800070b5050040f25003c2f2000320201b5c4a
:10099000002003b170bd40f25003c2f200039d80fd
:1009a0000024dc605c6199601a619c701c702122db
:0e09b0009c5400212800fff795fe0120eae785
:020000040000fa
:1009be0010b544f20003c4f2001304225a6000f092
:1009ce000df800f034f8fff78afd00f05ff800f044
:0c09de0019f8fff7fcfdfff728ff10bd23
:020000040000fa
:1009ea0040f20043c4f2000300221a819a790121dd
:1009fa000a439a7102229a705202c4f20002012139
:080a0a0093790b42fcd0704708
:020000040000fa
:020a120070472b
:020000040000fa
:100a1400cc030000ee0300001e0400004a040000a2
:100a2400780400009c040000b4040000e00400000a
:080a3400ce040000d60400000e
:020000040000fa
:100a3c0043f20003c4f2000380221a601a61393aaf
:100a4c0002219954463a4e315a5401315a54373294
:060a5c001e399954704799
:020000040000fa
:100a620010b5040000f021f818b90cb1012323706d
:0c0a720010bd002cfcd002232370f9e71b
:020000040000fa
:100a7e0030b500240139a24206d0035d01340d5d6c
:0c0a8e00ab42f8d0581b00e0002030bd47
:020000040000fa
:100a9a0044f20003c4f2001302225a60013a1a72a5
:020aaa00704793
:020000040000fa
:100aac0040f25003c2f200032122985cc0b270479e
:020000040000fa
:0e0abc0040f25003c2f2000358629962704784
:020000040000fa
:080aca0010b5fff744fe10bd5a
:020000040000fa
:020ad200fee73d
:020000040000fa
:020ad400fee73b
:020000040000fa
:020ad600fee739
:020000040000fa
:020ad800704765
:020000040000fa
:0200000400807a
:044000007f438fb0bb
:020000040000fa
:0200000400807a
:04400400bbfcffff03
:00000001FF
